{
  "_format": "hh-sol-artifact-1",
  "contractName": "HVAXVoterCard",
  "sourceName": "contracts/HVAXVoterCard.sol",
  "abi": [
    {
      "inputs": [],
      "stateMutability": "nonpayable",
      "type": "constructor"
    },
    {
      "anonymous": false,
      "inputs": [
        {
          "indexed": true,
          "internalType": "address",
          "name": "owner",
          "type": "address"
        },
        {
          "indexed": true,
          "internalType": "address",
          "name": "approved",
          "type": "address"
        },
        {
          "indexed": true,
          "internalType": "uint256",
          "name": "tokenId",
          "type": "uint256"
        }
      ],
      "name": "Approval",
      "type": "event"
    },
    {
      "anonymous": false,
      "inputs": [
        {
          "indexed": true,
          "internalType": "address",
          "name": "owner",
          "type": "address"
        },
        {
          "indexed": true,
          "internalType": "address",
          "name": "operator",
          "type": "address"
        },
        {
          "indexed": false,
          "internalType": "bool",
          "name": "approved",
          "type": "bool"
        }
      ],
      "name": "ApprovalForAll",
      "type": "event"
    },
    {
      "anonymous": false,
      "inputs": [
        {
          "indexed": false,
          "internalType": "uint256",
          "name": "_fromTokenId",
          "type": "uint256"
        },
        {
          "indexed": false,
          "internalType": "uint256",
          "name": "_toTokenId",
          "type": "uint256"
        }
      ],
      "name": "BatchMetadataUpdate",
      "type": "event"
    },
    {
      "anonymous": false,
      "inputs": [
        {
          "indexed": true,
          "internalType": "address",
          "name": "delegator",
          "type": "address"
        },
        {
          "indexed": true,
          "internalType": "address",
          "name": "fromDelegate",
          "type": "address"
        },
        {
          "indexed": true,
          "internalType": "address",
          "name": "toDelegate",
          "type": "address"
        }
      ],
      "name": "DelegateChanged",
      "type": "event"
    },
    {
      "anonymous": false,
      "inputs": [
        {
          "indexed": true,
          "internalType": "address",
          "name": "delegate",
          "type": "address"
        },
        {
          "indexed": false,
          "internalType": "uint256",
          "name": "previousBalance",
          "type": "uint256"
        },
        {
          "indexed": false,
          "internalType": "uint256",
          "name": "newBalance",
          "type": "uint256"
        }
      ],
      "name": "DelegateVotesChanged",
      "type": "event"
    },
    {
      "anonymous": false,
      "inputs": [],
      "name": "EIP712DomainChanged",
      "type": "event"
    },
    {
      "anonymous": false,
      "inputs": [
        {
          "indexed": false,
          "internalType": "uint8",
          "name": "version",
          "type": "uint8"
        }
      ],
      "name": "Initialized",
      "type": "event"
    },
    {
      "anonymous": false,
      "inputs": [
        {
          "indexed": false,
          "internalType": "uint256",
          "name": "_tokenId",
          "type": "uint256"
        }
      ],
      "name": "MetadataUpdate",
      "type": "event"
    },
    {
      "anonymous": false,
      "inputs": [
        {
          "indexed": true,
          "internalType": "address",
          "name": "previousOwner",
          "type": "address"
        },
        {
          "indexed": true,
          "internalType": "address",
          "name": "newOwner",
          "type": "address"
        }
      ],
      "name": "OwnershipTransferred",
      "type": "event"
    },
    {
      "anonymous": false,
      "inputs": [
        {
          "indexed": true,
          "internalType": "address",
          "name": "from",
          "type": "address"
        },
        {
          "indexed": true,
          "internalType": "address",
          "name": "to",
          "type": "address"
        },
        {
          "indexed": true,
          "internalType": "uint256",
          "name": "tokenId",
          "type": "uint256"
        }
      ],
      "name": "Transfer",
      "type": "event"
    },
    {
      "inputs": [],
      "name": "CLOCK_MODE",
      "outputs": [
        {
          "internalType": "string",
          "name": "",
          "type": "string"
        }
      ],
      "stateMutability": "pure",
      "type": "function"
    },
    {
      "inputs": [],
      "name": "DOMAIN_SEPARATOR",
      "outputs": [
        {
          "internalType": "bytes32",
          "name": "",
          "type": "bytes32"
        }
      ],
      "stateMutability": "view",
      "type": "function"
    },
    {
      "inputs": [
        {
          "internalType": "address",
          "name": "to",
          "type": "address"
        },
        {
          "internalType": "uint256",
          "name": "tokenId",
          "type": "uint256"
        }
      ],
      "name": "approve",
      "outputs": [],
      "stateMutability": "nonpayable",
      "type": "function"
    },
    {
      "inputs": [
        {
          "internalType": "address",
          "name": "owner",
          "type": "address"
        }
      ],
      "name": "balanceOf",
      "outputs": [
        {
          "internalType": "uint256",
          "name": "",
          "type": "uint256"
        }
      ],
      "stateMutability": "view",
      "type": "function"
    },
    {
      "inputs": [],
      "name": "clock",
      "outputs": [
        {
          "internalType": "uint48",
          "name": "",
          "type": "uint48"
        }
      ],
      "stateMutability": "view",
      "type": "function"
    },
    {
      "inputs": [
        {
          "internalType": "address",
          "name": "delegatee",
          "type": "address"
        }
      ],
      "name": "delegate",
      "outputs": [],
      "stateMutability": "nonpayable",
      "type": "function"
    },
    {
      "inputs": [
        {
          "internalType": "address",
          "name": "delegatee",
          "type": "address"
        },
        {
          "internalType": "uint256",
          "name": "nonce",
          "type": "uint256"
        },
        {
          "internalType": "uint256",
          "name": "expiry",
          "type": "uint256"
        },
        {
          "internalType": "uint8",
          "name": "v",
          "type": "uint8"
        },
        {
          "internalType": "bytes32",
          "name": "r",
          "type": "bytes32"
        },
        {
          "internalType": "bytes32",
          "name": "s",
          "type": "bytes32"
        }
      ],
      "name": "delegateBySig",
      "outputs": [],
      "stateMutability": "nonpayable",
      "type": "function"
    },
    {
      "inputs": [
        {
          "internalType": "address",
          "name": "account",
          "type": "address"
        }
      ],
      "name": "delegates",
      "outputs": [
        {
          "internalType": "address",
          "name": "",
          "type": "address"
        }
      ],
      "stateMutability": "view",
      "type": "function"
    },
    {
      "inputs": [],
      "name": "eip712Domain",
      "outputs": [
        {
          "internalType": "bytes1",
          "name": "fields",
          "type": "bytes1"
        },
        {
          "internalType": "string",
          "name": "name",
          "type": "string"
        },
        {
          "internalType": "string",
          "name": "version",
          "type": "string"
        },
        {
          "internalType": "uint256",
          "name": "chainId",
          "type": "uint256"
        },
        {
          "internalType": "address",
          "name": "verifyingContract",
          "type": "address"
        },
        {
          "internalType": "bytes32",
          "name": "salt",
          "type": "bytes32"
        },
        {
          "internalType": "uint256[]",
          "name": "extensions",
          "type": "uint256[]"
        }
      ],
      "stateMutability": "view",
      "type": "function"
    },
    {
      "inputs": [
        {
          "internalType": "uint256",
          "name": "tokenId",
          "type": "uint256"
        }
      ],
      "name": "getApproved",
      "outputs": [
        {
          "internalType": "address",
          "name": "",
          "type": "address"
        }
      ],
      "stateMutability": "view",
      "type": "function"
    },
    {
      "inputs": [
        {
          "internalType": "uint256",
          "name": "timepoint",
          "type": "uint256"
        }
      ],
      "name": "getPastTotalSupply",
      "outputs": [
        {
          "internalType": "uint256",
          "name": "",
          "type": "uint256"
        }
      ],
      "stateMutability": "view",
      "type": "function"
    },
    {
      "inputs": [
        {
          "internalType": "address",
          "name": "account",
          "type": "address"
        },
        {
          "internalType": "uint256",
          "name": "timepoint",
          "type": "uint256"
        }
      ],
      "name": "getPastVotes",
      "outputs": [
        {
          "internalType": "uint256",
          "name": "",
          "type": "uint256"
        }
      ],
      "stateMutability": "view",
      "type": "function"
    },
    {
      "inputs": [
        {
          "internalType": "address",
          "name": "account",
          "type": "address"
        }
      ],
      "name": "getVotes",
      "outputs": [
        {
          "internalType": "uint256",
          "name": "",
          "type": "uint256"
        }
      ],
      "stateMutability": "view",
      "type": "function"
    },
    {
      "inputs": [],
      "name": "initialize",
      "outputs": [],
      "stateMutability": "nonpayable",
      "type": "function"
    },
    {
      "inputs": [
        {
          "internalType": "address",
          "name": "owner",
          "type": "address"
        },
        {
          "internalType": "address",
          "name": "operator",
          "type": "address"
        }
      ],
      "name": "isApprovedForAll",
      "outputs": [
        {
          "internalType": "bool",
          "name": "",
          "type": "bool"
        }
      ],
      "stateMutability": "view",
      "type": "function"
    },
    {
      "inputs": [],
      "name": "name",
      "outputs": [
        {
          "internalType": "string",
          "name": "",
          "type": "string"
        }
      ],
      "stateMutability": "view",
      "type": "function"
    },
    {
      "inputs": [
        {
          "internalType": "address",
          "name": "owner",
          "type": "address"
        }
      ],
      "name": "nonces",
      "outputs": [
        {
          "internalType": "uint256",
          "name": "",
          "type": "uint256"
        }
      ],
      "stateMutability": "view",
      "type": "function"
    },
    {
      "inputs": [],
      "name": "owner",
      "outputs": [
        {
          "internalType": "address",
          "name": "",
          "type": "address"
        }
      ],
      "stateMutability": "view",
      "type": "function"
    },
    {
      "inputs": [
        {
          "internalType": "uint256",
          "name": "tokenId",
          "type": "uint256"
        }
      ],
      "name": "ownerOf",
      "outputs": [
        {
          "internalType": "address",
          "name": "",
          "type": "address"
        }
      ],
      "stateMutability": "view",
      "type": "function"
    },
    {
      "inputs": [],
      "name": "renounceOwnership",
      "outputs": [],
      "stateMutability": "nonpayable",
      "type": "function"
    },
    {
      "inputs": [
        {
          "internalType": "address",
          "name": "to",
          "type": "address"
        }
      ],
      "name": "safeMint",
      "outputs": [],
      "stateMutability": "nonpayable",
      "type": "function"
    },
    {
      "inputs": [
        {
          "internalType": "address",
          "name": "from",
          "type": "address"
        },
        {
          "internalType": "address",
          "name": "to",
          "type": "address"
        },
        {
          "internalType": "uint256",
          "name": "tokenId",
          "type": "uint256"
        }
      ],
      "name": "safeTransferFrom",
      "outputs": [],
      "stateMutability": "nonpayable",
      "type": "function"
    },
    {
      "inputs": [
        {
          "internalType": "address",
          "name": "from",
          "type": "address"
        },
        {
          "internalType": "address",
          "name": "to",
          "type": "address"
        },
        {
          "internalType": "uint256",
          "name": "tokenId",
          "type": "uint256"
        },
        {
          "internalType": "bytes",
          "name": "data",
          "type": "bytes"
        }
      ],
      "name": "safeTransferFrom",
      "outputs": [],
      "stateMutability": "nonpayable",
      "type": "function"
    },
    {
      "inputs": [
        {
          "internalType": "address",
          "name": "operator",
          "type": "address"
        },
        {
          "internalType": "bool",
          "name": "approved",
          "type": "bool"
        }
      ],
      "name": "setApprovalForAll",
      "outputs": [],
      "stateMutability": "nonpayable",
      "type": "function"
    },
    {
      "inputs": [
        {
          "internalType": "string",
          "name": "newUri",
          "type": "string"
        }
      ],
      "name": "setBaseUri",
      "outputs": [],
      "stateMutability": "nonpayable",
      "type": "function"
    },
    {
      "inputs": [
        {
          "internalType": "bytes4",
          "name": "interfaceId",
          "type": "bytes4"
        }
      ],
      "name": "supportsInterface",
      "outputs": [
        {
          "internalType": "bool",
          "name": "",
          "type": "bool"
        }
      ],
      "stateMutability": "view",
      "type": "function"
    },
    {
      "inputs": [],
      "name": "symbol",
      "outputs": [
        {
          "internalType": "string",
          "name": "",
          "type": "string"
        }
      ],
      "stateMutability": "view",
      "type": "function"
    },
    {
      "inputs": [
        {
          "internalType": "uint256",
          "name": "tokenId",
          "type": "uint256"
        }
      ],
      "name": "tokenURI",
      "outputs": [
        {
          "internalType": "string",
          "name": "",
          "type": "string"
        }
      ],
      "stateMutability": "view",
      "type": "function"
    },
    {
      "inputs": [
        {
          "internalType": "address",
          "name": "from",
          "type": "address"
        },
        {
          "internalType": "address",
          "name": "to",
          "type": "address"
        },
        {
          "internalType": "uint256",
          "name": "tokenId",
          "type": "uint256"
        }
      ],
      "name": "transferFrom",
      "outputs": [],
      "stateMutability": "nonpayable",
      "type": "function"
    },
    {
      "inputs": [
        {
          "internalType": "address",
          "name": "newOwner",
          "type": "address"
        }
      ],
      "name": "transferOwnership",
      "outputs": [],
      "stateMutability": "nonpayable",
      "type": "function"
    }
  ],
  "bytecode": "0x60806040523480156200001157600080fd5b506200001c62000022565b620000e3565b600054610100900460ff16156200008f5760405162461bcd60e51b815260206004820152602760248201527f496e697469616c697a61626c653a20636f6e747261637420697320696e697469604482015266616c697a696e6760c81b606482015260840160405180910390fd5b60005460ff90811614620000e1576000805460ff191660ff9081179091556040519081527f7f26b83ff96e1f2b6a682f133852f6798a09c465da95921460cefb38474024989060200160405180910390a15b565b612c3a80620000f36000396000f3fe608060405234801561001057600080fd5b506004361061016a5760003560e01c806301ffc9a71461016f57806306fdde0314610197578063081812fc146101ac578063095ea7b3146101d757806323b872dd146101ec5780633644e515146101ff5780633a46b1a81461021557806340d097c31461022857806342842e0e1461023b5780634bf5d7e91461024e578063587cde1e146102785780635c19a95c1461028b5780636352211e1461029e57806370a08231146102b1578063715018a6146102c45780637ecebe00146102cc5780638129fc1c146102df57806384b0196e146102e75780638da5cb5b146103025780638e539e8c1461030a57806391ddadf41461031d57806395d89b41146103335780639ab24eb01461033b578063a0bcfc7f1461034e578063a22cb46514610361578063b88d4fde14610374578063c3cda52014610387578063c87b56dd1461039a578063e985e9c5146103ad578063f2fde38b146103c0575b600080fd5b61018261017d366004612501565b6103d3565b60405190151581526020015b60405180910390f35b61019f6103e4565b60405161018e9190612576565b6101bf6101ba366004612589565b610476565b6040516001600160a01b03909116815260200161018e565b6101ea6101e53660046125be565b61049d565b005b6101ea6101fa3660046125e8565b6105b8565b6102076105e9565b60405190815260200161018e565b6102076102233660046125be565b6105f8565b6101ea610236366004612624565b61065c565b6101ea6102493660046125e8565b6106ed565b60408051808201909152600e81526d06d6f64653d74696d657374616d760941b602082015261019f565b6101bf610286366004612624565b610708565b6101ea610299366004612624565b610727565b6101bf6102ac366004612589565b610736565b6102076102bf366004612624565b61076a565b6101ea6107f0565b6102076102da366004612624565b610804565b6101ea610823565b6102ef610a00565b60405161018e979695949392919061263f565b6101bf610a9e565b610207610318366004612589565b610aad565b60405165ffffffffffff4216815260200161018e565b61019f610afa565b610207610349366004612624565b610b09565b6101ea61035c366004612760565b610b2b565b6101ea61036f3660046127a8565b610b47565b6101ea6103823660046127e4565b610b52565b6101ea61039536600461285f565b610b8a565b61019f6103a8366004612589565b610cb2565b6101826103bb3660046128bf565b610cbd565b6101ea6103ce366004612624565b610ceb565b60006103de82610d61565b92915050565b6060606580546103f3906128f2565b80601f016020809104026020016040519081016040528092919081815260200182805461041f906128f2565b801561046c5780601f106104415761010080835404028352916020019161046c565b820191906000526020600020905b81548152906001019060200180831161044f57829003601f168201915b5050505050905090565b600061048182610d86565b506000908152606960205260409020546001600160a01b031690565b60006104a882610736565b9050806001600160a01b0316836001600160a01b0316141561051b5760405162461bcd60e51b815260206004820152602160248201527f4552433732313a20617070726f76616c20746f2063757272656e74206f776e656044820152603960f91b60648201526084015b60405180910390fd5b336001600160a01b038216148061053757506105378133610cbd565b6105a95760405162461bcd60e51b815260206004820152603d60248201527f4552433732313a20617070726f76652063616c6c6572206973206e6f7420746f60448201527f6b656e206f776e6572206f7220617070726f76656420666f7220616c6c0000006064820152608401610512565b6105b38383610dab565b505050565b6105c23382610e19565b6105de5760405162461bcd60e51b815260040161051290612927565b6105b3838383610e78565b60006105f3610eb4565b905090565b60004265ffffffffffff1682106106215760405162461bcd60e51b815260040161051290612974565b61064c61062d83610ebe565b6001600160a01b03851660009081526101306020526040902090610f27565b6001600160e01b03169392505050565b60006106678261076a565b905080156106b45760405162461bcd60e51b815260206004820152601a6024820152795573657220616c72656164792068617320612062616c616e636560301b6044820152606401610512565b60006106c06101935490565b90506106d161019380546001019055565b6106db8382610fdb565b6105b3816106e883610cb2565b610ff5565b6105b383838360405180602001604052806000815250610b52565b6001600160a01b03908116600090815261012f60205260409020541690565b3361073281836110b8565b5050565b60008061074283611134565b90506001600160a01b0381166103de5760405162461bcd60e51b8152600401610512906129a2565b60006001600160a01b0382166107d45760405162461bcd60e51b815260206004820152602960248201527f4552433732313a2061646472657373207a65726f206973206e6f7420612076616044820152683634b21037bbb732b960b91b6064820152608401610512565b506001600160a01b031660009081526068602052604090205490565b6107f861114f565b61080260006111ae565b565b6001600160a01b038116600090815261013260205260408120546103de565b600054610100900460ff16158080156108435750600054600160ff909116105b80610864575061085230611200565b158015610864575060005460ff166001145b6108c75760405162461bcd60e51b815260206004820152602e60248201527f496e697469616c697a61626c653a20636f6e747261637420697320616c72656160448201526d191e481a5b9a5d1a585b1a5e995960921b6064820152608401610512565b6000805460ff1916600117905580156108ea576000805461ff0019166101001790555b6109376040518060400160405280600d81526020016c12159056159bdd195c90d85c99609a1b8152506040518060400160405280600681526020016548564158564360d01b81525061120f565b61093f611240565b610947611267565b61098f6040518060400160405280600d81526020016c12159056159bdd195c90d85c99609a1b815250604051806040016040528060018152602001603160f81b815250611296565b610997611240565b6040805160208101918290526000908190526109b6916101949161245b565b5080156109fd576000805461ff0019169055604051600181527f7f26b83ff96e1f2b6a682f133852f6798a09c465da95921460cefb38474024989060200160405180910390a15b50565b60006060806000806000606060fb546000801b148015610a20575060fc54155b610a645760405162461bcd60e51b81526020600482015260156024820152741152540dcc4c8e88155b9a5b9a5d1a585b1a5e9959605a1b6044820152606401610512565b610a6c6112c7565b610a746112d6565b60408051600080825260208201909252600f60f81b9b939a50919850469750309650945092509050565b60c9546001600160a01b031690565b60004265ffffffffffff168210610ad65760405162461bcd60e51b815260040161051290612974565b610aeb610ae283610ebe565b61013190610f27565b6001600160e01b031692915050565b6060606680546103f3906128f2565b6001600160a01b038116600090815261013060205260408120610aeb906112e5565b610b3361114f565b80516107329061019490602084019061245b565b61073233838361131f565b610b5c3383610e19565b610b785760405162461bcd60e51b815260040161051290612927565b610b84848484846113ea565b50505050565b83421115610bd55760405162461bcd60e51b8152602060048201526018602482015277159bdd195cce881cda59db985d1d5c9948195e1c1a5c995960421b6044820152606401610512565b604080517fe48329057bfd03d55e49b547132e39cffd9c1820ad7b9d4c5307691425d15adf60208201526001600160a01b038816918101919091526060810186905260808101859052600090610c4f90610c479060a0016040516020818303038152906040528051906020012061141d565b85858561144a565b9050610c5a81611472565b8614610c9f5760405162461bcd60e51b8152602060048201526014602482015273566f7465733a20696e76616c6964206e6f6e636560601b6044820152606401610512565b610ca981886110b8565b50505050505050565b60606103de8261149b565b6001600160a01b039182166000908152606a6020908152604080832093909416825291909152205460ff1690565b610cf361114f565b6001600160a01b038116610d585760405162461bcd60e51b815260206004820152602660248201527f4f776e61626c653a206e6577206f776e657220697320746865207a65726f206160448201526564647265737360d01b6064820152608401610512565b6109fd816111ae565b60006001600160e01b03198216632483248360e11b14806103de57506103de82611597565b610d8f816115e7565b6109fd5760405162461bcd60e51b8152600401610512906129a2565b600081815260696020526040902080546001600160a01b0319166001600160a01b0384169081179091558190610de082610736565b6001600160a01b03167f8c5be1e5ebec7d5bd14f71427d1e84f3dd0314c0f7b2291e5b200ac8c7c3b92560405160405180910390a45050565b600080610e2583610736565b9050806001600160a01b0316846001600160a01b03161480610e4c5750610e4c8185610cbd565b80610e705750836001600160a01b0316610e6584610476565b6001600160a01b0316145b949350505050565b60405162461bcd60e51b81526020600482015260116024820152704e6f74207472616e736665727261626c6560781b6044820152606401610512565b60006105f3611604565b600063ffffffff821115610f235760405162461bcd60e51b815260206004820152602660248201527f53616665436173743a2076616c756520646f65736e27742066697420696e203360448201526532206269747360d01b6064820152608401610512565b5090565b815460009081816005811115610f84576000610f4284611678565b610f4c90856129ea565b60008881526020902090915081015463ffffffff9081169087161015610f7457809150610f82565b610f7f816001612a01565b92505b505b6000610f928787858561175d565b90508015610fcd57610fb787610fa96001846129ea565b600091825260209091200190565b54600160201b90046001600160e01b0316610fd0565b60005b979650505050505050565b6107328282604051806020016040528060008152506117bb565b610ffe826115e7565b6110615760405162461bcd60e51b815260206004820152602e60248201527f45524337323155524953746f726167653a2055524920736574206f66206e6f6e60448201526d32bc34b9ba32b73a103a37b5b2b760911b6064820152608401610512565b600082815260976020908152604090912082516110809284019061245b565b506040518281527ff8e1a15aba9398e019f0b49df1a4fde98ee17ae345cb5f6b5e2c27f5033e8ce79060200160405180910390a15050565b60006110c383610708565b6001600160a01b03848116600081815261012f602052604080822080546001600160a01b031916888616908117909155905194955093928516927f3134e8a2e6d97e929a7e54011ea5485d7d196dd5f0ba4d4ef95803e8e3fc257f9190a46105b3818361112f866117ee565b6117f9565b6000908152606760205260409020546001600160a01b031690565b33611158610a9e565b6001600160a01b0316146108025760405162461bcd60e51b815260206004820181905260248201527f4f776e61626c653a2063616c6c6572206973206e6f7420746865206f776e65726044820152606401610512565b60c980546001600160a01b038381166001600160a01b0319831681179093556040519116919082907f8be0079c531659141344cd1fd0a4f28419497f9722a3daafe3b4186f6b6457e090600090a35050565b6001600160a01b03163b151590565b600054610100900460ff166112365760405162461bcd60e51b815260040161051290612a19565b6107328282611943565b600054610100900460ff166108025760405162461bcd60e51b815260040161051290612a19565b600054610100900460ff1661128e5760405162461bcd60e51b815260040161051290612a19565b610802611991565b600054610100900460ff166112bd5760405162461bcd60e51b815260040161051290612a19565b61073282826119c1565b606060fd80546103f3906128f2565b606060fe80546103f3906128f2565b80546000908015611315576112ff83610fa96001846129ea565b54600160201b90046001600160e01b0316611318565b60005b9392505050565b816001600160a01b0316836001600160a01b0316141561137d5760405162461bcd60e51b815260206004820152601960248201527822a9219b99189d1030b8383937bb32903a379031b0b63632b960391b6044820152606401610512565b6001600160a01b038381166000818152606a6020908152604080832094871680845294825291829020805460ff191686151590811790915591519182527f17307eab39ab6107e8899845ad3d59bd9653f200f220920489ca2b5937696c31910160405180910390a3505050565b6113f5848484610e78565b61140184848484611a1e565b610b845760405162461bcd60e51b815260040161051290612a64565b60006103de61142a610eb4565b8360405161190160f01b8152600281019290925260228201526042902090565b600080600061145b87878787611b20565b9150915061146881611bda565b5095945050505050565b6001600160a01b0381166000908152610132602052604090208054600181018255905b50919050565b60606114a682610d86565b600082815260976020526040812080546114bf906128f2565b80601f01602080910402602001604051908101604052809291908181526020018280546114eb906128f2565b80156115385780601f1061150d57610100808354040283529160200191611538565b820191906000526020600020905b81548152906001019060200180831161151b57829003601f168201915b505050505090506000611549611d23565b905080516000141561155c575092915050565b81511561158e578082604051602001611576929190612ab6565b60405160208183030381529060405292505050919050565b610e7084611d33565b60006001600160e01b031982166380ac58cd60e01b14806115c857506001600160e01b03198216635b5e139f60e01b145b806103de57506301ffc9a760e01b6001600160e01b03198316146103de565b6000806115f383611134565b6001600160a01b0316141592915050565b60007f8b73c3c69bb8fe3d512ecc4cf759cc79239f7b179b0ffacaa9a75d522b39400f61162f611d99565b611637611df2565b60408051602081019490945283019190915260608201524660808201523060a082015260c00160405160208183030381529060405280519060200120905090565b60008161168757506000919050565b6000600161169484611e23565b901c6001901b905060018184816116ad576116ad612ae5565b048201901c905060018184816116c5576116c5612ae5565b048201901c905060018184816116dd576116dd612ae5565b048201901c905060018184816116f5576116f5612ae5565b048201901c9050600181848161170d5761170d612ae5565b048201901c9050600181848161172557611725612ae5565b048201901c9050600181848161173d5761173d612ae5565b048201901c90506113188182858161175757611757612ae5565b04611eb7565b60005b818310156117b35760006117748484611ecd565b60008781526020902090915063ffffffff86169082015463ffffffff16111561179f578092506117ad565b6117aa816001612a01565b93505b50611760565b509392505050565b6117c58383611ee8565b6117d26000848484611a1e565b6105b35760405162461bcd60e51b815260040161051290612a64565b60006103de8261076a565b816001600160a01b0316836001600160a01b03161415801561181b5750600081115b156105b3576001600160a01b038316156118b2576001600160a01b038316600090815261013060205260408120819061185f90611fff61185a8661200b565b612074565b6001600160e01b031691506001600160e01b03169150846001600160a01b0316600080516020612c0e83398151915283836040516118a7929190918252602082015260400190565b60405180910390a250505b6001600160a01b038216156105b3576001600160a01b03821660009081526101306020526040812081906118ec906120b661185a8661200b565b6001600160e01b031691506001600160e01b03169150836001600160a01b0316600080516020612c0e8339815191528383604051611934929190918252602082015260400190565b60405180910390a25050505050565b600054610100900460ff1661196a5760405162461bcd60e51b815260040161051290612a19565b815161197d90606590602085019061245b565b5080516105b390606690602084019061245b565b600054610100900460ff166119b85760405162461bcd60e51b815260040161051290612a19565b610802336111ae565b600054610100900460ff166119e85760405162461bcd60e51b815260040161051290612a19565b81516119fb9060fd90602085019061245b565b508051611a0f9060fe90602084019061245b565b5050600060fb81905560fc5550565b6000611a32846001600160a01b0316611200565b15611b1857604051630a85bd0160e11b81526001600160a01b0385169063150b7a0290611a69903390899088908890600401612afb565b6020604051808303816000875af1925050508015611aa4575060408051601f3d908101601f19168201909252611aa191810190612b38565b60015b611afe573d808015611ad2576040519150601f19603f3d011682016040523d82523d6000602084013e611ad7565b606091505b508051611af65760405162461bcd60e51b815260040161051290612a64565b805181602001fd5b6001600160e01b031916630a85bd0160e11b149050610e70565b506001610e70565b6000806fa2a8918ca85bafe22016d0b997e4df60600160ff1b03831115611b4d5750600090506003611bd1565b6040805160008082526020820180845289905260ff881692820192909252606081018690526080810185905260019060a0016020604051602081039080840390855afa158015611ba1573d6000803e3d6000fd5b5050604051601f1901519150506001600160a01b038116611bca57600060019250925050611bd1565b9150600090505b94509492505050565b6000816004811115611bee57611bee612b55565b1415611bf75750565b6001816004811115611c0b57611c0b612b55565b1415611c545760405162461bcd60e51b815260206004820152601860248201527745434453413a20696e76616c6964207369676e617475726560401b6044820152606401610512565b6002816004811115611c6857611c68612b55565b1415611cb65760405162461bcd60e51b815260206004820152601f60248201527f45434453413a20696e76616c6964207369676e6174757265206c656e677468006044820152606401610512565b6003816004811115611cca57611cca612b55565b14156109fd5760405162461bcd60e51b815260206004820152602260248201527f45434453413a20696e76616c6964207369676e6174757265202773272076616c604482015261756560f01b6064820152608401610512565b606061019480546103f3906128f2565b6060611d3e82610d86565b6000611d48611d23565b90506000815111611d685760405180602001604052806000815250611318565b80611d72846120c2565b604051602001611d83929190612ab6565b6040516020818303038152906040529392505050565b600080611da46112c7565b805190915015611dbb578051602090910120919050565b60fb548015611dca5792915050565b7fc5d2460186f7233c927e7db2dcc703c0e500b653ca82273b7bfad8045d85a4709250505090565b600080611dfd6112d6565b805190915015611e14578051602090910120919050565b60fc548015611dca5792915050565b600080608083901c15611e3857608092831c92015b604083901c15611e4a57604092831c92015b602083901c15611e5c57602092831c92015b601083901c15611e6e57601092831c92015b600883901c15611e8057600892831c92015b600483901c15611e9257600492831c92015b600283901c15611ea457600292831c92015b600183901c156103de5760010192915050565b6000818310611ec65781611318565b5090919050565b6000611edc6002848418612b6b565b61131890848416612a01565b6001600160a01b038216611f3e5760405162461bcd60e51b815260206004820181905260248201527f4552433732313a206d696e7420746f20746865207a65726f20616464726573736044820152606401610512565b611f47816115e7565b15611f645760405162461bcd60e51b815260040161051290612b8d565b611f6d816115e7565b15611f8a5760405162461bcd60e51b815260040161051290612b8d565b6001600160a01b038216600081815260686020908152604080832080546001019055848352606790915280822080546001600160a01b0319168417905551839291907fddf252ad1be2c89b69c2b068fc378daa952ba7f163c4a11628f55a4df523b3ef908290a4610732600083836001612156565b60006113188284612bc3565b60006001600160e01b03821115610f235760405162461bcd60e51b815260206004820152602760248201527f53616665436173743a2076616c756520646f65736e27742066697420696e20326044820152663234206269747360c81b6064820152608401610512565b6000806120a961208b4265ffffffffffff16610ebe565b6120a1612097886112e5565b868863ffffffff16565b879190612162565b915091505b935093915050565b60006113188284612beb565b606060006120cf83612170565b60010190506000816001600160401b038111156120ee576120ee6126d5565b6040519080825280601f01601f191660200182016040528015612118576020820181803683370190505b5090508181016020015b600019016f181899199a1a9b1b9c1cb0b131b232b360811b600a86061a8153600a8504945084612151576117b3565b612122565b610b8484848484612246565b6000806120a9858585612256565b60008072184f03e93ff9f4daa797ed6e38ed64bf6a1f0160401b83106121af5772184f03e93ff9f4daa797ed6e38ed64bf6a1f0160401b830492506040015b6904ee2d6d415b85acef8160201b83106121d9576904ee2d6d415b85acef8160201b830492506020015b662386f26fc1000083106121f757662386f26fc10000830492506010015b6305f5e100831061220f576305f5e100830492506008015b612710831061222357612710830492506004015b60648310612235576064830492506002015b600a83106103de5760010192915050565b6122518484836123fa565b610b84565b8254600090819080156123a157600061227487610fa96001856129ea565b60408051808201909152905463ffffffff808216808452600160201b9092046001600160e01b0316602084015291925090871610156122f35760405162461bcd60e51b815260206004820152601b60248201527a436865636b706f696e743a2064656372656173696e67206b65797360281b6044820152606401610512565b8563ffffffff16816000015163ffffffff161415612342578461231b88610fa96001866129ea565b80546001600160e01b0392909216600160201b0263ffffffff909216919091179055612391565b6040805180820190915263ffffffff80881682526001600160e01b0380881660208085019182528b54600181018d5560008d81529190912094519151909216600160201b029216919091179101555b6020015192508391506120ae9050565b50506040805180820190915263ffffffff80851682526001600160e01b0380851660208085019182528854600181018a5560008a815291822095519251909316600160201b0291909316179201919091559050816120ae565b6001600160a01b03831661241d5761241a6101316120b661185a8461200b565b50505b6001600160a01b0382166124405761243d610131611fff61185a8461200b565b50505b6105b361244c84610708565b61245584610708565b836117f9565b828054612467906128f2565b90600052602060002090601f01602090048101928261248957600085556124cf565b82601f106124a257805160ff19168380011785556124cf565b828001600101855582156124cf579182015b828111156124cf5782518255916020019190600101906124b4565b50610f239291505b80821115610f2357600081556001016124d7565b6001600160e01b0319811681146109fd57600080fd5b60006020828403121561251357600080fd5b8135611318816124eb565b60005b83811015612539578181015183820152602001612521565b83811115610b845750506000910152565b6000815180845261256281602086016020860161251e565b601f01601f19169290920160200192915050565b602081526000611318602083018461254a565b60006020828403121561259b57600080fd5b5035919050565b80356001600160a01b03811681146125b957600080fd5b919050565b600080604083850312156125d157600080fd5b6125da836125a2565b946020939093013593505050565b6000806000606084860312156125fd57600080fd5b612606846125a2565b9250612614602085016125a2565b9150604084013590509250925092565b60006020828403121561263657600080fd5b611318826125a2565b60ff60f81b881681526000602060e08184015261265f60e084018a61254a565b8381036040850152612671818a61254a565b606085018990526001600160a01b038816608086015260a0850187905284810360c0860152855180825283870192509083019060005b818110156126c3578351835292840192918401916001016126a7565b50909c9b505050505050505050505050565b634e487b7160e01b600052604160045260246000fd5b60006001600160401b0380841115612705576127056126d5565b604051601f8501601f19908116603f0116810190828211818310171561272d5761272d6126d5565b8160405280935085815286868601111561274657600080fd5b858560208301376000602087830101525050509392505050565b60006020828403121561277257600080fd5b81356001600160401b0381111561278857600080fd5b8201601f8101841361279957600080fd5b610e70848235602084016126eb565b600080604083850312156127bb57600080fd5b6127c4836125a2565b9150602083013580151581146127d957600080fd5b809150509250929050565b600080600080608085870312156127fa57600080fd5b612803856125a2565b9350612811602086016125a2565b92506040850135915060608501356001600160401b0381111561283357600080fd5b8501601f8101871361284457600080fd5b612853878235602084016126eb565b91505092959194509250565b60008060008060008060c0878903121561287857600080fd5b612881876125a2565b95506020870135945060408701359350606087013560ff811681146128a557600080fd5b9598949750929560808101359460a0909101359350915050565b600080604083850312156128d257600080fd5b6128db836125a2565b91506128e9602084016125a2565b90509250929050565b600181811c9082168061290657607f821691505b6020821081141561149557634e487b7160e01b600052602260045260246000fd5b6020808252602d908201527f4552433732313a2063616c6c6572206973206e6f7420746f6b656e206f776e6560408201526c1c881bdc88185c1c1c9bdd9959609a1b606082015260800190565b6020808252601490820152730566f7465733a20667574757265206c6f6f6b75760641b604082015260600190565b602080825260189082015277115490cdcc8c4e881a5b9d985b1a59081d1bdad95b88125160421b604082015260600190565b634e487b7160e01b600052601160045260246000fd5b6000828210156129fc576129fc6129d4565b500390565b60008219821115612a1457612a146129d4565b500190565b6020808252602b908201527f496e697469616c697a61626c653a20636f6e7472616374206973206e6f74206960408201526a6e697469616c697a696e6760a81b606082015260800190565b60208082526032908201527f4552433732313a207472616e7366657220746f206e6f6e20455243373231526560408201527131b2b4bb32b91034b6b83632b6b2b73a32b960711b606082015260800190565b60008351612ac881846020880161251e565b835190830190612adc81836020880161251e565b01949350505050565b634e487b7160e01b600052601260045260246000fd5b6001600160a01b0385811682528416602082015260408101839052608060608201819052600090612b2e9083018461254a565b9695505050505050565b600060208284031215612b4a57600080fd5b8151611318816124eb565b634e487b7160e01b600052602160045260246000fd5b600082612b8857634e487b7160e01b600052601260045260246000fd5b500490565b6020808252601c908201527b115490cdcc8c4e881d1bdad95b88185b1c9958591e481b5a5b9d195960221b604082015260600190565b60006001600160e01b0383811690831681811015612be357612be36129d4565b039392505050565b60006001600160e01b03828116848216808303821115612adc57612adc6129d456fedec2bacdd2f05b59de34da9b523dff8be42e5e38e818c82fdb0bae774387a724a164736f6c634300080c000a",
  "linkReferences": {},
  "deployedLinkReferences": {}
}