{
  "_format": "hh-sol-artifact-1",
  "contractName": "HVAXVoterGovernor",
  "sourceName": "contracts/HVAXVoterGovernor.sol",
  "abi": [
    {
      "inputs": [],
      "stateMutability": "nonpayable",
      "type": "constructor"
    },
    {
      "inputs": [],
      "name": "Empty",
      "type": "error"
    },
    {
      "anonymous": false,
      "inputs": [],
      "name": "EIP712DomainChanged",
      "type": "event"
    },
    {
      "anonymous": false,
      "inputs": [
        {
          "indexed": false,
          "internalType": "uint8",
          "name": "version",
          "type": "uint8"
        }
      ],
      "name": "Initialized",
      "type": "event"
    },
    {
      "anonymous": false,
      "inputs": [
        {
          "indexed": false,
          "internalType": "uint256",
          "name": "proposalId",
          "type": "uint256"
        }
      ],
      "name": "ProposalCanceled",
      "type": "event"
    },
    {
      "anonymous": false,
      "inputs": [
        {
          "indexed": false,
          "internalType": "uint256",
          "name": "proposalId",
          "type": "uint256"
        },
        {
          "indexed": false,
          "internalType": "address",
          "name": "proposer",
          "type": "address"
        },
        {
          "indexed": false,
          "internalType": "address[]",
          "name": "targets",
          "type": "address[]"
        },
        {
          "indexed": false,
          "internalType": "uint256[]",
          "name": "values",
          "type": "uint256[]"
        },
        {
          "indexed": false,
          "internalType": "string[]",
          "name": "signatures",
          "type": "string[]"
        },
        {
          "indexed": false,
          "internalType": "bytes[]",
          "name": "calldatas",
          "type": "bytes[]"
        },
        {
          "indexed": false,
          "internalType": "uint256",
          "name": "voteStart",
          "type": "uint256"
        },
        {
          "indexed": false,
          "internalType": "uint256",
          "name": "voteEnd",
          "type": "uint256"
        },
        {
          "indexed": false,
          "internalType": "string",
          "name": "description",
          "type": "string"
        }
      ],
      "name": "ProposalCreated",
      "type": "event"
    },
    {
      "anonymous": false,
      "inputs": [
        {
          "indexed": false,
          "internalType": "uint256",
          "name": "proposalId",
          "type": "uint256"
        }
      ],
      "name": "ProposalExecuted",
      "type": "event"
    },
    {
      "anonymous": false,
      "inputs": [
        {
          "indexed": false,
          "internalType": "uint256",
          "name": "oldProposalThreshold",
          "type": "uint256"
        },
        {
          "indexed": false,
          "internalType": "uint256",
          "name": "newProposalThreshold",
          "type": "uint256"
        }
      ],
      "name": "ProposalThresholdSet",
      "type": "event"
    },
    {
      "anonymous": false,
      "inputs": [
        {
          "indexed": false,
          "internalType": "uint256",
          "name": "oldQuorumNumerator",
          "type": "uint256"
        },
        {
          "indexed": false,
          "internalType": "uint256",
          "name": "newQuorumNumerator",
          "type": "uint256"
        }
      ],
      "name": "QuorumNumeratorUpdated",
      "type": "event"
    },
    {
      "anonymous": false,
      "inputs": [
        {
          "indexed": true,
          "internalType": "address",
          "name": "voter",
          "type": "address"
        },
        {
          "indexed": false,
          "internalType": "uint256",
          "name": "proposalId",
          "type": "uint256"
        },
        {
          "indexed": false,
          "internalType": "uint8",
          "name": "support",
          "type": "uint8"
        },
        {
          "indexed": false,
          "internalType": "uint256",
          "name": "weight",
          "type": "uint256"
        },
        {
          "indexed": false,
          "internalType": "string",
          "name": "reason",
          "type": "string"
        }
      ],
      "name": "VoteCast",
      "type": "event"
    },
    {
      "anonymous": false,
      "inputs": [
        {
          "indexed": true,
          "internalType": "address",
          "name": "voter",
          "type": "address"
        },
        {
          "indexed": false,
          "internalType": "uint256",
          "name": "proposalId",
          "type": "uint256"
        },
        {
          "indexed": false,
          "internalType": "uint8",
          "name": "support",
          "type": "uint8"
        },
        {
          "indexed": false,
          "internalType": "uint256",
          "name": "weight",
          "type": "uint256"
        },
        {
          "indexed": false,
          "internalType": "string",
          "name": "reason",
          "type": "string"
        },
        {
          "indexed": false,
          "internalType": "bytes",
          "name": "params",
          "type": "bytes"
        }
      ],
      "name": "VoteCastWithParams",
      "type": "event"
    },
    {
      "anonymous": false,
      "inputs": [
        {
          "indexed": false,
          "internalType": "uint256",
          "name": "oldVotingDelay",
          "type": "uint256"
        },
        {
          "indexed": false,
          "internalType": "uint256",
          "name": "newVotingDelay",
          "type": "uint256"
        }
      ],
      "name": "VotingDelaySet",
      "type": "event"
    },
    {
      "anonymous": false,
      "inputs": [
        {
          "indexed": false,
          "internalType": "uint256",
          "name": "oldVotingPeriod",
          "type": "uint256"
        },
        {
          "indexed": false,
          "internalType": "uint256",
          "name": "newVotingPeriod",
          "type": "uint256"
        }
      ],
      "name": "VotingPeriodSet",
      "type": "event"
    },
    {
      "inputs": [],
      "name": "BALLOT_TYPEHASH",
      "outputs": [
        {
          "internalType": "bytes32",
          "name": "",
          "type": "bytes32"
        }
      ],
      "stateMutability": "view",
      "type": "function"
    },
    {
      "inputs": [],
      "name": "CLOCK_MODE",
      "outputs": [
        {
          "internalType": "string",
          "name": "",
          "type": "string"
        }
      ],
      "stateMutability": "view",
      "type": "function"
    },
    {
      "inputs": [],
      "name": "COUNTING_MODE",
      "outputs": [
        {
          "internalType": "string",
          "name": "",
          "type": "string"
        }
      ],
      "stateMutability": "pure",
      "type": "function"
    },
    {
      "inputs": [],
      "name": "EXTENDED_BALLOT_TYPEHASH",
      "outputs": [
        {
          "internalType": "bytes32",
          "name": "",
          "type": "bytes32"
        }
      ],
      "stateMutability": "view",
      "type": "function"
    },
    {
      "inputs": [
        {
          "internalType": "address[]",
          "name": "targets",
          "type": "address[]"
        },
        {
          "internalType": "uint256[]",
          "name": "values",
          "type": "uint256[]"
        },
        {
          "internalType": "bytes[]",
          "name": "calldatas",
          "type": "bytes[]"
        },
        {
          "internalType": "bytes32",
          "name": "descriptionHash",
          "type": "bytes32"
        }
      ],
      "name": "cancel",
      "outputs": [
        {
          "internalType": "uint256",
          "name": "",
          "type": "uint256"
        }
      ],
      "stateMutability": "nonpayable",
      "type": "function"
    },
    {
      "inputs": [
        {
          "internalType": "uint256",
          "name": "proposalId",
          "type": "uint256"
        },
        {
          "internalType": "uint8",
          "name": "support",
          "type": "uint8"
        }
      ],
      "name": "castVote",
      "outputs": [
        {
          "internalType": "uint256",
          "name": "",
          "type": "uint256"
        }
      ],
      "stateMutability": "nonpayable",
      "type": "function"
    },
    {
      "inputs": [
        {
          "internalType": "uint256",
          "name": "proposalId",
          "type": "uint256"
        },
        {
          "internalType": "uint8",
          "name": "support",
          "type": "uint8"
        },
        {
          "internalType": "uint8",
          "name": "v",
          "type": "uint8"
        },
        {
          "internalType": "bytes32",
          "name": "r",
          "type": "bytes32"
        },
        {
          "internalType": "bytes32",
          "name": "s",
          "type": "bytes32"
        }
      ],
      "name": "castVoteBySig",
      "outputs": [
        {
          "internalType": "uint256",
          "name": "",
          "type": "uint256"
        }
      ],
      "stateMutability": "nonpayable",
      "type": "function"
    },
    {
      "inputs": [
        {
          "internalType": "uint256",
          "name": "proposalId",
          "type": "uint256"
        },
        {
          "internalType": "uint8",
          "name": "support",
          "type": "uint8"
        },
        {
          "internalType": "string",
          "name": "reason",
          "type": "string"
        }
      ],
      "name": "castVoteWithReason",
      "outputs": [
        {
          "internalType": "uint256",
          "name": "",
          "type": "uint256"
        }
      ],
      "stateMutability": "nonpayable",
      "type": "function"
    },
    {
      "inputs": [
        {
          "internalType": "uint256",
          "name": "proposalId",
          "type": "uint256"
        },
        {
          "internalType": "uint8",
          "name": "support",
          "type": "uint8"
        },
        {
          "internalType": "string",
          "name": "reason",
          "type": "string"
        },
        {
          "internalType": "bytes",
          "name": "params",
          "type": "bytes"
        }
      ],
      "name": "castVoteWithReasonAndParams",
      "outputs": [
        {
          "internalType": "uint256",
          "name": "",
          "type": "uint256"
        }
      ],
      "stateMutability": "nonpayable",
      "type": "function"
    },
    {
      "inputs": [
        {
          "internalType": "uint256",
          "name": "proposalId",
          "type": "uint256"
        },
        {
          "internalType": "uint8",
          "name": "support",
          "type": "uint8"
        },
        {
          "internalType": "string",
          "name": "reason",
          "type": "string"
        },
        {
          "internalType": "bytes",
          "name": "params",
          "type": "bytes"
        },
        {
          "internalType": "uint8",
          "name": "v",
          "type": "uint8"
        },
        {
          "internalType": "bytes32",
          "name": "r",
          "type": "bytes32"
        },
        {
          "internalType": "bytes32",
          "name": "s",
          "type": "bytes32"
        }
      ],
      "name": "castVoteWithReasonAndParamsBySig",
      "outputs": [
        {
          "internalType": "uint256",
          "name": "",
          "type": "uint256"
        }
      ],
      "stateMutability": "nonpayable",
      "type": "function"
    },
    {
      "inputs": [],
      "name": "clock",
      "outputs": [
        {
          "internalType": "uint48",
          "name": "",
          "type": "uint48"
        }
      ],
      "stateMutability": "view",
      "type": "function"
    },
    {
      "inputs": [],
      "name": "eip712Domain",
      "outputs": [
        {
          "internalType": "bytes1",
          "name": "fields",
          "type": "bytes1"
        },
        {
          "internalType": "string",
          "name": "name",
          "type": "string"
        },
        {
          "internalType": "string",
          "name": "version",
          "type": "string"
        },
        {
          "internalType": "uint256",
          "name": "chainId",
          "type": "uint256"
        },
        {
          "internalType": "address",
          "name": "verifyingContract",
          "type": "address"
        },
        {
          "internalType": "bytes32",
          "name": "salt",
          "type": "bytes32"
        },
        {
          "internalType": "uint256[]",
          "name": "extensions",
          "type": "uint256[]"
        }
      ],
      "stateMutability": "view",
      "type": "function"
    },
    {
      "inputs": [
        {
          "internalType": "address[]",
          "name": "targets",
          "type": "address[]"
        },
        {
          "internalType": "uint256[]",
          "name": "values",
          "type": "uint256[]"
        },
        {
          "internalType": "bytes[]",
          "name": "calldatas",
          "type": "bytes[]"
        },
        {
          "internalType": "bytes32",
          "name": "descriptionHash",
          "type": "bytes32"
        }
      ],
      "name": "execute",
      "outputs": [
        {
          "internalType": "uint256",
          "name": "",
          "type": "uint256"
        }
      ],
      "stateMutability": "payable",
      "type": "function"
    },
    {
      "inputs": [
        {
          "internalType": "address",
          "name": "account",
          "type": "address"
        },
        {
          "internalType": "uint256",
          "name": "timepoint",
          "type": "uint256"
        }
      ],
      "name": "getVotes",
      "outputs": [
        {
          "internalType": "uint256",
          "name": "",
          "type": "uint256"
        }
      ],
      "stateMutability": "view",
      "type": "function"
    },
    {
      "inputs": [
        {
          "internalType": "address",
          "name": "account",
          "type": "address"
        },
        {
          "internalType": "uint256",
          "name": "timepoint",
          "type": "uint256"
        },
        {
          "internalType": "bytes",
          "name": "params",
          "type": "bytes"
        }
      ],
      "name": "getVotesWithParams",
      "outputs": [
        {
          "internalType": "uint256",
          "name": "",
          "type": "uint256"
        }
      ],
      "stateMutability": "view",
      "type": "function"
    },
    {
      "inputs": [
        {
          "internalType": "uint256",
          "name": "proposalId",
          "type": "uint256"
        },
        {
          "internalType": "address",
          "name": "account",
          "type": "address"
        }
      ],
      "name": "hasVoted",
      "outputs": [
        {
          "internalType": "bool",
          "name": "",
          "type": "bool"
        }
      ],
      "stateMutability": "view",
      "type": "function"
    },
    {
      "inputs": [
        {
          "internalType": "address[]",
          "name": "targets",
          "type": "address[]"
        },
        {
          "internalType": "uint256[]",
          "name": "values",
          "type": "uint256[]"
        },
        {
          "internalType": "bytes[]",
          "name": "calldatas",
          "type": "bytes[]"
        },
        {
          "internalType": "bytes32",
          "name": "descriptionHash",
          "type": "bytes32"
        }
      ],
      "name": "hashProposal",
      "outputs": [
        {
          "internalType": "uint256",
          "name": "",
          "type": "uint256"
        }
      ],
      "stateMutability": "pure",
      "type": "function"
    },
    {
      "inputs": [
        {
          "internalType": "contract IVotesUpgradeable",
          "name": "_token",
          "type": "address"
        }
      ],
      "name": "initialize",
      "outputs": [],
      "stateMutability": "nonpayable",
      "type": "function"
    },
    {
      "inputs": [],
      "name": "name",
      "outputs": [
        {
          "internalType": "string",
          "name": "",
          "type": "string"
        }
      ],
      "stateMutability": "view",
      "type": "function"
    },
    {
      "inputs": [
        {
          "internalType": "address",
          "name": "",
          "type": "address"
        },
        {
          "internalType": "address",
          "name": "",
          "type": "address"
        },
        {
          "internalType": "uint256[]",
          "name": "",
          "type": "uint256[]"
        },
        {
          "internalType": "uint256[]",
          "name": "",
          "type": "uint256[]"
        },
        {
          "internalType": "bytes",
          "name": "",
          "type": "bytes"
        }
      ],
      "name": "onERC1155BatchReceived",
      "outputs": [
        {
          "internalType": "bytes4",
          "name": "",
          "type": "bytes4"
        }
      ],
      "stateMutability": "nonpayable",
      "type": "function"
    },
    {
      "inputs": [
        {
          "internalType": "address",
          "name": "",
          "type": "address"
        },
        {
          "internalType": "address",
          "name": "",
          "type": "address"
        },
        {
          "internalType": "uint256",
          "name": "",
          "type": "uint256"
        },
        {
          "internalType": "uint256",
          "name": "",
          "type": "uint256"
        },
        {
          "internalType": "bytes",
          "name": "",
          "type": "bytes"
        }
      ],
      "name": "onERC1155Received",
      "outputs": [
        {
          "internalType": "bytes4",
          "name": "",
          "type": "bytes4"
        }
      ],
      "stateMutability": "nonpayable",
      "type": "function"
    },
    {
      "inputs": [
        {
          "internalType": "address",
          "name": "",
          "type": "address"
        },
        {
          "internalType": "address",
          "name": "",
          "type": "address"
        },
        {
          "internalType": "uint256",
          "name": "",
          "type": "uint256"
        },
        {
          "internalType": "bytes",
          "name": "",
          "type": "bytes"
        }
      ],
      "name": "onERC721Received",
      "outputs": [
        {
          "internalType": "bytes4",
          "name": "",
          "type": "bytes4"
        }
      ],
      "stateMutability": "nonpayable",
      "type": "function"
    },
    {
      "inputs": [
        {
          "internalType": "uint256",
          "name": "proposalId",
          "type": "uint256"
        }
      ],
      "name": "proposalDeadline",
      "outputs": [
        {
          "internalType": "uint256",
          "name": "",
          "type": "uint256"
        }
      ],
      "stateMutability": "view",
      "type": "function"
    },
    {
      "inputs": [
        {
          "internalType": "uint256",
          "name": "proposalId",
          "type": "uint256"
        }
      ],
      "name": "proposalProposer",
      "outputs": [
        {
          "internalType": "address",
          "name": "",
          "type": "address"
        }
      ],
      "stateMutability": "view",
      "type": "function"
    },
    {
      "inputs": [
        {
          "internalType": "uint256",
          "name": "proposalId",
          "type": "uint256"
        }
      ],
      "name": "proposalSnapshot",
      "outputs": [
        {
          "internalType": "uint256",
          "name": "",
          "type": "uint256"
        }
      ],
      "stateMutability": "view",
      "type": "function"
    },
    {
      "inputs": [],
      "name": "proposalThreshold",
      "outputs": [
        {
          "internalType": "uint256",
          "name": "",
          "type": "uint256"
        }
      ],
      "stateMutability": "view",
      "type": "function"
    },
    {
      "inputs": [
        {
          "internalType": "uint256",
          "name": "proposalId",
          "type": "uint256"
        }
      ],
      "name": "proposalVotes",
      "outputs": [
        {
          "internalType": "uint256",
          "name": "againstVotes",
          "type": "uint256"
        },
        {
          "internalType": "uint256",
          "name": "forVotes",
          "type": "uint256"
        },
        {
          "internalType": "uint256",
          "name": "abstainVotes",
          "type": "uint256"
        }
      ],
      "stateMutability": "view",
      "type": "function"
    },
    {
      "inputs": [
        {
          "internalType": "address[]",
          "name": "targets",
          "type": "address[]"
        },
        {
          "internalType": "uint256[]",
          "name": "values",
          "type": "uint256[]"
        },
        {
          "internalType": "bytes[]",
          "name": "calldatas",
          "type": "bytes[]"
        },
        {
          "internalType": "string",
          "name": "description",
          "type": "string"
        }
      ],
      "name": "propose",
      "outputs": [
        {
          "internalType": "uint256",
          "name": "",
          "type": "uint256"
        }
      ],
      "stateMutability": "nonpayable",
      "type": "function"
    },
    {
      "inputs": [
        {
          "internalType": "uint256",
          "name": "blockNumber",
          "type": "uint256"
        }
      ],
      "name": "quorum",
      "outputs": [
        {
          "internalType": "uint256",
          "name": "",
          "type": "uint256"
        }
      ],
      "stateMutability": "view",
      "type": "function"
    },
    {
      "inputs": [],
      "name": "quorumDenominator",
      "outputs": [
        {
          "internalType": "uint256",
          "name": "",
          "type": "uint256"
        }
      ],
      "stateMutability": "view",
      "type": "function"
    },
    {
      "inputs": [
        {
          "internalType": "uint256",
          "name": "timepoint",
          "type": "uint256"
        }
      ],
      "name": "quorumNumerator",
      "outputs": [
        {
          "internalType": "uint256",
          "name": "",
          "type": "uint256"
        }
      ],
      "stateMutability": "view",
      "type": "function"
    },
    {
      "inputs": [],
      "name": "quorumNumerator",
      "outputs": [
        {
          "internalType": "uint256",
          "name": "",
          "type": "uint256"
        }
      ],
      "stateMutability": "view",
      "type": "function"
    },
    {
      "inputs": [
        {
          "internalType": "address",
          "name": "target",
          "type": "address"
        },
        {
          "internalType": "uint256",
          "name": "value",
          "type": "uint256"
        },
        {
          "internalType": "bytes",
          "name": "data",
          "type": "bytes"
        }
      ],
      "name": "relay",
      "outputs": [],
      "stateMutability": "payable",
      "type": "function"
    },
    {
      "inputs": [
        {
          "internalType": "uint256",
          "name": "newProposalThreshold",
          "type": "uint256"
        }
      ],
      "name": "setProposalThreshold",
      "outputs": [],
      "stateMutability": "nonpayable",
      "type": "function"
    },
    {
      "inputs": [
        {
          "internalType": "uint256",
          "name": "newVotingDelay",
          "type": "uint256"
        }
      ],
      "name": "setVotingDelay",
      "outputs": [],
      "stateMutability": "nonpayable",
      "type": "function"
    },
    {
      "inputs": [
        {
          "internalType": "uint256",
          "name": "newVotingPeriod",
          "type": "uint256"
        }
      ],
      "name": "setVotingPeriod",
      "outputs": [],
      "stateMutability": "nonpayable",
      "type": "function"
    },
    {
      "inputs": [
        {
          "internalType": "uint256",
          "name": "proposalId",
          "type": "uint256"
        }
      ],
      "name": "state",
      "outputs": [
        {
          "internalType": "enum IGovernorUpgradeable.ProposalState",
          "name": "",
          "type": "uint8"
        }
      ],
      "stateMutability": "view",
      "type": "function"
    },
    {
      "inputs": [
        {
          "internalType": "bytes4",
          "name": "interfaceId",
          "type": "bytes4"
        }
      ],
      "name": "supportsInterface",
      "outputs": [
        {
          "internalType": "bool",
          "name": "",
          "type": "bool"
        }
      ],
      "stateMutability": "view",
      "type": "function"
    },
    {
      "inputs": [],
      "name": "token",
      "outputs": [
        {
          "internalType": "contract IERC5805Upgradeable",
          "name": "",
          "type": "address"
        }
      ],
      "stateMutability": "view",
      "type": "function"
    },
    {
      "inputs": [
        {
          "internalType": "uint256",
          "name": "newQuorumNumerator",
          "type": "uint256"
        }
      ],
      "name": "updateQuorumNumerator",
      "outputs": [],
      "stateMutability": "nonpayable",
      "type": "function"
    },
    {
      "inputs": [],
      "name": "version",
      "outputs": [
        {
          "internalType": "string",
          "name": "",
          "type": "string"
        }
      ],
      "stateMutability": "view",
      "type": "function"
    },
    {
      "inputs": [],
      "name": "votingDelay",
      "outputs": [
        {
          "internalType": "uint256",
          "name": "",
          "type": "uint256"
        }
      ],
      "stateMutability": "view",
      "type": "function"
    },
    {
      "inputs": [],
      "name": "votingPeriod",
      "outputs": [
        {
          "internalType": "uint256",
          "name": "",
          "type": "uint256"
        }
      ],
      "stateMutability": "view",
      "type": "function"
    },
    {
      "stateMutability": "payable",
      "type": "receive"
    }
  ],
  "bytecode": "0x60806040523480156200001157600080fd5b506200001c62000022565b620000e3565b600054610100900460ff16156200008f5760405162461bcd60e51b815260206004820152602760248201527f496e697469616c697a61626c653a20636f6e747261637420697320696e697469604482015266616c697a696e6760c81b606482015260840160405180910390fd5b60005460ff90811614620000e1576000805460ff191660ff9081179091556040519081527f7f26b83ff96e1f2b6a682f133852f6798a09c465da95921460cefb38474024989060200160405180910390a15b565b61415680620000f36000396000f3fe6080604052600436106101f05760003560e01c806301ffc9a71461020757806302a251a31461023c578063034201811461025f57806306f3f9e61461027f57806306fdde031461029f578063143489d0146102c1578063150b7a02146103165780632656227d1461035a5780632d63f6931461036d5780632fe3e2611461038d5780633932abb1146103af5780633bccf4fd146103c45780633e4f49e6146103e45780634385963214610411578063452115d6146104315780634bf5d7e914610451578063544ffc9c1461046657806354fd4d50146104bc57806356781388146104d15780635f398a14146104f157806360c4247f1461051157806370b0f660146105315780637b3c71d3146105515780637d5e81e21461057157806384b0196e1461059157806391ddadf4146105b957806397c3d334146105e55780639a802a6d146105f9578063a7713a7014610619578063b58131b01461062e578063bc197c8114610643578063c01f9e371461066f578063c28bc2fa1461068f578063c4d66de8146106a2578063c59057e4146106c2578063dd4e2ba5146106e2578063deaaa7cc14610728578063ea0217cf1461074a578063eb9019d41461076a578063ece40cc11461078a578063f23a6e61146107aa578063f8ce560a146107d6578063fc0c546a146107f657600080fd5b3661020257005b60405180910390fd5b005b600080fd5b34801561021357600080fd5b50610227610222366004613203565b610817565b60405190151581526020015b60405180910390f35b34801561024857600080fd5b506102516108b4565b604051908152602001610233565b34801561026b57600080fd5b5061025161027a366004613351565b6108c4565b34801561028b57600080fd5b5061020061029a3660046133f7565b6109aa565b3480156102ab57600080fd5b506102b46109f1565b604051610233919061346c565b3480156102cd57600080fd5b506102fe6102dc3660046133f7565b600090815260cc6020526040902054600160401b90046001600160a01b031690565b6040516001600160a01b039091168152602001610233565b34801561032257600080fd5b50610341610331366004613494565b630a85bd0160e11b949350505050565b6040516001600160e01b03199091168152602001610233565b61025161036836600461366b565b610a83565b34801561037957600080fd5b506102516103883660046133f7565b610baf565b34801561039957600080fd5b5061025160008051602061410383398151915281565b3480156103bb57600080fd5b50610251610bca565b3480156103d057600080fd5b506102516103df3660046136fa565b610bd5565b3480156103f057600080fd5b506104046103ff3660046133f7565b610c39565b604051610233919061375e565b34801561041d57600080fd5b5061022761042c366004613786565b610d5e565b34801561043d57600080fd5b5061025161044c36600461366b565b610d8f565b34801561045d57600080fd5b506102b4610e95565b34801561047257600080fd5b506104a16104813660046133f7565b600090815261012f60205260409020805460018201546002909201549092565b60408051938452602084019290925290820152606001610233565b3480156104c857600080fd5b506102b4610f42565b3480156104dd57600080fd5b506102516104ec3660046137b6565b610f5d565b3480156104fd57600080fd5b5061025161050c3660046137e2565b610f86565b34801561051d57600080fd5b5061025161052c3660046133f7565b610fd0565b34801561053d57600080fd5b5061020061054c3660046133f7565b611083565b34801561055d57600080fd5b5061025161056c366004613865565b6110c7565b34801561057d57600080fd5b5061025161058c3660046138be565b61110f565b34801561059d57600080fd5b506105a66114e3565b60405161023397969594939291906139ad565b3480156105c557600080fd5b506105ce611581565b60405165ffffffffffff9091168152602001610233565b3480156105f157600080fd5b506064610251565b34801561060557600080fd5b50610251610614366004613a0f565b6115f5565b34801561062557600080fd5b5061025161160c565b34801561063a57600080fd5b50610251611639565b34801561064f57600080fd5b5061034161065e366004613a67565b63bc197c8160e01b95945050505050565b34801561067b57600080fd5b5061025161068a3660046133f7565b611644565b61020061069d366004613afa565b611662565b3480156106ae57600080fd5b506102006106bd366004613b3d565b61172e565b3480156106ce57600080fd5b506102516106dd36600461366b565b611897565b3480156106ee57600080fd5b506040805180820190915260208082527f737570706f72743d627261766f2671756f72756d3d666f722c6162737461696e908201526102b4565b34801561073457600080fd5b506102516000805160206140e383398151915281565b34801561075657600080fd5b506102006107653660046133f7565b6118d1565b34801561077657600080fd5b50610251610785366004613b5a565b611915565b34801561079657600080fd5b506102006107a53660046133f7565b611936565b3480156107b657600080fd5b506103416107c5366004613b86565b63f23a6e6160e01b95945050505050565b3480156107e257600080fd5b506102516107f13660046133f7565b61197a565b34801561080257600080fd5b50610161546102fe906001600160a01b031681565b600063288ace0360e11b6318df743f60e31b63bf26d89760e01b6379dd796f60e01b6001600160e01b0319861682148061085d57506001600160e01b0319868116908216145b8061087457506001600160e01b0319868116908516145b8061088f57506001600160e01b03198616630271189760e51b145b806108aa57506301ffc9a760e01b6001600160e01b03198716145b9695505050505050565b60006108bf60fe5490565b905090565b60008061095661094e6000805160206141038339815191528c8c8c8c6040516108ee929190613bee565b60405180910390208b80519060200120604051602001610933959493929190948552602085019390935260ff9190911660408401526060830152608082015260a00190565b60405160208183030381529060405280519060200120611985565b8686866119b2565b905061099c8a828b8b8b8080601f0160208091040260200160405190810160405280939291908181526020018383808284376000920191909152508d92506119d0915050565b9a9950505050505050505050565b3330146109c95760405162461bcd60e51b81526004016101f790613bfe565b6109e5565b806109d960cd611b22565b146109e3576109ce565b505b6109ee81611b98565b50565b606060cb8054610a0090613c30565b80601f0160208091040260200160405190810160405280929190818152602001828054610a2c90613c30565b8015610a795780601f10610a4e57610100808354040283529160200191610a79565b820191906000526020600020905b815481529060010190602001808311610a5c57829003601f168201915b5050505050905090565b600080610a9286868686611897565b90506000610a9f82610c39565b90506004816007811115610ab557610ab5613748565b1480610ad257506005816007811115610ad057610ad0613748565b145b610b285760405162461bcd60e51b815260206004820152602160248201527f476f7665726e6f723a2070726f706f73616c206e6f74207375636365737366756044820152601b60fa1b60648201526084016101f7565b600082815260cc602052604090819020600201805460ff19166001179055517f712ae1383f79ac853f8d882153778e0260ef8f03b504e2866e0593e04d2b291f90610b769084815260200190565b60405180910390a1610b8b8288888888611cfd565b610b988288888888611d8b565b610ba58288888888611cfd565b5095945050505050565b600090815260cc60205260409020546001600160401b031690565b60006108bf60fd5490565b604080516000805160206140e3833981519152602082015290810186905260ff851660608201526000908190610c119061094e90608001610933565b9050610c2e87828860405180602001604052806000815250611e81565b979650505050505050565b600081815260cc60205260408120600281015460ff1615610c5d5750600792915050565b6002810154610100900460ff1615610c785750600292915050565b6000610c8384610baf565b905080610cd25760405162461bcd60e51b815260206004820152601d60248201527f476f7665726e6f723a20756e6b6e6f776e2070726f706f73616c20696400000060448201526064016101f7565b6000610cdc611581565b65ffffffffffff169050808210610cf857506000949350505050565b6000610d0386611644565b9050818110610d185750600195945050505050565b610d2186611ead565b8015610d415750600086815261012f602052604090208054600190910154115b15610d525750600495945050505050565b50600395945050505050565b600082815261012f602090815260408083206001600160a01b038516845260030190915290205460ff165b92915050565b600080610d9e86868686611897565b90506000610dab82610c39565b6007811115610dbc57610dbc613748565b14610e085760405162461bcd60e51b815260206004820152601c60248201527b11dbdd995c9b9bdc8e881d1bdbc81b185d19481d1bc818d85b98d95b60221b60448201526064016101f7565b600081815260cc6020526040902054600160401b90046001600160a01b0316336001600160a01b031614610e895760405162461bcd60e51b815260206004820152602260248201527f476f7665726e6f723a206f6e6c792070726f706f7365722063616e2063616e63604482015261195b60f21b60648201526084016101f7565b6108aa86868686611ee5565b6101615460408051634bf5d7e960e01b815290516060926001600160a01b031691634bf5d7e99160048083019260009291908290030181865afa925050508015610f0157506040513d6000823e601f3d908101601f19168201604052610efe9190810190613c6b565b60015b610f3d575060408051808201909152601d81527f6d6f64653d626c6f636b6e756d6265722666726f6d3d64656661756c74000000602082015290565b919050565b6040805180820190915260018152603160f81b602082015290565b600080339050610f7e84828560405180602001604052806000815250611e81565b949350505050565b600080339050610c2e87828888888080601f0160208091040260200160405190810160405280939291908181526020018383808284376000920191909152508a92506119d0915050565b6101955460009080610fe757505061019454919050565b6000610195610ff7600184613cee565b8154811061100757611007613d05565b60009182526020918290206040805180820190915291015463ffffffff8116808352600160201b9091046001600160e01b0316928201929092529150841061105d57602001516001600160e01b03169392505050565b61107261106985612003565b6101959061206c565b6001600160e01b0316949350505050565b3330146110a25760405162461bcd60e51b81526004016101f790613bfe565b6110be565b806110b260cd611b22565b146110bc576110a7565b505b6109ee8161211f565b6000803390506108aa86828787878080601f016020809104026020016040519081016040528093929190818152602001838380828437600092019190915250611e8192505050565b60003361111c818461215f565b6111685760405162461bcd60e51b815260206004820152601d60248201527f476f7665726e6f723a2070726f706f736572207265737472696374656400000060448201526064016101f7565b6000611172611581565b65ffffffffffff169050611184611639565b61119383610785600185613cee565b10156111fb5760405162461bcd60e51b815260206004820152603160248201527f476f7665726e6f723a2070726f706f73657220766f7465732062656c6f7720706044820152701c9bdc1bdcd85b081d1a1c995cda1bdb19607a1b60648201526084016101f7565b60006112108888888880519060200120611897565b905086518851146112335760405162461bcd60e51b81526004016101f790613d1b565b85518851146112545760405162461bcd60e51b81526004016101f790613d1b565b60008851116112a05760405162461bcd60e51b815260206004820152601860248201527711dbdd995c9b9bdc8e88195b5c1d1e481c1c9bdc1bdcd85b60421b60448201526064016101f7565b600081815260cc60205260409020546001600160401b03161561130f5760405162461bcd60e51b815260206004820152602160248201527f476f7665726e6f723a2070726f706f73616c20616c72656164792065786973746044820152607360f81b60648201526084016101f7565b6000611319610bca565b6113239084613d5c565b9050600061132f6108b4565b6113399083613d5c565b90506040518060e0016040528061134f84612250565b6001600160401b031681526001600160a01b03871660208201526000604082015260600161137c83612250565b6001600160401b039081168252600060208084018290526040808501839052606094850183905288835260cc8252918290208551815492870151878501519186166001600160e01b031990941693909317600160401b6001600160a01b039094168402176001600160e01b0316600160e01b60e09290921c91909102178155938501516080860151908416921c0217600183015560a08301516002909201805460c09094015161ffff1990941692151561ff00191692909217610100931515939093029290921790558a517f7d84a6263ae0d98d3329bd7b46bb4e8d6f98cd35a7adb45c274c8b7fd5ebd5e091859188918e918e9181111561148057611480613286565b6040519080825280602002602001820160405280156114b357816020015b606081526020019060019003908161149e5790505b508d88888f6040516114cd99989796959493929190613e02565b60405180910390a1509098975050505050505050565b6000606080600080600060606065546000801b1480156115035750606654155b6115475760405162461bcd60e51b81526020600482015260156024820152741152540dcc4c8e88155b9a5b9a5d1a585b1a5e9959605a1b60448201526064016101f7565b61154f6122b8565b6115576122c7565b60408051600080825260208201909252600f60f81b9b939a50919850469750309650945092509050565b61016154604080516324776b7d60e21b815290516000926001600160a01b0316916391ddadf49160048083019260209291908290030181865afa9250505080156115e8575060408051601f3d908101601f191682019092526115e591810190613ed9565b60015b610f3d576108bf436122d6565b600061160284848461233d565b90505b9392505050565b6101955460009015611631576116236101956123b4565b6001600160e01b0316905090565b506101945490565b60006108bf60ff5490565b600090815260cc60205260409020600101546001600160401b031690565b3330146116815760405162461bcd60e51b81526004016101f790613bfe565b61169d565b8061169160cd611b22565b1461169b57611686565b505b600080856001600160a01b03168585856040516116bb929190613bee565b60006040518083038185875af1925050503d80600081146116f8576040519150601f19603f3d011682016040523d82523d6000602084013e6116fd565b606091505b509150915061172582826040518060600160405280602881526020016140bb602891396123ed565b50505050505050565b600054610100900460ff161580801561174e5750600054600160ff909116105b806117685750303b158015611768575060005460ff166001145b6117cb5760405162461bcd60e51b815260206004820152602e60248201527f496e697469616c697a61626c653a20636f6e747261637420697320616c72656160448201526d191e481a5b9a5d1a585b1a5e995960921b60648201526084016101f7565b6000805460ff1916600117905580156117ee576000805461ff0019166101001790555b61182060405180604001604052806011815260200170242b20ac2b37ba32b923b7bb32b93737b960791b815250612406565b61183161546062093a806001612447565b61183961247e565b611842826124a7565b61184c60046124d7565b8015611893576000805461ff0019169055604051600181527f7f26b83ff96e1f2b6a682f133852f6798a09c465da95921460cefb3847402498906020015b60405180910390a15b5050565b6000848484846040516020016118b09493929190613f01565b60408051601f19818403018152919052805160209091012095945050505050565b3330146118f05760405162461bcd60e51b81526004016101f790613bfe565b61190c565b8061190060cd611b22565b1461190a576118f5565b505b6109ee81612507565b6000611605838361193160408051602081019091526000815290565b61233d565b3330146119555760405162461bcd60e51b81526004016101f790613bfe565b611971565b8061196560cd611b22565b1461196f5761195a565b505b6109ee816125a7565b6000610d89826125e7565b6000610d89611992612676565b8360405161190160f01b8152600281019290925260228201526042902090565b60008060006119c387878787612680565b91509150610ba58161273a565b600085815260cc6020526040812060016119e988610c39565b60078111156119fa576119fa613748565b14611a535760405162461bcd60e51b815260206004820152602360248201527f476f7665726e6f723a20766f7465206e6f742063757272656e746c792061637460448201526269766560e81b60648201526084016101f7565b8054600090611a6d9088906001600160401b03168661233d565b9050611a7c8888888488612883565b8351611ace57866001600160a01b03167fb8e138887d0aa13bab447e82de9d5c1777041ecd21ca36ba824ff1e6c07ddda489888489604051611ac19493929190613f4c565b60405180910390a2610c2e565b866001600160a01b03167fe2babfbac5889a709b63bb7f598b324e08bc5a4fb9ec647fb3cbc9ec07eb87128988848989604051611b0f959493929190613f74565b60405180910390a2979650505050505050565b6000611b3d8254600f81810b600160801b909204900b131590565b15611b5b57604051631ed9509560e11b815260040160405180910390fd5b508054600f0b6000818152600180840160205260408220805492905583546001600160801b03191692016001600160801b03169190911790915590565b6064811115611c1b5760405162461bcd60e51b815260206004820152604360248201527f476f7665726e6f72566f74657351756f72756d4672616374696f6e3a2071756f60448201527f72756d4e756d657261746f72206f7665722071756f72756d44656e6f6d696e616064820152623a37b960e91b608482015260a4016101f7565b6000611c2561160c565b90508015801590611c37575061019554155b15611c9c5760408051808201909152600081526101959060208101611c5b84612a03565b6001600160e01b039081169091528254600181018455600093845260209384902083519490930151909116600160201b0263ffffffff909316929092179101555b611cca611cb7611caa611581565b65ffffffffffff16612003565b611cc084612a03565b6101959190612a6c565b50507f0553476bf02ef2726e8ce5ced78d63e26e602e4a2257b1f559418e24b4633997818360405161188a929190613fba565b611d84565b8451811015611d8257306001600160a01b0316858281518110611d2757611d27613d05565b60200260200101516001600160a01b03161415611d7257611d72838281518110611d5357611d53613d05565b60200260200101518051906020012060cd612a8790919063ffffffff16565b611d7b81613fc8565b9050611d02565b505b5050505050565b600060405180606001604052806027815260200161412360279139905060005b855181101561172557600080878381518110611dc957611dc9613d05565b60200260200101516001600160a01b0316878481518110611dec57611dec613d05565b6020026020010151878581518110611e0657611e06613d05565b6020026020010151604051611e1b9190613fe3565b60006040518083038185875af1925050503d8060008114611e58576040519150601f19603f3d011682016040523d82523d6000602084013e611e5d565b606091505b5091509150611e6d8282866123ed565b50505080611e7a90613fc8565b9050611dab565b6000611ea485858585611e9f60408051602081019091526000815290565b6119d0565b95945050505050565b600081815261012f6020526040812060028101546001820154611ed09190613d5c565b611edc6107f185610baf565b11159392505050565b600080611ef486868686611897565b90506000611f0182610c39565b90506002816007811115611f1757611f17613748565b14158015611f3757506006816007811115611f3457611f34613748565b14155b8015611f5557506007816007811115611f5257611f52613748565b14155b611fa15760405162461bcd60e51b815260206004820152601d60248201527f476f7665726e6f723a2070726f706f73616c206e6f742061637469766500000060448201526064016101f7565b600082815260cc602052604090819020600201805461ff001916610100179055517f789cf55be980739dad1d0699b93b58e806b51c9d96619bfa8fe0a28abaa7b30c90611ff19084815260200190565b60405180910390a15095945050505050565b600063ffffffff8211156120685760405162461bcd60e51b815260206004820152602660248201527f53616665436173743a2076616c756520646f65736e27742066697420696e203360448201526532206269747360d01b60648201526084016101f7565b5090565b8154600090818160058111156120c957600061208784612ac3565b6120919085613cee565b60008881526020902090915081015463ffffffff90811690871610156120b9578091506120c7565b6120c4816001613d5c565b92505b505b60006120d787878585612ba8565b90508015612112576120fc876120ee600184613cee565b600091825260209091200190565b54600160201b90046001600160e01b0316610c2e565b6000979650505050505050565b7fc565b045403dc03c2eea82b81a0465edad9e2e7fc4d97e11421c209da93d7a9360fd5482604051612152929190613fba565b60405180910390a160fd55565b80516000906034811015612177576001915050610d89565b82810160131901516001600160a01b031981166b046e0e4dee0dee6cae47a60f60a31b146121aa57600192505050610d89565b6000806121b8602885613cee565b90505b8381101561222f576000806121ef8884815181106121db576121db613d05565b01602001516001600160f81b031916612c06565b91509150816122075760019650505050505050610d89565b8060ff166004856001600160a01b0316901b17935050508061222890613fc8565b90506121bb565b50856001600160a01b0316816001600160a01b031614935050505092915050565b60006001600160401b038211156120685760405162461bcd60e51b815260206004820152602660248201527f53616665436173743a2076616c756520646f65736e27742066697420696e203660448201526534206269747360d01b60648201526084016101f7565b606060678054610a0090613c30565b606060688054610a0090613c30565b600065ffffffffffff8211156120685760405162461bcd60e51b815260206004820152602660248201527f53616665436173743a2076616c756520646f65736e27742066697420696e203460448201526538206269747360d01b60648201526084016101f7565b61016154604051630748d63560e31b81526001600160a01b038581166004830152602482018590526000921690633a46b1a890604401602060405180830381865afa158015612390573d6000803e3d6000fd5b505050506040513d601f19601f820116820180604052508101906116029190613fff565b805460009080156123e4576123ce836120ee600184613cee565b54600160201b90046001600160e01b0316611605565b60009392505050565b606083156123fc575081611605565b6116058383612c98565b600054610100900460ff1661242d5760405162461bcd60e51b81526004016101f790614018565b61243e81612439610f42565b612cc2565b6109ee81612d1f565b600054610100900460ff1661246e5760405162461bcd60e51b81526004016101f790614018565b612479838383612d59565b505050565b600054610100900460ff166124a55760405162461bcd60e51b81526004016101f790614018565b565b600054610100900460ff166124ce5760405162461bcd60e51b81526004016101f790614018565b6109ee81612d9b565b600054610100900460ff166124fe5760405162461bcd60e51b81526004016101f790614018565b6109ee81612de5565b600081116125675760405162461bcd60e51b815260206004820152602760248201527f476f7665726e6f7253657474696e67733a20766f74696e6720706572696f6420604482015266746f6f206c6f7760c81b60648201526084016101f7565b7f7e3f7f0708a84de9203036abaa450dccc85ad5ff52f78c170f3edb55cf5e882860fe548260405161259a929190613fba565b60405180910390a160fe55565b7fccb45da8d5717e6c4544694297c4ba5cf151d455c9bb0ed4fc7a38411bc0546160ff54826040516125da929190613fba565b60405180910390a160ff55565b600060646125f483610fd0565b61016154604051632394e7a360e21b8152600481018690526001600160a01b0390911690638e539e8c90602401602060405180830381865afa15801561263e573d6000803e3d6000fd5b505050506040513d601f19601f820116820180604052508101906126629190613fff565b61266c9190614063565b610d899190614098565b60006108bf612e0c565b6000806fa2a8918ca85bafe22016d0b997e4df60600160ff1b038311156126ad5750600090506003612731565b6040805160008082526020820180845289905260ff881692820192909252606081018690526080810185905260019060a0016020604051602081039080840390855afa158015612701573d6000803e3d6000fd5b5050604051601f1901519150506001600160a01b03811661272a57600060019250925050612731565b9150600090505b94509492505050565b600081600481111561274e5761274e613748565b14156127575750565b600181600481111561276b5761276b613748565b14156127b45760405162461bcd60e51b815260206004820152601860248201527745434453413a20696e76616c6964207369676e617475726560401b60448201526064016101f7565b60028160048111156127c8576127c8613748565b14156128165760405162461bcd60e51b815260206004820152601f60248201527f45434453413a20696e76616c6964207369676e6174757265206c656e6774680060448201526064016101f7565b600381600481111561282a5761282a613748565b14156109ee5760405162461bcd60e51b815260206004820152602260248201527f45434453413a20696e76616c6964207369676e6174757265202773272076616c604482015261756560f01b60648201526084016101f7565b600085815261012f602090815260408083206001600160a01b0388168452600381019092529091205460ff161561290c5760405162461bcd60e51b815260206004820152602760248201527f476f7665726e6f72566f74696e6753696d706c653a20766f746520616c726561604482015266191e4818d85cdd60ca1b60648201526084016101f7565b6001600160a01b03851660009081526003820160205260408120805460ff1916600117905560ff168460ff16141561295d57828160000160008282546129529190613d5c565b90915550611d829050565b60ff84166001141561297d57828160010160008282546129529190613d5c565b60ff84166002141561299d57828160020160008282546129529190613d5c565b60405162461bcd60e51b815260206004820152603560248201527f476f7665726e6f72566f74696e6753696d706c653a20696e76616c69642076616044820152746c756520666f7220656e756d20566f74655479706560581b60648201526084016101f7565b60006001600160e01b038211156120685760405162461bcd60e51b815260206004820152602760248201527f53616665436173743a2076616c756520646f65736e27742066697420696e20326044820152663234206269747360c81b60648201526084016101f7565b600080612a7a858585612e80565b915091505b935093915050565b8154600160801b90819004600f0b6000818152600180860160205260409091209390935583546001600160801b03908116939091011602179055565b600081612ad257506000919050565b60006001612adf84613024565b901c6001901b90506001818481612af857612af8614082565b048201901c90506001818481612b1057612b10614082565b048201901c90506001818481612b2857612b28614082565b048201901c90506001818481612b4057612b40614082565b048201901c90506001818481612b5857612b58614082565b048201901c90506001818481612b7057612b70614082565b048201901c90506001818481612b8857612b88614082565b048201901c905061160581828581612ba257612ba2614082565b046130b8565b60005b81831015612bfe576000612bbf84846130ce565b60008781526020902090915063ffffffff86169082015463ffffffff161115612bea57809250612bf8565b612bf5816001613d5c565b93505b50612bab565b509392505050565b60008060f883901c602f81118015612c215750603a8160ff16105b15612c3657600194602f199091019350915050565b8060ff166040108015612c4c575060478160ff16105b15612c61576001946036199091019350915050565b8060ff166060108015612c77575060678160ff16105b15612c8c576001946056199091019350915050565b50600093849350915050565b815115612ca85781518083602001fd5b8060405162461bcd60e51b81526004016101f7919061346c565b600054610100900460ff16612ce95760405162461bcd60e51b81526004016101f790614018565b8151612cfc906067906020850190613173565b508051612d10906068906020840190613173565b50506000606581905560665550565b600054610100900460ff16612d465760405162461bcd60e51b81526004016101f790614018565b80516118939060cb906020840190613173565b600054610100900460ff16612d805760405162461bcd60e51b81526004016101f790614018565b612d898361211f565b612d9282612507565b612479816125a7565b600054610100900460ff16612dc25760405162461bcd60e51b81526004016101f790614018565b61016180546001600160a01b0319166001600160a01b0392909216919091179055565b600054610100900460ff166109e55760405162461bcd60e51b81526004016101f790614018565b60007f8b73c3c69bb8fe3d512ecc4cf759cc79239f7b179b0ffacaa9a75d522b39400f612e376130e9565b612e3f613142565b60408051602081019490945283019190915260608201524660808201523060a082015260c00160405160208183030381529060405280519060200120905090565b825460009081908015612fcb576000612e9e876120ee600185613cee565b60408051808201909152905463ffffffff808216808452600160201b9092046001600160e01b031660208401529192509087161015612f1d5760405162461bcd60e51b815260206004820152601b60248201527a436865636b706f696e743a2064656372656173696e67206b65797360281b60448201526064016101f7565b8563ffffffff16816000015163ffffffff161415612f6c5784612f45886120ee600186613cee565b80546001600160e01b0392909216600160201b0263ffffffff909216919091179055612fbb565b6040805180820190915263ffffffff80881682526001600160e01b0380881660208085019182528b54600181018d5560008d81529190912094519151909216600160201b029216919091179101555b602001519250839150612a7f9050565b50506040805180820190915263ffffffff80851682526001600160e01b0380851660208085019182528854600181018a5560008a815291822095519251909316600160201b029190931617920191909155905081612a7f565b600080608083901c1561303957608092831c92015b604083901c1561304b57604092831c92015b602083901c1561305d57602092831c92015b601083901c1561306f57601092831c92015b600883901c1561308157600892831c92015b600483901c1561309357600492831c92015b600283901c156130a557600292831c92015b600183901c15610d895760010192915050565b60008183106130c75781611605565b5090919050565b60006130dd6002848418614098565b61160590848416613d5c565b6000806130f46122b8565b80519091501561310b578051602090910120919050565b606554801561311a5792915050565b7fc5d2460186f7233c927e7db2dcc703c0e500b653ca82273b7bfad8045d85a4709250505090565b60008061314d6122c7565b805190915015613164578051602090910120919050565b606654801561311a5792915050565b82805461317f90613c30565b90600052602060002090601f0160209004810192826131a157600085556131e7565b82601f106131ba57805160ff19168380011785556131e7565b828001600101855582156131e7579182015b828111156131e75782518255916020019190600101906131cc565b506120689291505b8082111561206857600081556001016131ef565b60006020828403121561321557600080fd5b81356001600160e01b03198116811461160557600080fd5b803560ff81168114610f3d57600080fd5b60008083601f84011261325057600080fd5b5081356001600160401b0381111561326757600080fd5b60208301915083602082850101111561327f57600080fd5b9250929050565b634e487b7160e01b600052604160045260246000fd5b604051601f8201601f191681016001600160401b03811182821017156132c4576132c4613286565b604052919050565b60006001600160401b038211156132e5576132e5613286565b50601f01601f191660200190565b6000613306613301846132cc565b61329c565b905082815283838301111561331a57600080fd5b828260208301376000602084830101529392505050565b600082601f83011261334257600080fd5b611605838335602085016132f3565b60008060008060008060008060e0898b03121561336d57600080fd5b8835975061337d60208a0161322d565b965060408901356001600160401b038082111561339957600080fd5b6133a58c838d0161323e565b909850965060608b01359150808211156133be57600080fd5b506133cb8b828c01613331565b9450506133da60808a0161322d565b925060a0890135915060c089013590509295985092959890939650565b60006020828403121561340957600080fd5b5035919050565b60005b8381101561342b578181015183820152602001613413565b8381111561343a576000848401525b50505050565b60008151808452613458816020860160208601613410565b601f01601f19169290920160200192915050565b6020815260006116056020830184613440565b6001600160a01b03811681146109ee57600080fd5b600080600080608085870312156134aa57600080fd5b84356134b58161347f565b935060208501356134c58161347f565b92506040850135915060608501356001600160401b038111156134e757600080fd5b6134f387828801613331565b91505092959194509250565b60006001600160401b0382111561351857613518613286565b5060051b60200190565b600082601f83011261353357600080fd5b81356020613543613301836134ff565b82815260059290921b8401810191818101908684111561356257600080fd5b8286015b848110156135865780356135798161347f565b8352918301918301613566565b509695505050505050565b600082601f8301126135a257600080fd5b813560206135b2613301836134ff565b82815260059290921b840181019181810190868411156135d157600080fd5b8286015b8481101561358657803583529183019183016135d5565b600082601f8301126135fd57600080fd5b8135602061360d613301836134ff565b82815260059290921b8401810191818101908684111561362c57600080fd5b8286015b848110156135865780356001600160401b0381111561364f5760008081fd5b61365d8986838b0101613331565b845250918301918301613630565b6000806000806080858703121561368157600080fd5b84356001600160401b038082111561369857600080fd5b6136a488838901613522565b955060208701359150808211156136ba57600080fd5b6136c688838901613591565b945060408701359150808211156136dc57600080fd5b506136e9878288016135ec565b949793965093946060013593505050565b600080600080600060a0868803121561371257600080fd5b853594506137226020870161322d565b93506137306040870161322d565b94979396509394606081013594506080013592915050565b634e487b7160e01b600052602160045260246000fd5b602081016008831061378057634e487b7160e01b600052602160045260246000fd5b91905290565b6000806040838503121561379957600080fd5b8235915060208301356137ab8161347f565b809150509250929050565b600080604083850312156137c957600080fd5b823591506137d96020840161322d565b90509250929050565b6000806000806000608086880312156137fa57600080fd5b8535945061380a6020870161322d565b935060408601356001600160401b038082111561382657600080fd5b61383289838a0161323e565b9095509350606088013591508082111561384b57600080fd5b5061385888828901613331565b9150509295509295909350565b6000806000806060858703121561387b57600080fd5b8435935061388b6020860161322d565b925060408501356001600160401b038111156138a657600080fd5b6138b28782880161323e565b95989497509550505050565b600080600080608085870312156138d457600080fd5b84356001600160401b03808211156138eb57600080fd5b6138f788838901613522565b9550602087013591508082111561390d57600080fd5b61391988838901613591565b9450604087013591508082111561392f57600080fd5b61393b888389016135ec565b9350606087013591508082111561395157600080fd5b508501601f8101871361396357600080fd5b6134f3878235602084016132f3565b600081518084526020808501945080840160005b838110156139a257815187529582019590820190600101613986565b509495945050505050565b60ff60f81b8816815260e0602082015260006139cc60e0830189613440565b82810360408401526139de8189613440565b606084018890526001600160a01b038716608085015260a0840186905283810360c0850152905061099c8185613972565b600080600060608486031215613a2457600080fd5b8335613a2f8161347f565b92506020840135915060408401356001600160401b03811115613a5157600080fd5b613a5d86828701613331565b9150509250925092565b600080600080600060a08688031215613a7f57600080fd5b8535613a8a8161347f565b94506020860135613a9a8161347f565b935060408601356001600160401b0380821115613ab657600080fd5b613ac289838a01613591565b94506060880135915080821115613ad857600080fd5b613ae489838a01613591565b9350608088013591508082111561384b57600080fd5b60008060008060608587031215613b1057600080fd5b8435613b1b8161347f565b93506020850135925060408501356001600160401b038111156138a657600080fd5b600060208284031215613b4f57600080fd5b81356116058161347f565b60008060408385031215613b6d57600080fd5b8235613b788161347f565b946020939093013593505050565b600080600080600060a08688031215613b9e57600080fd5b8535613ba98161347f565b94506020860135613bb98161347f565b9350604086013592506060860135915060808601356001600160401b03811115613be257600080fd5b61385888828901613331565b8183823760009101908152919050565b602080825260189082015277476f7665726e6f723a206f6e6c79476f7665726e616e636560401b604082015260600190565b600181811c90821680613c4457607f821691505b60208210811415613c6557634e487b7160e01b600052602260045260246000fd5b50919050565b600060208284031215613c7d57600080fd5b81516001600160401b03811115613c9357600080fd5b8201601f81018413613ca457600080fd5b8051613cb2613301826132cc565b818152856020838501011115613cc757600080fd5b611ea4826020830160208601613410565b634e487b7160e01b600052601160045260246000fd5b600082821015613d0057613d00613cd8565b500390565b634e487b7160e01b600052603260045260246000fd5b60208082526021908201527f476f7665726e6f723a20696e76616c69642070726f706f73616c206c656e67746040820152600d60fb1b606082015260800190565b60008219821115613d6f57613d6f613cd8565b500190565b600081518084526020808501945080840160005b838110156139a25781516001600160a01b031687529582019590820190600101613d88565b600081518084526020808501808196508360051b8101915082860160005b85811015613df5578284038952613de3848351613440565b98850198935090840190600101613dcb565b5091979650505050505050565b60006101208b8352602060018060a01b038c1681850152816040850152613e2b8285018c613d74565b91508382036060850152613e3f828b613972565b915083820360808501528189518084528284019150828160051b850101838c0160005b83811015613e9057601f19878403018552613e7e838351613440565b94860194925090850190600101613e62565b505086810360a0880152613ea4818c613dad565b9450505050508560c08401528460e0840152828103610100840152613ec98185613440565b9c9b505050505050505050505050565b600060208284031215613eeb57600080fd5b815165ffffffffffff8116811461160557600080fd5b608081526000613f146080830187613d74565b8281036020840152613f268187613972565b90508281036040840152613f3a8186613dad565b91505082606083015295945050505050565b84815260ff841660208201528260408201526080606082015260006108aa6080830184613440565b85815260ff8516602082015283604082015260a060608201526000613f9c60a0830185613440565b8281036080840152613fae8185613440565b98975050505050505050565b918252602082015260400190565b6000600019821415613fdc57613fdc613cd8565b5060010190565b60008251613ff5818460208701613410565b9190910192915050565b60006020828403121561401157600080fd5b5051919050565b6020808252602b908201527f496e697469616c697a61626c653a20636f6e7472616374206973206e6f74206960408201526a6e697469616c697a696e6760a81b606082015260800190565b600081600019048311821515161561407d5761407d613cd8565b500290565b634e487b7160e01b600052601260045260246000fd5b6000826140b557634e487b7160e01b600052601260045260246000fd5b50049056fe476f7665726e6f723a2072656c617920726576657274656420776974686f7574206d657373616765150214d74d59b7d1e90c73fc22ef3d991dd0a76b046543d4d80ab92d2a50328fb3b3f3b703cd84ce352197dcff232b1b5d3cfb2025ce47cf04742d0651f1af88476f7665726e6f723a2063616c6c20726576657274656420776974686f7574206d657373616765a164736f6c634300080c000a",
  "linkReferences": {},
  "deployedLinkReferences": {}
}