{
  "_format": "hh-sol-artifact-1",
  "contractName": "HVAXVoterCard",
  "sourceName": "contracts/HVAXVoterCard.sol",
  "abi": [
    {
      "inputs": [],
      "stateMutability": "nonpayable",
      "type": "constructor"
    },
    {
      "anonymous": false,
      "inputs": [
        {
          "indexed": true,
          "internalType": "address",
          "name": "owner",
          "type": "address"
        },
        {
          "indexed": true,
          "internalType": "address",
          "name": "approved",
          "type": "address"
        },
        {
          "indexed": true,
          "internalType": "uint256",
          "name": "tokenId",
          "type": "uint256"
        }
      ],
      "name": "Approval",
      "type": "event"
    },
    {
      "anonymous": false,
      "inputs": [
        {
          "indexed": true,
          "internalType": "address",
          "name": "owner",
          "type": "address"
        },
        {
          "indexed": true,
          "internalType": "address",
          "name": "operator",
          "type": "address"
        },
        {
          "indexed": false,
          "internalType": "bool",
          "name": "approved",
          "type": "bool"
        }
      ],
      "name": "ApprovalForAll",
      "type": "event"
    },
    {
      "anonymous": false,
      "inputs": [
        {
          "indexed": false,
          "internalType": "uint256",
          "name": "_fromTokenId",
          "type": "uint256"
        },
        {
          "indexed": false,
          "internalType": "uint256",
          "name": "_toTokenId",
          "type": "uint256"
        }
      ],
      "name": "BatchMetadataUpdate",
      "type": "event"
    },
    {
      "anonymous": false,
      "inputs": [
        {
          "indexed": true,
          "internalType": "address",
          "name": "delegator",
          "type": "address"
        },
        {
          "indexed": true,
          "internalType": "address",
          "name": "fromDelegate",
          "type": "address"
        },
        {
          "indexed": true,
          "internalType": "address",
          "name": "toDelegate",
          "type": "address"
        }
      ],
      "name": "DelegateChanged",
      "type": "event"
    },
    {
      "anonymous": false,
      "inputs": [
        {
          "indexed": true,
          "internalType": "address",
          "name": "delegate",
          "type": "address"
        },
        {
          "indexed": false,
          "internalType": "uint256",
          "name": "previousBalance",
          "type": "uint256"
        },
        {
          "indexed": false,
          "internalType": "uint256",
          "name": "newBalance",
          "type": "uint256"
        }
      ],
      "name": "DelegateVotesChanged",
      "type": "event"
    },
    {
      "anonymous": false,
      "inputs": [],
      "name": "EIP712DomainChanged",
      "type": "event"
    },
    {
      "anonymous": false,
      "inputs": [
        {
          "indexed": false,
          "internalType": "uint8",
          "name": "version",
          "type": "uint8"
        }
      ],
      "name": "Initialized",
      "type": "event"
    },
    {
      "anonymous": false,
      "inputs": [
        {
          "indexed": false,
          "internalType": "uint256",
          "name": "_tokenId",
          "type": "uint256"
        }
      ],
      "name": "MetadataUpdate",
      "type": "event"
    },
    {
      "anonymous": false,
      "inputs": [
        {
          "indexed": true,
          "internalType": "address",
          "name": "previousOwner",
          "type": "address"
        },
        {
          "indexed": true,
          "internalType": "address",
          "name": "newOwner",
          "type": "address"
        }
      ],
      "name": "OwnershipTransferred",
      "type": "event"
    },
    {
      "anonymous": false,
      "inputs": [
        {
          "indexed": true,
          "internalType": "address",
          "name": "from",
          "type": "address"
        },
        {
          "indexed": true,
          "internalType": "address",
          "name": "to",
          "type": "address"
        },
        {
          "indexed": true,
          "internalType": "uint256",
          "name": "tokenId",
          "type": "uint256"
        }
      ],
      "name": "Transfer",
      "type": "event"
    },
    {
      "inputs": [],
      "name": "CLOCK_MODE",
      "outputs": [
        {
          "internalType": "string",
          "name": "",
          "type": "string"
        }
      ],
      "stateMutability": "view",
      "type": "function"
    },
    {
      "inputs": [],
      "name": "DOMAIN_SEPARATOR",
      "outputs": [
        {
          "internalType": "bytes32",
          "name": "",
          "type": "bytes32"
        }
      ],
      "stateMutability": "view",
      "type": "function"
    },
    {
      "inputs": [
        {
          "internalType": "address",
          "name": "to",
          "type": "address"
        },
        {
          "internalType": "uint256",
          "name": "tokenId",
          "type": "uint256"
        }
      ],
      "name": "approve",
      "outputs": [],
      "stateMutability": "nonpayable",
      "type": "function"
    },
    {
      "inputs": [
        {
          "internalType": "address",
          "name": "owner",
          "type": "address"
        }
      ],
      "name": "balanceOf",
      "outputs": [
        {
          "internalType": "uint256",
          "name": "",
          "type": "uint256"
        }
      ],
      "stateMutability": "view",
      "type": "function"
    },
    {
      "inputs": [],
      "name": "clock",
      "outputs": [
        {
          "internalType": "uint48",
          "name": "",
          "type": "uint48"
        }
      ],
      "stateMutability": "view",
      "type": "function"
    },
    {
      "inputs": [
        {
          "internalType": "address",
          "name": "delegatee",
          "type": "address"
        }
      ],
      "name": "delegate",
      "outputs": [],
      "stateMutability": "nonpayable",
      "type": "function"
    },
    {
      "inputs": [
        {
          "internalType": "address",
          "name": "delegatee",
          "type": "address"
        },
        {
          "internalType": "uint256",
          "name": "nonce",
          "type": "uint256"
        },
        {
          "internalType": "uint256",
          "name": "expiry",
          "type": "uint256"
        },
        {
          "internalType": "uint8",
          "name": "v",
          "type": "uint8"
        },
        {
          "internalType": "bytes32",
          "name": "r",
          "type": "bytes32"
        },
        {
          "internalType": "bytes32",
          "name": "s",
          "type": "bytes32"
        }
      ],
      "name": "delegateBySig",
      "outputs": [],
      "stateMutability": "nonpayable",
      "type": "function"
    },
    {
      "inputs": [
        {
          "internalType": "address",
          "name": "account",
          "type": "address"
        }
      ],
      "name": "delegates",
      "outputs": [
        {
          "internalType": "address",
          "name": "",
          "type": "address"
        }
      ],
      "stateMutability": "view",
      "type": "function"
    },
    {
      "inputs": [],
      "name": "eip712Domain",
      "outputs": [
        {
          "internalType": "bytes1",
          "name": "fields",
          "type": "bytes1"
        },
        {
          "internalType": "string",
          "name": "name",
          "type": "string"
        },
        {
          "internalType": "string",
          "name": "version",
          "type": "string"
        },
        {
          "internalType": "uint256",
          "name": "chainId",
          "type": "uint256"
        },
        {
          "internalType": "address",
          "name": "verifyingContract",
          "type": "address"
        },
        {
          "internalType": "bytes32",
          "name": "salt",
          "type": "bytes32"
        },
        {
          "internalType": "uint256[]",
          "name": "extensions",
          "type": "uint256[]"
        }
      ],
      "stateMutability": "view",
      "type": "function"
    },
    {
      "inputs": [
        {
          "internalType": "uint256",
          "name": "tokenId",
          "type": "uint256"
        }
      ],
      "name": "getApproved",
      "outputs": [
        {
          "internalType": "address",
          "name": "",
          "type": "address"
        }
      ],
      "stateMutability": "view",
      "type": "function"
    },
    {
      "inputs": [
        {
          "internalType": "uint256",
          "name": "timepoint",
          "type": "uint256"
        }
      ],
      "name": "getPastTotalSupply",
      "outputs": [
        {
          "internalType": "uint256",
          "name": "",
          "type": "uint256"
        }
      ],
      "stateMutability": "view",
      "type": "function"
    },
    {
      "inputs": [
        {
          "internalType": "address",
          "name": "account",
          "type": "address"
        },
        {
          "internalType": "uint256",
          "name": "timepoint",
          "type": "uint256"
        }
      ],
      "name": "getPastVotes",
      "outputs": [
        {
          "internalType": "uint256",
          "name": "",
          "type": "uint256"
        }
      ],
      "stateMutability": "view",
      "type": "function"
    },
    {
      "inputs": [
        {
          "internalType": "address",
          "name": "account",
          "type": "address"
        }
      ],
      "name": "getVotes",
      "outputs": [
        {
          "internalType": "uint256",
          "name": "",
          "type": "uint256"
        }
      ],
      "stateMutability": "view",
      "type": "function"
    },
    {
      "inputs": [],
      "name": "initialize",
      "outputs": [],
      "stateMutability": "nonpayable",
      "type": "function"
    },
    {
      "inputs": [
        {
          "internalType": "address",
          "name": "owner",
          "type": "address"
        },
        {
          "internalType": "address",
          "name": "operator",
          "type": "address"
        }
      ],
      "name": "isApprovedForAll",
      "outputs": [
        {
          "internalType": "bool",
          "name": "",
          "type": "bool"
        }
      ],
      "stateMutability": "view",
      "type": "function"
    },
    {
      "inputs": [],
      "name": "name",
      "outputs": [
        {
          "internalType": "string",
          "name": "",
          "type": "string"
        }
      ],
      "stateMutability": "view",
      "type": "function"
    },
    {
      "inputs": [
        {
          "internalType": "address",
          "name": "owner",
          "type": "address"
        }
      ],
      "name": "nonces",
      "outputs": [
        {
          "internalType": "uint256",
          "name": "",
          "type": "uint256"
        }
      ],
      "stateMutability": "view",
      "type": "function"
    },
    {
      "inputs": [],
      "name": "owner",
      "outputs": [
        {
          "internalType": "address",
          "name": "",
          "type": "address"
        }
      ],
      "stateMutability": "view",
      "type": "function"
    },
    {
      "inputs": [
        {
          "internalType": "uint256",
          "name": "tokenId",
          "type": "uint256"
        }
      ],
      "name": "ownerOf",
      "outputs": [
        {
          "internalType": "address",
          "name": "",
          "type": "address"
        }
      ],
      "stateMutability": "view",
      "type": "function"
    },
    {
      "inputs": [],
      "name": "renounceOwnership",
      "outputs": [],
      "stateMutability": "nonpayable",
      "type": "function"
    },
    {
      "inputs": [
        {
          "internalType": "address",
          "name": "to",
          "type": "address"
        }
      ],
      "name": "safeMint",
      "outputs": [],
      "stateMutability": "nonpayable",
      "type": "function"
    },
    {
      "inputs": [
        {
          "internalType": "address",
          "name": "from",
          "type": "address"
        },
        {
          "internalType": "address",
          "name": "to",
          "type": "address"
        },
        {
          "internalType": "uint256",
          "name": "tokenId",
          "type": "uint256"
        }
      ],
      "name": "safeTransferFrom",
      "outputs": [],
      "stateMutability": "nonpayable",
      "type": "function"
    },
    {
      "inputs": [
        {
          "internalType": "address",
          "name": "from",
          "type": "address"
        },
        {
          "internalType": "address",
          "name": "to",
          "type": "address"
        },
        {
          "internalType": "uint256",
          "name": "tokenId",
          "type": "uint256"
        },
        {
          "internalType": "bytes",
          "name": "data",
          "type": "bytes"
        }
      ],
      "name": "safeTransferFrom",
      "outputs": [],
      "stateMutability": "nonpayable",
      "type": "function"
    },
    {
      "inputs": [
        {
          "internalType": "address",
          "name": "operator",
          "type": "address"
        },
        {
          "internalType": "bool",
          "name": "approved",
          "type": "bool"
        }
      ],
      "name": "setApprovalForAll",
      "outputs": [],
      "stateMutability": "nonpayable",
      "type": "function"
    },
    {
      "inputs": [
        {
          "internalType": "bytes4",
          "name": "interfaceId",
          "type": "bytes4"
        }
      ],
      "name": "supportsInterface",
      "outputs": [
        {
          "internalType": "bool",
          "name": "",
          "type": "bool"
        }
      ],
      "stateMutability": "view",
      "type": "function"
    },
    {
      "inputs": [],
      "name": "symbol",
      "outputs": [
        {
          "internalType": "string",
          "name": "",
          "type": "string"
        }
      ],
      "stateMutability": "view",
      "type": "function"
    },
    {
      "inputs": [
        {
          "internalType": "uint256",
          "name": "tokenId",
          "type": "uint256"
        }
      ],
      "name": "tokenURI",
      "outputs": [
        {
          "internalType": "string",
          "name": "",
          "type": "string"
        }
      ],
      "stateMutability": "view",
      "type": "function"
    },
    {
      "inputs": [
        {
          "internalType": "address",
          "name": "from",
          "type": "address"
        },
        {
          "internalType": "address",
          "name": "to",
          "type": "address"
        },
        {
          "internalType": "uint256",
          "name": "tokenId",
          "type": "uint256"
        }
      ],
      "name": "transferFrom",
      "outputs": [],
      "stateMutability": "nonpayable",
      "type": "function"
    },
    {
      "inputs": [
        {
          "internalType": "address",
          "name": "newOwner",
          "type": "address"
        }
      ],
      "name": "transferOwnership",
      "outputs": [],
      "stateMutability": "nonpayable",
      "type": "function"
    }
  ],
  "bytecode": "0x60806040523480156200001157600080fd5b506200001c62000022565b620000e3565b600054610100900460ff16156200008f5760405162461bcd60e51b815260206004820152602760248201527f496e697469616c697a61626c653a20636f6e747261637420697320696e697469604482015266616c697a696e6760c81b606482015260840160405180910390fd5b60005460ff90811614620000e1576000805460ff191660ff9081179091556040519081527f7f26b83ff96e1f2b6a682f133852f6798a09c465da95921460cefb38474024989060200160405180910390a15b565b612dc380620000f36000396000f3fe608060405234801561001057600080fd5b506004361061015f5760003560e01c806301ffc9a71461016457806306fdde031461018c578063081812fc146101a1578063095ea7b3146101cc57806323b872dd146101e15780633644e515146101f45780633a46b1a81461020a57806340d097c31461021d57806342842e0e146102305780634bf5d7e914610243578063587cde1e1461024b5780635c19a95c1461025e5780636352211e1461027157806370a0823114610284578063715018a6146102975780637ecebe001461029f5780638129fc1c146102b257806384b0196e146102ba5780638da5cb5b146102d55780638e539e8c146102dd57806391ddadf4146102f057806395d89b411461030f5780639ab24eb014610317578063a22cb4651461032a578063b88d4fde1461033d578063c3cda52014610350578063c87b56dd14610363578063e985e9c514610376578063f2fde38b14610389575b600080fd5b610177610172366004612682565b61039c565b60405190151581526020015b60405180910390f35b6101946103ad565b60405161018391906126f7565b6101b46101af36600461270a565b61043f565b6040516001600160a01b039091168152602001610183565b6101df6101da36600461273f565b610466565b005b6101df6101ef366004612769565b610581565b6101fc6105b2565b604051908152602001610183565b6101fc61021836600461273f565b6105c1565b6101df61022b3660046127a5565b61062c565b6101df61023e366004612769565b610669565b610194610684565b6101b46102593660046127a5565b610717565b6101df61026c3660046127a5565b610736565b6101b461027f36600461270a565b610741565b6101fc6102923660046127a5565b610775565b6101df6107fb565b6101fc6102ad3660046127a5565b61080f565b6101df61082e565b6102c26109eb565b60405161018397969594939291906127c0565b6101b4610a89565b6101fc6102eb36600461270a565b610a98565b6102f8610aec565b60405165ffffffffffff9091168152602001610183565b610194610af7565b6101fc6103253660046127a5565b610b06565b6101df610338366004612856565b610b28565b6101df61034b3660046128a8565b610b33565b6101df61035e366004612983565b610b6b565b61019461037136600461270a565b610c93565b6101776103843660046129e3565b610c9e565b6101df6103973660046127a5565b610ccc565b60006103a782610d42565b92915050565b6060606580546103bc90612a16565b80601f01602080910402602001604051908101604052809291908181526020018280546103e890612a16565b80156104355780601f1061040a57610100808354040283529160200191610435565b820191906000526020600020905b81548152906001019060200180831161041857829003601f168201915b5050505050905090565b600061044a82610d67565b506000908152606960205260409020546001600160a01b031690565b600061047182610741565b9050806001600160a01b0316836001600160a01b031614156104e45760405162461bcd60e51b815260206004820152602160248201527f4552433732313a20617070726f76616c20746f2063757272656e74206f776e656044820152603960f91b60648201526084015b60405180910390fd5b336001600160a01b038216148061050057506105008133610c9e565b6105725760405162461bcd60e51b815260206004820152603d60248201527f4552433732313a20617070726f76652063616c6c6572206973206e6f7420746f60448201527f6b656e206f776e6572206f7220617070726f76656420666f7220616c6c00000060648201526084016104db565b61057c8383610d8c565b505050565b61058b3382610dfa565b6105a75760405162461bcd60e51b81526004016104db90612a4b565b61057c838383610e59565b60006105bc610fb3565b905090565b60006105cb610aec565b65ffffffffffff1682106105f15760405162461bcd60e51b81526004016104db90612a98565b61061c6105fd83610fbd565b6001600160a01b03851660009081526101306020526040902090611026565b6001600160e01b03169392505050565b60006106386101935490565b905061064961019380546001019055565b61065382826110da565b6106658161066083610c93565b6110f4565b5050565b61057c83838360405180602001604052806000815250610b33565b60604361068f610aec565b65ffffffffffff16146106df5760405162461bcd60e51b8152602060048201526018602482015277566f7465733a2062726f6b656e20636c6f636b206d6f646560401b60448201526064016104db565b5060408051808201909152601d81527f6d6f64653d626c6f636b6e756d6265722666726f6d3d64656661756c74000000602082015290565b6001600160a01b03908116600090815261012f60205260409020541690565b3361066581836111b7565b60008061074d83611233565b90506001600160a01b0381166103a75760405162461bcd60e51b81526004016104db90612ac6565b60006001600160a01b0382166107df5760405162461bcd60e51b815260206004820152602960248201527f4552433732313a2061646472657373207a65726f206973206e6f7420612076616044820152683634b21037bbb732b960b91b60648201526084016104db565b506001600160a01b031660009081526068602052604090205490565b61080361124e565b61080d60006112ad565b565b6001600160a01b038116600090815261013260205260408120546103a7565b600054610100900460ff161580801561084e5750600054600160ff909116105b8061086f575061085d306112ff565b15801561086f575060005460ff166001145b6108d25760405162461bcd60e51b815260206004820152602e60248201527f496e697469616c697a61626c653a20636f6e747261637420697320616c72656160448201526d191e481a5b9a5d1a585b1a5e995960921b60648201526084016104db565b6000805460ff1916600117905580156108f5576000805461ff0019166101001790555b6109426040518060400160405280600d81526020016c12159056159bdd195c90d85c99609a1b8152506040518060400160405280600681526020016548564158564360d01b81525061130e565b61094a61133f565b610952611366565b61099a6040518060400160405280600d81526020016c12159056159bdd195c90d85c99609a1b815250604051806040016040528060018152602001603160f81b815250611395565b6109a261133f565b80156109e8576000805461ff0019169055604051600181527f7f26b83ff96e1f2b6a682f133852f6798a09c465da95921460cefb38474024989060200160405180910390a15b50565b60006060806000806000606060fb546000801b148015610a0b575060fc54155b610a4f5760405162461bcd60e51b81526020600482015260156024820152741152540dcc4c8e88155b9a5b9a5d1a585b1a5e9959605a1b60448201526064016104db565b610a576113c6565b610a5f6113d5565b60408051600080825260208201909252600f60f81b9b939a50919850469750309650945092509050565b60c9546001600160a01b031690565b6000610aa2610aec565b65ffffffffffff168210610ac85760405162461bcd60e51b81526004016104db90612a98565b610add610ad483610fbd565b61013190611026565b6001600160e01b031692915050565b60006105bc436113e4565b6060606680546103bc90612a16565b6001600160a01b038116600090815261013060205260408120610add9061144b565b610665338383611485565b610b3d3383610dfa565b610b595760405162461bcd60e51b81526004016104db90612a4b565b610b6584848484611550565b50505050565b83421115610bb65760405162461bcd60e51b8152602060048201526018602482015277159bdd195cce881cda59db985d1d5c9948195e1c1a5c995960421b60448201526064016104db565b604080517fe48329057bfd03d55e49b547132e39cffd9c1820ad7b9d4c5307691425d15adf60208201526001600160a01b038816918101919091526060810186905260808101859052600090610c3090610c289060a00160405160208183030381529060405280519060200120611583565b8585856115b0565b9050610c3b816115d8565b8614610c805760405162461bcd60e51b8152602060048201526014602482015273566f7465733a20696e76616c6964206e6f6e636560601b60448201526064016104db565b610c8a81886111b7565b50505050505050565b60606103a782611601565b6001600160a01b039182166000908152606a6020908152604080832093909416825291909152205460ff1690565b610cd461124e565b6001600160a01b038116610d395760405162461bcd60e51b815260206004820152602660248201527f4f776e61626c653a206e6577206f776e657220697320746865207a65726f206160448201526564647265737360d01b60648201526084016104db565b6109e8816112ad565b60006001600160e01b03198216632483248360e11b14806103a757506103a7826116fd565b610d708161174d565b6109e85760405162461bcd60e51b81526004016104db90612ac6565b600081815260696020526040902080546001600160a01b0319166001600160a01b0384169081179091558190610dc182610741565b6001600160a01b03167f8c5be1e5ebec7d5bd14f71427d1e84f3dd0314c0f7b2291e5b200ac8c7c3b92560405160405180910390a45050565b600080610e0683610741565b9050806001600160a01b0316846001600160a01b03161480610e2d5750610e2d8185610c9e565b80610e515750836001600160a01b0316610e468461043f565b6001600160a01b0316145b949350505050565b826001600160a01b0316610e6c82610741565b6001600160a01b031614610e925760405162461bcd60e51b81526004016104db90612af8565b6001600160a01b038216610ef45760405162461bcd60e51b8152602060048201526024808201527f4552433732313a207472616e7366657220746f20746865207a65726f206164646044820152637265737360e01b60648201526084016104db565b826001600160a01b0316610f0782610741565b6001600160a01b031614610f2d5760405162461bcd60e51b81526004016104db90612af8565b600081815260696020908152604080832080546001600160a01b03199081169091556001600160a01b038781168086526068855283862080546000190190559087168086528386208054600101905586865260679094528285208054909216841790915590518493600080516020612d7783398151915291a461057c838383600161176a565b60006105bc611776565b600063ffffffff8211156110225760405162461bcd60e51b815260206004820152602660248201527f53616665436173743a2076616c756520646f65736e27742066697420696e203360448201526532206269747360d01b60648201526084016104db565b5090565b815460009081816005811115611083576000611041846117ea565b61104b9085612b53565b60008881526020902090915081015463ffffffff908116908716101561107357809150611081565b61107e816001612b6a565b92505b505b6000611091878785856118cf565b905080156110cc576110b6876110a8600184612b53565b600091825260209091200190565b54600160201b90046001600160e01b03166110cf565b60005b979650505050505050565b61066582826040518060200160405280600081525061192d565b6110fd8261174d565b6111605760405162461bcd60e51b815260206004820152602e60248201527f45524337323155524953746f726167653a2055524920736574206f66206e6f6e60448201526d32bc34b9ba32b73a103a37b5b2b760911b60648201526084016104db565b6000828152609760209081526040909120825161117f928401906125dc565b506040518281527ff8e1a15aba9398e019f0b49df1a4fde98ee17ae345cb5f6b5e2c27f5033e8ce79060200160405180910390a15050565b60006111c283610717565b6001600160a01b03848116600081815261012f602052604080822080546001600160a01b031916888616908117909155905194955093928516927f3134e8a2e6d97e929a7e54011ea5485d7d196dd5f0ba4d4ef95803e8e3fc257f9190a461057c818361122e86611960565b61196b565b6000908152606760205260409020546001600160a01b031690565b33611257610a89565b6001600160a01b03161461080d5760405162461bcd60e51b815260206004820181905260248201527f4f776e61626c653a2063616c6c6572206973206e6f7420746865206f776e657260448201526064016104db565b60c980546001600160a01b038381166001600160a01b0319831681179093556040519116919082907f8be0079c531659141344cd1fd0a4f28419497f9722a3daafe3b4186f6b6457e090600090a35050565b6001600160a01b03163b151590565b600054610100900460ff166113355760405162461bcd60e51b81526004016104db90612b82565b6106658282611ab5565b600054610100900460ff1661080d5760405162461bcd60e51b81526004016104db90612b82565b600054610100900460ff1661138d5760405162461bcd60e51b81526004016104db90612b82565b61080d611b03565b600054610100900460ff166113bc5760405162461bcd60e51b81526004016104db90612b82565b6106658282611b33565b606060fd80546103bc90612a16565b606060fe80546103bc90612a16565b600065ffffffffffff8211156110225760405162461bcd60e51b815260206004820152602660248201527f53616665436173743a2076616c756520646f65736e27742066697420696e203460448201526538206269747360d01b60648201526084016104db565b8054600090801561147b57611465836110a8600184612b53565b54600160201b90046001600160e01b031661147e565b60005b9392505050565b816001600160a01b0316836001600160a01b031614156114e35760405162461bcd60e51b815260206004820152601960248201527822a9219b99189d1030b8383937bb32903a379031b0b63632b960391b60448201526064016104db565b6001600160a01b038381166000818152606a6020908152604080832094871680845294825291829020805460ff191686151590811790915591519182527f17307eab39ab6107e8899845ad3d59bd9653f200f220920489ca2b5937696c31910160405180910390a3505050565b61155b848484610e59565b61156784848484611b90565b610b655760405162461bcd60e51b81526004016104db90612bcd565b60006103a7611590610fb3565b8360405161190160f01b8152600281019290925260228201526042902090565b60008060006115c187878787611c92565b915091506115ce81611d4c565b5095945050505050565b6001600160a01b0381166000908152610132602052604090208054600181018255905b50919050565b606061160c82610d67565b6000828152609760205260408120805461162590612a16565b80601f016020809104026020016040519081016040528092919081815260200182805461165190612a16565b801561169e5780601f106116735761010080835404028352916020019161169e565b820191906000526020600020905b81548152906001019060200180831161168157829003601f168201915b5050505050905060006116af611e95565b90508051600014156116c2575092915050565b8151156116f45780826040516020016116dc929190612c1f565b60405160208183030381529060405292505050919050565b610e5184611ecb565b60006001600160e01b031982166380ac58cd60e01b148061172e57506001600160e01b03198216635b5e139f60e01b145b806103a757506301ffc9a760e01b6001600160e01b03198316146103a7565b60008061175983611233565b6001600160a01b0316141592915050565b610b6584848484611f31565b60007f8b73c3c69bb8fe3d512ecc4cf759cc79239f7b179b0ffacaa9a75d522b39400f6117a1611f41565b6117a9611f9a565b60408051602081019490945283019190915260608201524660808201523060a082015260c00160405160208183030381529060405280519060200120905090565b6000816117f957506000919050565b6000600161180684611fcb565b901c6001901b9050600181848161181f5761181f612c4e565b048201901c9050600181848161183757611837612c4e565b048201901c9050600181848161184f5761184f612c4e565b048201901c9050600181848161186757611867612c4e565b048201901c9050600181848161187f5761187f612c4e565b048201901c9050600181848161189757611897612c4e565b048201901c905060018184816118af576118af612c4e565b048201901c905061147e818285816118c9576118c9612c4e565b0461205f565b60005b818310156119255760006118e68484612075565b60008781526020902090915063ffffffff86169082015463ffffffff1611156119115780925061191f565b61191c816001612b6a565b93505b506118d2565b509392505050565b6119378383612090565b6119446000848484611b90565b61057c5760405162461bcd60e51b81526004016104db90612bcd565b60006103a782610775565b816001600160a01b0316836001600160a01b03161415801561198d5750600081115b1561057c576001600160a01b03831615611a24576001600160a01b03831660009081526101306020526040812081906119d1906121956119cc866121a1565b61220a565b6001600160e01b031691506001600160e01b03169150846001600160a01b0316600080516020612d978339815191528383604051611a19929190918252602082015260400190565b60405180910390a250505b6001600160a01b0382161561057c576001600160a01b0382166000908152610130602052604081208190611a5e906122536119cc866121a1565b6001600160e01b031691506001600160e01b03169150836001600160a01b0316600080516020612d978339815191528383604051611aa6929190918252602082015260400190565b60405180910390a25050505050565b600054610100900460ff16611adc5760405162461bcd60e51b81526004016104db90612b82565b8151611aef9060659060208501906125dc565b50805161057c9060669060208401906125dc565b600054610100900460ff16611b2a5760405162461bcd60e51b81526004016104db90612b82565b61080d336112ad565b600054610100900460ff16611b5a5760405162461bcd60e51b81526004016104db90612b82565b8151611b6d9060fd9060208501906125dc565b508051611b819060fe9060208401906125dc565b5050600060fb81905560fc5550565b6000611ba4846001600160a01b03166112ff565b15611c8a57604051630a85bd0160e11b81526001600160a01b0385169063150b7a0290611bdb903390899088908890600401612c64565b6020604051808303816000875af1925050508015611c16575060408051601f3d908101601f19168201909252611c1391810190612ca1565b60015b611c70573d808015611c44576040519150601f19603f3d011682016040523d82523d6000602084013e611c49565b606091505b508051611c685760405162461bcd60e51b81526004016104db90612bcd565b805181602001fd5b6001600160e01b031916630a85bd0160e11b149050610e51565b506001610e51565b6000806fa2a8918ca85bafe22016d0b997e4df60600160ff1b03831115611cbf5750600090506003611d43565b6040805160008082526020820180845289905260ff881692820192909252606081018690526080810185905260019060a0016020604051602081039080840390855afa158015611d13573d6000803e3d6000fd5b5050604051601f1901519150506001600160a01b038116611d3c57600060019250925050611d43565b9150600090505b94509492505050565b6000816004811115611d6057611d60612cbe565b1415611d695750565b6001816004811115611d7d57611d7d612cbe565b1415611dc65760405162461bcd60e51b815260206004820152601860248201527745434453413a20696e76616c6964207369676e617475726560401b60448201526064016104db565b6002816004811115611dda57611dda612cbe565b1415611e285760405162461bcd60e51b815260206004820152601f60248201527f45434453413a20696e76616c6964207369676e6174757265206c656e6774680060448201526064016104db565b6003816004811115611e3c57611e3c612cbe565b14156109e85760405162461bcd60e51b815260206004820152602260248201527f45434453413a20696e76616c6964207369676e6174757265202773272076616c604482015261756560f01b60648201526084016104db565b60408051808201909152601c81527b68747470733a2f2f697066732e696e667572612e696f3a353030312f60201b602082015290565b6060611ed682610d67565b6000611ee0611e95565b90506000815111611f00576040518060200160405280600081525061147e565b80611f0a8461225f565b604051602001611f1b929190612c1f565b6040516020818303038152906040529392505050565b611f3c8484836122f3565b610b65565b600080611f4c6113c6565b805190915015611f63578051602090910120919050565b60fb548015611f725792915050565b7fc5d2460186f7233c927e7db2dcc703c0e500b653ca82273b7bfad8045d85a4709250505090565b600080611fa56113d5565b805190915015611fbc578051602090910120919050565b60fc548015611f725792915050565b600080608083901c15611fe057608092831c92015b604083901c15611ff257604092831c92015b602083901c1561200457602092831c92015b601083901c1561201657601092831c92015b600883901c1561202857600892831c92015b600483901c1561203a57600492831c92015b600283901c1561204c57600292831c92015b600183901c156103a75760010192915050565b600081831061206e578161147e565b5090919050565b60006120846002848418612cd4565b61147e90848416612b6a565b6001600160a01b0382166120e65760405162461bcd60e51b815260206004820181905260248201527f4552433732313a206d696e7420746f20746865207a65726f206164647265737360448201526064016104db565b6120ef8161174d565b1561210c5760405162461bcd60e51b81526004016104db90612cf6565b6121158161174d565b156121325760405162461bcd60e51b81526004016104db90612cf6565b6001600160a01b038216600081815260686020908152604080832080546001019055848352606790915280822080546001600160a01b031916841790555183929190600080516020612d77833981519152908290a461066560008383600161176a565b600061147e8284612d2c565b60006001600160e01b038211156110225760405162461bcd60e51b815260206004820152602760248201527f53616665436173743a2076616c756520646f65736e27742066697420696e20326044820152663234206269747360c81b60648201526084016104db565b60008061224661222861221b610aec565b65ffffffffffff16610fbd565b61223e6122348861144b565b868863ffffffff16565b879190612354565b915091505b935093915050565b600061147e8284612d54565b6060600061226c83612362565b60010190506000816001600160401b0381111561228b5761228b612892565b6040519080825280601f01601f1916602001820160405280156122b5576020820181803683370190505b5090508181016020015b600019016f181899199a1a9b1b9c1cb0b131b232b360811b600a86061a8153600a85049450846122ee57611925565b6122bf565b6001600160a01b038316612316576123136101316122536119cc846121a1565b50505b6001600160a01b038216612339576123366101316121956119cc846121a1565b50505b61057c61234584610717565b61234e84610717565b8361196b565b600080612246858585612438565b60008072184f03e93ff9f4daa797ed6e38ed64bf6a1f0160401b83106123a15772184f03e93ff9f4daa797ed6e38ed64bf6a1f0160401b830492506040015b6904ee2d6d415b85acef8160201b83106123cb576904ee2d6d415b85acef8160201b830492506020015b662386f26fc1000083106123e957662386f26fc10000830492506010015b6305f5e1008310612401576305f5e100830492506008015b612710831061241557612710830492506004015b60648310612427576064830492506002015b600a83106103a75760010192915050565b825460009081908015612583576000612456876110a8600185612b53565b60408051808201909152905463ffffffff808216808452600160201b9092046001600160e01b0316602084015291925090871610156124d55760405162461bcd60e51b815260206004820152601b60248201527a436865636b706f696e743a2064656372656173696e67206b65797360281b60448201526064016104db565b8563ffffffff16816000015163ffffffff16141561252457846124fd886110a8600186612b53565b80546001600160e01b0392909216600160201b0263ffffffff909216919091179055612573565b6040805180820190915263ffffffff80881682526001600160e01b0380881660208085019182528b54600181018d5560008d81529190912094519151909216600160201b029216919091179101555b60200151925083915061224b9050565b50506040805180820190915263ffffffff80851682526001600160e01b0380851660208085019182528854600181018a5560008a815291822095519251909316600160201b02919093161792019190915590508161224b565b8280546125e890612a16565b90600052602060002090601f01602090048101928261260a5760008555612650565b82601f1061262357805160ff1916838001178555612650565b82800160010185558215612650579182015b82811115612650578251825591602001919060010190612635565b506110229291505b808211156110225760008155600101612658565b6001600160e01b0319811681146109e857600080fd5b60006020828403121561269457600080fd5b813561147e8161266c565b60005b838110156126ba5781810151838201526020016126a2565b83811115610b655750506000910152565b600081518084526126e381602086016020860161269f565b601f01601f19169290920160200192915050565b60208152600061147e60208301846126cb565b60006020828403121561271c57600080fd5b5035919050565b80356001600160a01b038116811461273a57600080fd5b919050565b6000806040838503121561275257600080fd5b61275b83612723565b946020939093013593505050565b60008060006060848603121561277e57600080fd5b61278784612723565b925061279560208501612723565b9150604084013590509250925092565b6000602082840312156127b757600080fd5b61147e82612723565b60ff60f81b881681526000602060e0818401526127e060e084018a6126cb565b83810360408501526127f2818a6126cb565b606085018990526001600160a01b038816608086015260a0850187905284810360c0860152855180825283870192509083019060005b8181101561284457835183529284019291840191600101612828565b50909c9b505050505050505050505050565b6000806040838503121561286957600080fd5b61287283612723565b91506020830135801515811461288757600080fd5b809150509250929050565b634e487b7160e01b600052604160045260246000fd5b600080600080608085870312156128be57600080fd5b6128c785612723565b93506128d560208601612723565b92506040850135915060608501356001600160401b03808211156128f857600080fd5b818701915087601f83011261290c57600080fd5b81358181111561291e5761291e612892565b604051601f8201601f19908116603f0116810190838211818310171561294657612946612892565b816040528281528a602084870101111561295f57600080fd5b82602086016020830137600060208483010152809550505050505092959194509250565b60008060008060008060c0878903121561299c57600080fd5b6129a587612723565b95506020870135945060408701359350606087013560ff811681146129c957600080fd5b9598949750929560808101359460a0909101359350915050565b600080604083850312156129f657600080fd5b6129ff83612723565b9150612a0d60208401612723565b90509250929050565b600181811c90821680612a2a57607f821691505b602082108114156115fb57634e487b7160e01b600052602260045260246000fd5b6020808252602d908201527f4552433732313a2063616c6c6572206973206e6f7420746f6b656e206f776e6560408201526c1c881bdc88185c1c1c9bdd9959609a1b606082015260800190565b6020808252601490820152730566f7465733a20667574757265206c6f6f6b75760641b604082015260600190565b602080825260189082015277115490cdcc8c4e881a5b9d985b1a59081d1bdad95b88125160421b604082015260600190565b60208082526025908201527f4552433732313a207472616e736665722066726f6d20696e636f72726563742060408201526437bbb732b960d91b606082015260800190565b634e487b7160e01b600052601160045260246000fd5b600082821015612b6557612b65612b3d565b500390565b60008219821115612b7d57612b7d612b3d565b500190565b6020808252602b908201527f496e697469616c697a61626c653a20636f6e7472616374206973206e6f74206960408201526a6e697469616c697a696e6760a81b606082015260800190565b60208082526032908201527f4552433732313a207472616e7366657220746f206e6f6e20455243373231526560408201527131b2b4bb32b91034b6b83632b6b2b73a32b960711b606082015260800190565b60008351612c3181846020880161269f565b835190830190612c4581836020880161269f565b01949350505050565b634e487b7160e01b600052601260045260246000fd5b6001600160a01b0385811682528416602082015260408101839052608060608201819052600090612c97908301846126cb565b9695505050505050565b600060208284031215612cb357600080fd5b815161147e8161266c565b634e487b7160e01b600052602160045260246000fd5b600082612cf157634e487b7160e01b600052601260045260246000fd5b500490565b6020808252601c908201527b115490cdcc8c4e881d1bdad95b88185b1c9958591e481b5a5b9d195960221b604082015260600190565b60006001600160e01b0383811690831681811015612d4c57612d4c612b3d565b039392505050565b60006001600160e01b03828116848216808303821115612c4557612c45612b3d56feddf252ad1be2c89b69c2b068fc378daa952ba7f163c4a11628f55a4df523b3efdec2bacdd2f05b59de34da9b523dff8be42e5e38e818c82fdb0bae774387a724a164736f6c634300080c000a",
  "linkReferences": {},
  "deployedLinkReferences": {}
}