{
  "_format": "hh-sol-artifact-1",
  "contractName": "HVAXVoterGovernor",
  "sourceName": "contracts/HVAXVoterGovernor.sol",
  "abi": [
    {
      "inputs": [],
      "stateMutability": "nonpayable",
      "type": "constructor"
    },
    {
      "inputs": [],
      "name": "Empty",
      "type": "error"
    },
    {
      "anonymous": false,
      "inputs": [],
      "name": "EIP712DomainChanged",
      "type": "event"
    },
    {
      "anonymous": false,
      "inputs": [
        {
          "indexed": false,
          "internalType": "uint8",
          "name": "version",
          "type": "uint8"
        }
      ],
      "name": "Initialized",
      "type": "event"
    },
    {
      "anonymous": false,
      "inputs": [
        {
          "indexed": false,
          "internalType": "uint256",
          "name": "proposalId",
          "type": "uint256"
        }
      ],
      "name": "ProposalCanceled",
      "type": "event"
    },
    {
      "anonymous": false,
      "inputs": [
        {
          "indexed": false,
          "internalType": "uint256",
          "name": "proposalId",
          "type": "uint256"
        },
        {
          "indexed": false,
          "internalType": "address",
          "name": "proposer",
          "type": "address"
        },
        {
          "indexed": false,
          "internalType": "address[]",
          "name": "targets",
          "type": "address[]"
        },
        {
          "indexed": false,
          "internalType": "uint256[]",
          "name": "values",
          "type": "uint256[]"
        },
        {
          "indexed": false,
          "internalType": "string[]",
          "name": "signatures",
          "type": "string[]"
        },
        {
          "indexed": false,
          "internalType": "bytes[]",
          "name": "calldatas",
          "type": "bytes[]"
        },
        {
          "indexed": false,
          "internalType": "uint256",
          "name": "voteStart",
          "type": "uint256"
        },
        {
          "indexed": false,
          "internalType": "uint256",
          "name": "voteEnd",
          "type": "uint256"
        },
        {
          "indexed": false,
          "internalType": "string",
          "name": "description",
          "type": "string"
        }
      ],
      "name": "ProposalCreated",
      "type": "event"
    },
    {
      "anonymous": false,
      "inputs": [
        {
          "indexed": false,
          "internalType": "uint256",
          "name": "proposalId",
          "type": "uint256"
        }
      ],
      "name": "ProposalExecuted",
      "type": "event"
    },
    {
      "anonymous": false,
      "inputs": [
        {
          "indexed": false,
          "internalType": "uint256",
          "name": "oldProposalThreshold",
          "type": "uint256"
        },
        {
          "indexed": false,
          "internalType": "uint256",
          "name": "newProposalThreshold",
          "type": "uint256"
        }
      ],
      "name": "ProposalThresholdSet",
      "type": "event"
    },
    {
      "anonymous": false,
      "inputs": [
        {
          "indexed": false,
          "internalType": "uint256",
          "name": "oldQuorumNumerator",
          "type": "uint256"
        },
        {
          "indexed": false,
          "internalType": "uint256",
          "name": "newQuorumNumerator",
          "type": "uint256"
        }
      ],
      "name": "QuorumNumeratorUpdated",
      "type": "event"
    },
    {
      "anonymous": false,
      "inputs": [
        {
          "indexed": true,
          "internalType": "address",
          "name": "voter",
          "type": "address"
        },
        {
          "indexed": false,
          "internalType": "uint256",
          "name": "proposalId",
          "type": "uint256"
        },
        {
          "indexed": false,
          "internalType": "uint8",
          "name": "support",
          "type": "uint8"
        },
        {
          "indexed": false,
          "internalType": "uint256",
          "name": "weight",
          "type": "uint256"
        },
        {
          "indexed": false,
          "internalType": "string",
          "name": "reason",
          "type": "string"
        }
      ],
      "name": "VoteCast",
      "type": "event"
    },
    {
      "anonymous": false,
      "inputs": [
        {
          "indexed": true,
          "internalType": "address",
          "name": "voter",
          "type": "address"
        },
        {
          "indexed": false,
          "internalType": "uint256",
          "name": "proposalId",
          "type": "uint256"
        },
        {
          "indexed": false,
          "internalType": "uint8",
          "name": "support",
          "type": "uint8"
        },
        {
          "indexed": false,
          "internalType": "uint256",
          "name": "weight",
          "type": "uint256"
        },
        {
          "indexed": false,
          "internalType": "string",
          "name": "reason",
          "type": "string"
        },
        {
          "indexed": false,
          "internalType": "bytes",
          "name": "params",
          "type": "bytes"
        }
      ],
      "name": "VoteCastWithParams",
      "type": "event"
    },
    {
      "anonymous": false,
      "inputs": [
        {
          "indexed": false,
          "internalType": "uint256",
          "name": "oldVotingDelay",
          "type": "uint256"
        },
        {
          "indexed": false,
          "internalType": "uint256",
          "name": "newVotingDelay",
          "type": "uint256"
        }
      ],
      "name": "VotingDelaySet",
      "type": "event"
    },
    {
      "anonymous": false,
      "inputs": [
        {
          "indexed": false,
          "internalType": "uint256",
          "name": "oldVotingPeriod",
          "type": "uint256"
        },
        {
          "indexed": false,
          "internalType": "uint256",
          "name": "newVotingPeriod",
          "type": "uint256"
        }
      ],
      "name": "VotingPeriodSet",
      "type": "event"
    },
    {
      "inputs": [],
      "name": "BALLOT_TYPEHASH",
      "outputs": [
        {
          "internalType": "bytes32",
          "name": "",
          "type": "bytes32"
        }
      ],
      "stateMutability": "view",
      "type": "function"
    },
    {
      "inputs": [],
      "name": "CLOCK_MODE",
      "outputs": [
        {
          "internalType": "string",
          "name": "",
          "type": "string"
        }
      ],
      "stateMutability": "view",
      "type": "function"
    },
    {
      "inputs": [],
      "name": "COUNTING_MODE",
      "outputs": [
        {
          "internalType": "string",
          "name": "",
          "type": "string"
        }
      ],
      "stateMutability": "pure",
      "type": "function"
    },
    {
      "inputs": [],
      "name": "EXTENDED_BALLOT_TYPEHASH",
      "outputs": [
        {
          "internalType": "bytes32",
          "name": "",
          "type": "bytes32"
        }
      ],
      "stateMutability": "view",
      "type": "function"
    },
    {
      "inputs": [
        {
          "internalType": "address[]",
          "name": "targets",
          "type": "address[]"
        },
        {
          "internalType": "uint256[]",
          "name": "values",
          "type": "uint256[]"
        },
        {
          "internalType": "bytes[]",
          "name": "calldatas",
          "type": "bytes[]"
        },
        {
          "internalType": "bytes32",
          "name": "descriptionHash",
          "type": "bytes32"
        }
      ],
      "name": "cancel",
      "outputs": [
        {
          "internalType": "uint256",
          "name": "",
          "type": "uint256"
        }
      ],
      "stateMutability": "nonpayable",
      "type": "function"
    },
    {
      "inputs": [
        {
          "internalType": "uint256",
          "name": "proposalId",
          "type": "uint256"
        },
        {
          "internalType": "uint8",
          "name": "support",
          "type": "uint8"
        }
      ],
      "name": "castVote",
      "outputs": [
        {
          "internalType": "uint256",
          "name": "",
          "type": "uint256"
        }
      ],
      "stateMutability": "nonpayable",
      "type": "function"
    },
    {
      "inputs": [
        {
          "internalType": "uint256",
          "name": "proposalId",
          "type": "uint256"
        },
        {
          "internalType": "uint8",
          "name": "support",
          "type": "uint8"
        },
        {
          "internalType": "uint8",
          "name": "v",
          "type": "uint8"
        },
        {
          "internalType": "bytes32",
          "name": "r",
          "type": "bytes32"
        },
        {
          "internalType": "bytes32",
          "name": "s",
          "type": "bytes32"
        }
      ],
      "name": "castVoteBySig",
      "outputs": [
        {
          "internalType": "uint256",
          "name": "",
          "type": "uint256"
        }
      ],
      "stateMutability": "nonpayable",
      "type": "function"
    },
    {
      "inputs": [
        {
          "internalType": "uint256",
          "name": "proposalId",
          "type": "uint256"
        },
        {
          "internalType": "uint8",
          "name": "support",
          "type": "uint8"
        },
        {
          "internalType": "string",
          "name": "reason",
          "type": "string"
        }
      ],
      "name": "castVoteWithReason",
      "outputs": [
        {
          "internalType": "uint256",
          "name": "",
          "type": "uint256"
        }
      ],
      "stateMutability": "nonpayable",
      "type": "function"
    },
    {
      "inputs": [
        {
          "internalType": "uint256",
          "name": "proposalId",
          "type": "uint256"
        },
        {
          "internalType": "uint8",
          "name": "support",
          "type": "uint8"
        },
        {
          "internalType": "string",
          "name": "reason",
          "type": "string"
        },
        {
          "internalType": "bytes",
          "name": "params",
          "type": "bytes"
        }
      ],
      "name": "castVoteWithReasonAndParams",
      "outputs": [
        {
          "internalType": "uint256",
          "name": "",
          "type": "uint256"
        }
      ],
      "stateMutability": "nonpayable",
      "type": "function"
    },
    {
      "inputs": [
        {
          "internalType": "uint256",
          "name": "proposalId",
          "type": "uint256"
        },
        {
          "internalType": "uint8",
          "name": "support",
          "type": "uint8"
        },
        {
          "internalType": "string",
          "name": "reason",
          "type": "string"
        },
        {
          "internalType": "bytes",
          "name": "params",
          "type": "bytes"
        },
        {
          "internalType": "uint8",
          "name": "v",
          "type": "uint8"
        },
        {
          "internalType": "bytes32",
          "name": "r",
          "type": "bytes32"
        },
        {
          "internalType": "bytes32",
          "name": "s",
          "type": "bytes32"
        }
      ],
      "name": "castVoteWithReasonAndParamsBySig",
      "outputs": [
        {
          "internalType": "uint256",
          "name": "",
          "type": "uint256"
        }
      ],
      "stateMutability": "nonpayable",
      "type": "function"
    },
    {
      "inputs": [],
      "name": "clock",
      "outputs": [
        {
          "internalType": "uint48",
          "name": "",
          "type": "uint48"
        }
      ],
      "stateMutability": "view",
      "type": "function"
    },
    {
      "inputs": [],
      "name": "eip712Domain",
      "outputs": [
        {
          "internalType": "bytes1",
          "name": "fields",
          "type": "bytes1"
        },
        {
          "internalType": "string",
          "name": "name",
          "type": "string"
        },
        {
          "internalType": "string",
          "name": "version",
          "type": "string"
        },
        {
          "internalType": "uint256",
          "name": "chainId",
          "type": "uint256"
        },
        {
          "internalType": "address",
          "name": "verifyingContract",
          "type": "address"
        },
        {
          "internalType": "bytes32",
          "name": "salt",
          "type": "bytes32"
        },
        {
          "internalType": "uint256[]",
          "name": "extensions",
          "type": "uint256[]"
        }
      ],
      "stateMutability": "view",
      "type": "function"
    },
    {
      "inputs": [
        {
          "internalType": "address[]",
          "name": "targets",
          "type": "address[]"
        },
        {
          "internalType": "uint256[]",
          "name": "values",
          "type": "uint256[]"
        },
        {
          "internalType": "bytes[]",
          "name": "calldatas",
          "type": "bytes[]"
        },
        {
          "internalType": "bytes32",
          "name": "descriptionHash",
          "type": "bytes32"
        }
      ],
      "name": "execute",
      "outputs": [
        {
          "internalType": "uint256",
          "name": "",
          "type": "uint256"
        }
      ],
      "stateMutability": "payable",
      "type": "function"
    },
    {
      "inputs": [
        {
          "internalType": "address",
          "name": "account",
          "type": "address"
        },
        {
          "internalType": "uint256",
          "name": "timepoint",
          "type": "uint256"
        }
      ],
      "name": "getVotes",
      "outputs": [
        {
          "internalType": "uint256",
          "name": "",
          "type": "uint256"
        }
      ],
      "stateMutability": "view",
      "type": "function"
    },
    {
      "inputs": [
        {
          "internalType": "address",
          "name": "account",
          "type": "address"
        },
        {
          "internalType": "uint256",
          "name": "timepoint",
          "type": "uint256"
        },
        {
          "internalType": "bytes",
          "name": "params",
          "type": "bytes"
        }
      ],
      "name": "getVotesWithParams",
      "outputs": [
        {
          "internalType": "uint256",
          "name": "",
          "type": "uint256"
        }
      ],
      "stateMutability": "view",
      "type": "function"
    },
    {
      "inputs": [
        {
          "internalType": "uint256",
          "name": "proposalId",
          "type": "uint256"
        },
        {
          "internalType": "address",
          "name": "account",
          "type": "address"
        }
      ],
      "name": "hasVoted",
      "outputs": [
        {
          "internalType": "bool",
          "name": "",
          "type": "bool"
        }
      ],
      "stateMutability": "view",
      "type": "function"
    },
    {
      "inputs": [
        {
          "internalType": "address[]",
          "name": "targets",
          "type": "address[]"
        },
        {
          "internalType": "uint256[]",
          "name": "values",
          "type": "uint256[]"
        },
        {
          "internalType": "bytes[]",
          "name": "calldatas",
          "type": "bytes[]"
        },
        {
          "internalType": "bytes32",
          "name": "descriptionHash",
          "type": "bytes32"
        }
      ],
      "name": "hashProposal",
      "outputs": [
        {
          "internalType": "uint256",
          "name": "",
          "type": "uint256"
        }
      ],
      "stateMutability": "pure",
      "type": "function"
    },
    {
      "inputs": [
        {
          "internalType": "contract IVotesUpgradeable",
          "name": "_token",
          "type": "address"
        }
      ],
      "name": "initialize",
      "outputs": [],
      "stateMutability": "nonpayable",
      "type": "function"
    },
    {
      "inputs": [],
      "name": "name",
      "outputs": [
        {
          "internalType": "string",
          "name": "",
          "type": "string"
        }
      ],
      "stateMutability": "view",
      "type": "function"
    },
    {
      "inputs": [
        {
          "internalType": "address",
          "name": "",
          "type": "address"
        },
        {
          "internalType": "address",
          "name": "",
          "type": "address"
        },
        {
          "internalType": "uint256[]",
          "name": "",
          "type": "uint256[]"
        },
        {
          "internalType": "uint256[]",
          "name": "",
          "type": "uint256[]"
        },
        {
          "internalType": "bytes",
          "name": "",
          "type": "bytes"
        }
      ],
      "name": "onERC1155BatchReceived",
      "outputs": [
        {
          "internalType": "bytes4",
          "name": "",
          "type": "bytes4"
        }
      ],
      "stateMutability": "nonpayable",
      "type": "function"
    },
    {
      "inputs": [
        {
          "internalType": "address",
          "name": "",
          "type": "address"
        },
        {
          "internalType": "address",
          "name": "",
          "type": "address"
        },
        {
          "internalType": "uint256",
          "name": "",
          "type": "uint256"
        },
        {
          "internalType": "uint256",
          "name": "",
          "type": "uint256"
        },
        {
          "internalType": "bytes",
          "name": "",
          "type": "bytes"
        }
      ],
      "name": "onERC1155Received",
      "outputs": [
        {
          "internalType": "bytes4",
          "name": "",
          "type": "bytes4"
        }
      ],
      "stateMutability": "nonpayable",
      "type": "function"
    },
    {
      "inputs": [
        {
          "internalType": "address",
          "name": "",
          "type": "address"
        },
        {
          "internalType": "address",
          "name": "",
          "type": "address"
        },
        {
          "internalType": "uint256",
          "name": "",
          "type": "uint256"
        },
        {
          "internalType": "bytes",
          "name": "",
          "type": "bytes"
        }
      ],
      "name": "onERC721Received",
      "outputs": [
        {
          "internalType": "bytes4",
          "name": "",
          "type": "bytes4"
        }
      ],
      "stateMutability": "nonpayable",
      "type": "function"
    },
    {
      "inputs": [
        {
          "internalType": "uint256",
          "name": "proposalId",
          "type": "uint256"
        }
      ],
      "name": "proposalDeadline",
      "outputs": [
        {
          "internalType": "uint256",
          "name": "",
          "type": "uint256"
        }
      ],
      "stateMutability": "view",
      "type": "function"
    },
    {
      "inputs": [
        {
          "internalType": "uint256",
          "name": "proposalId",
          "type": "uint256"
        }
      ],
      "name": "proposalProposer",
      "outputs": [
        {
          "internalType": "address",
          "name": "",
          "type": "address"
        }
      ],
      "stateMutability": "view",
      "type": "function"
    },
    {
      "inputs": [
        {
          "internalType": "uint256",
          "name": "proposalId",
          "type": "uint256"
        }
      ],
      "name": "proposalSnapshot",
      "outputs": [
        {
          "internalType": "uint256",
          "name": "",
          "type": "uint256"
        }
      ],
      "stateMutability": "view",
      "type": "function"
    },
    {
      "inputs": [],
      "name": "proposalThreshold",
      "outputs": [
        {
          "internalType": "uint256",
          "name": "",
          "type": "uint256"
        }
      ],
      "stateMutability": "view",
      "type": "function"
    },
    {
      "inputs": [
        {
          "internalType": "uint256",
          "name": "proposalId",
          "type": "uint256"
        }
      ],
      "name": "proposalVotes",
      "outputs": [
        {
          "internalType": "uint256",
          "name": "againstVotes",
          "type": "uint256"
        },
        {
          "internalType": "uint256",
          "name": "forVotes",
          "type": "uint256"
        },
        {
          "internalType": "uint256",
          "name": "abstainVotes",
          "type": "uint256"
        }
      ],
      "stateMutability": "view",
      "type": "function"
    },
    {
      "inputs": [
        {
          "internalType": "address[]",
          "name": "targets",
          "type": "address[]"
        },
        {
          "internalType": "uint256[]",
          "name": "values",
          "type": "uint256[]"
        },
        {
          "internalType": "bytes[]",
          "name": "calldatas",
          "type": "bytes[]"
        },
        {
          "internalType": "string",
          "name": "description",
          "type": "string"
        }
      ],
      "name": "propose",
      "outputs": [
        {
          "internalType": "uint256",
          "name": "",
          "type": "uint256"
        }
      ],
      "stateMutability": "nonpayable",
      "type": "function"
    },
    {
      "inputs": [
        {
          "internalType": "uint256",
          "name": "blockNumber",
          "type": "uint256"
        }
      ],
      "name": "quorum",
      "outputs": [
        {
          "internalType": "uint256",
          "name": "",
          "type": "uint256"
        }
      ],
      "stateMutability": "view",
      "type": "function"
    },
    {
      "inputs": [],
      "name": "quorumDenominator",
      "outputs": [
        {
          "internalType": "uint256",
          "name": "",
          "type": "uint256"
        }
      ],
      "stateMutability": "view",
      "type": "function"
    },
    {
      "inputs": [
        {
          "internalType": "uint256",
          "name": "timepoint",
          "type": "uint256"
        }
      ],
      "name": "quorumNumerator",
      "outputs": [
        {
          "internalType": "uint256",
          "name": "",
          "type": "uint256"
        }
      ],
      "stateMutability": "view",
      "type": "function"
    },
    {
      "inputs": [],
      "name": "quorumNumerator",
      "outputs": [
        {
          "internalType": "uint256",
          "name": "",
          "type": "uint256"
        }
      ],
      "stateMutability": "view",
      "type": "function"
    },
    {
      "inputs": [
        {
          "internalType": "address",
          "name": "target",
          "type": "address"
        },
        {
          "internalType": "uint256",
          "name": "value",
          "type": "uint256"
        },
        {
          "internalType": "bytes",
          "name": "data",
          "type": "bytes"
        }
      ],
      "name": "relay",
      "outputs": [],
      "stateMutability": "payable",
      "type": "function"
    },
    {
      "inputs": [
        {
          "internalType": "uint256",
          "name": "newProposalThreshold",
          "type": "uint256"
        }
      ],
      "name": "setProposalThreshold",
      "outputs": [],
      "stateMutability": "nonpayable",
      "type": "function"
    },
    {
      "inputs": [
        {
          "internalType": "uint256",
          "name": "newVotingDelay",
          "type": "uint256"
        }
      ],
      "name": "setVotingDelay",
      "outputs": [],
      "stateMutability": "nonpayable",
      "type": "function"
    },
    {
      "inputs": [
        {
          "internalType": "uint256",
          "name": "newVotingPeriod",
          "type": "uint256"
        }
      ],
      "name": "setVotingPeriod",
      "outputs": [],
      "stateMutability": "nonpayable",
      "type": "function"
    },
    {
      "inputs": [
        {
          "internalType": "uint256",
          "name": "proposalId",
          "type": "uint256"
        }
      ],
      "name": "state",
      "outputs": [
        {
          "internalType": "enum IGovernorUpgradeable.ProposalState",
          "name": "",
          "type": "uint8"
        }
      ],
      "stateMutability": "view",
      "type": "function"
    },
    {
      "inputs": [
        {
          "internalType": "bytes4",
          "name": "interfaceId",
          "type": "bytes4"
        }
      ],
      "name": "supportsInterface",
      "outputs": [
        {
          "internalType": "bool",
          "name": "",
          "type": "bool"
        }
      ],
      "stateMutability": "view",
      "type": "function"
    },
    {
      "inputs": [],
      "name": "token",
      "outputs": [
        {
          "internalType": "contract IERC5805Upgradeable",
          "name": "",
          "type": "address"
        }
      ],
      "stateMutability": "view",
      "type": "function"
    },
    {
      "inputs": [
        {
          "internalType": "uint256",
          "name": "newQuorumNumerator",
          "type": "uint256"
        }
      ],
      "name": "updateQuorumNumerator",
      "outputs": [],
      "stateMutability": "nonpayable",
      "type": "function"
    },
    {
      "inputs": [],
      "name": "version",
      "outputs": [
        {
          "internalType": "string",
          "name": "",
          "type": "string"
        }
      ],
      "stateMutability": "view",
      "type": "function"
    },
    {
      "inputs": [],
      "name": "votingDelay",
      "outputs": [
        {
          "internalType": "uint256",
          "name": "",
          "type": "uint256"
        }
      ],
      "stateMutability": "view",
      "type": "function"
    },
    {
      "inputs": [],
      "name": "votingPeriod",
      "outputs": [
        {
          "internalType": "uint256",
          "name": "",
          "type": "uint256"
        }
      ],
      "stateMutability": "view",
      "type": "function"
    },
    {
      "stateMutability": "payable",
      "type": "receive"
    }
  ],
  "bytecode": "0x60806040523480156200001157600080fd5b506200001c62000022565b620000e3565b600054610100900460ff16156200008f5760405162461bcd60e51b815260206004820152602760248201527f496e697469616c697a61626c653a20636f6e747261637420697320696e697469604482015266616c697a696e6760c81b606482015260840160405180910390fd5b60005460ff90811614620000e1576000805460ff191660ff9081179091556040519081527f7f26b83ff96e1f2b6a682f133852f6798a09c465da95921460cefb38474024989060200160405180910390a15b565b61415580620000f36000396000f3fe6080604052600436106101f05760003560e01c806301ffc9a71461020757806302a251a31461023c578063034201811461025f57806306f3f9e61461027f57806306fdde031461029f578063143489d0146102c1578063150b7a02146103165780632656227d1461035a5780632d63f6931461036d5780632fe3e2611461038d5780633932abb1146103af5780633bccf4fd146103c45780633e4f49e6146103e45780634385963214610411578063452115d6146104315780634bf5d7e914610451578063544ffc9c1461046657806354fd4d50146104bc57806356781388146104d15780635f398a14146104f157806360c4247f1461051157806370b0f660146105315780637b3c71d3146105515780637d5e81e21461057157806384b0196e1461059157806391ddadf4146105b957806397c3d334146105e55780639a802a6d146105f9578063a7713a7014610619578063b58131b01461062e578063bc197c8114610643578063c01f9e371461066f578063c28bc2fa1461068f578063c4d66de8146106a2578063c59057e4146106c2578063dd4e2ba5146106e2578063deaaa7cc14610728578063ea0217cf1461074a578063eb9019d41461076a578063ece40cc11461078a578063f23a6e61146107aa578063f8ce560a146107d6578063fc0c546a146107f657600080fd5b3661020257005b60405180910390fd5b005b600080fd5b34801561021357600080fd5b50610227610222366004613202565b610817565b60405190151581526020015b60405180910390f35b34801561024857600080fd5b506102516108b4565b604051908152602001610233565b34801561026b57600080fd5b5061025161027a366004613350565b6108c4565b34801561028b57600080fd5b5061020061029a3660046133f6565b6109aa565b3480156102ab57600080fd5b506102b46109f1565b604051610233919061346b565b3480156102cd57600080fd5b506102fe6102dc3660046133f6565b600090815260cc6020526040902054600160401b90046001600160a01b031690565b6040516001600160a01b039091168152602001610233565b34801561032257600080fd5b50610341610331366004613493565b630a85bd0160e11b949350505050565b6040516001600160e01b03199091168152602001610233565b61025161036836600461366a565b610a83565b34801561037957600080fd5b506102516103883660046133f6565b610baf565b34801561039957600080fd5b5061025160008051602061410283398151915281565b3480156103bb57600080fd5b50610251610bca565b3480156103d057600080fd5b506102516103df3660046136f9565b610bd5565b3480156103f057600080fd5b506104046103ff3660046133f6565b610c39565b604051610233919061375d565b34801561041d57600080fd5b5061022761042c366004613785565b610d5e565b34801561043d57600080fd5b5061025161044c36600461366a565b610d8f565b34801561045d57600080fd5b506102b4610e95565b34801561047257600080fd5b506104a16104813660046133f6565b600090815261012f60205260409020805460018201546002909201549092565b60408051938452602084019290925290820152606001610233565b3480156104c857600080fd5b506102b4610f42565b3480156104dd57600080fd5b506102516104ec3660046137b5565b610f5d565b3480156104fd57600080fd5b5061025161050c3660046137e1565b610f86565b34801561051d57600080fd5b5061025161052c3660046133f6565b610fd0565b34801561053d57600080fd5b5061020061054c3660046133f6565b611083565b34801561055d57600080fd5b5061025161056c366004613864565b6110c7565b34801561057d57600080fd5b5061025161058c3660046138bd565b61110f565b34801561059d57600080fd5b506105a66114e3565b60405161023397969594939291906139ac565b3480156105c557600080fd5b506105ce611581565b60405165ffffffffffff9091168152602001610233565b3480156105f157600080fd5b506064610251565b34801561060557600080fd5b50610251610614366004613a0e565b6115f5565b34801561062557600080fd5b5061025161160c565b34801561063a57600080fd5b50610251611639565b34801561064f57600080fd5b5061034161065e366004613a66565b63bc197c8160e01b95945050505050565b34801561067b57600080fd5b5061025161068a3660046133f6565b611644565b61020061069d366004613af9565b611662565b3480156106ae57600080fd5b506102006106bd366004613b3c565b61172e565b3480156106ce57600080fd5b506102516106dd36600461366a565b611896565b3480156106ee57600080fd5b506040805180820190915260208082527f737570706f72743d627261766f2671756f72756d3d666f722c6162737461696e908201526102b4565b34801561073457600080fd5b506102516000805160206140e283398151915281565b34801561075657600080fd5b506102006107653660046133f6565b6118d0565b34801561077657600080fd5b50610251610785366004613b59565b611914565b34801561079657600080fd5b506102006107a53660046133f6565b611935565b3480156107b657600080fd5b506103416107c5366004613b85565b63f23a6e6160e01b95945050505050565b3480156107e257600080fd5b506102516107f13660046133f6565b611979565b34801561080257600080fd5b50610161546102fe906001600160a01b031681565b600063288ace0360e11b6318df743f60e31b63bf26d89760e01b6379dd796f60e01b6001600160e01b0319861682148061085d57506001600160e01b0319868116908216145b8061087457506001600160e01b0319868116908516145b8061088f57506001600160e01b03198616630271189760e51b145b806108aa57506301ffc9a760e01b6001600160e01b03198716145b9695505050505050565b60006108bf60fe5490565b905090565b60008061095661094e6000805160206141028339815191528c8c8c8c6040516108ee929190613bed565b60405180910390208b80519060200120604051602001610933959493929190948552602085019390935260ff9190911660408401526060830152608082015260a00190565b60405160208183030381529060405280519060200120611984565b8686866119b1565b905061099c8a828b8b8b8080601f0160208091040260200160405190810160405280939291908181526020018383808284376000920191909152508d92506119cf915050565b9a9950505050505050505050565b3330146109c95760405162461bcd60e51b81526004016101f790613bfd565b6109e5565b806109d960cd611b21565b146109e3576109ce565b505b6109ee81611b97565b50565b606060cb8054610a0090613c2f565b80601f0160208091040260200160405190810160405280929190818152602001828054610a2c90613c2f565b8015610a795780601f10610a4e57610100808354040283529160200191610a79565b820191906000526020600020905b815481529060010190602001808311610a5c57829003601f168201915b5050505050905090565b600080610a9286868686611896565b90506000610a9f82610c39565b90506004816007811115610ab557610ab5613747565b1480610ad257506005816007811115610ad057610ad0613747565b145b610b285760405162461bcd60e51b815260206004820152602160248201527f476f7665726e6f723a2070726f706f73616c206e6f74207375636365737366756044820152601b60fa1b60648201526084016101f7565b600082815260cc602052604090819020600201805460ff19166001179055517f712ae1383f79ac853f8d882153778e0260ef8f03b504e2866e0593e04d2b291f90610b769084815260200190565b60405180910390a1610b8b8288888888611cfc565b610b988288888888611d8a565b610ba58288888888611cfc565b5095945050505050565b600090815260cc60205260409020546001600160401b031690565b60006108bf60fd5490565b604080516000805160206140e2833981519152602082015290810186905260ff851660608201526000908190610c119061094e90608001610933565b9050610c2e87828860405180602001604052806000815250611e80565b979650505050505050565b600081815260cc60205260408120600281015460ff1615610c5d5750600792915050565b6002810154610100900460ff1615610c785750600292915050565b6000610c8384610baf565b905080610cd25760405162461bcd60e51b815260206004820152601d60248201527f476f7665726e6f723a20756e6b6e6f776e2070726f706f73616c20696400000060448201526064016101f7565b6000610cdc611581565b65ffffffffffff169050808210610cf857506000949350505050565b6000610d0386611644565b9050818110610d185750600195945050505050565b610d2186611eac565b8015610d415750600086815261012f602052604090208054600190910154115b15610d525750600495945050505050565b50600395945050505050565b600082815261012f602090815260408083206001600160a01b038516845260030190915290205460ff165b92915050565b600080610d9e86868686611896565b90506000610dab82610c39565b6007811115610dbc57610dbc613747565b14610e085760405162461bcd60e51b815260206004820152601c60248201527b11dbdd995c9b9bdc8e881d1bdbc81b185d19481d1bc818d85b98d95b60221b60448201526064016101f7565b600081815260cc6020526040902054600160401b90046001600160a01b0316336001600160a01b031614610e895760405162461bcd60e51b815260206004820152602260248201527f476f7665726e6f723a206f6e6c792070726f706f7365722063616e2063616e63604482015261195b60f21b60648201526084016101f7565b6108aa86868686611ee4565b6101615460408051634bf5d7e960e01b815290516060926001600160a01b031691634bf5d7e99160048083019260009291908290030181865afa925050508015610f0157506040513d6000823e601f3d908101601f19168201604052610efe9190810190613c6a565b60015b610f3d575060408051808201909152601d81527f6d6f64653d626c6f636b6e756d6265722666726f6d3d64656661756c74000000602082015290565b919050565b6040805180820190915260018152603160f81b602082015290565b600080339050610f7e84828560405180602001604052806000815250611e80565b949350505050565b600080339050610c2e87828888888080601f0160208091040260200160405190810160405280939291908181526020018383808284376000920191909152508a92506119cf915050565b6101955460009080610fe757505061019454919050565b6000610195610ff7600184613ced565b8154811061100757611007613d04565b60009182526020918290206040805180820190915291015463ffffffff8116808352600160201b9091046001600160e01b0316928201929092529150841061105d57602001516001600160e01b03169392505050565b61107261106985612002565b6101959061206b565b6001600160e01b0316949350505050565b3330146110a25760405162461bcd60e51b81526004016101f790613bfd565b6110be565b806110b260cd611b21565b146110bc576110a7565b505b6109ee8161211e565b6000803390506108aa86828787878080601f016020809104026020016040519081016040528093929190818152602001838380828437600092019190915250611e8092505050565b60003361111c818461215e565b6111685760405162461bcd60e51b815260206004820152601d60248201527f476f7665726e6f723a2070726f706f736572207265737472696374656400000060448201526064016101f7565b6000611172611581565b65ffffffffffff169050611184611639565b61119383610785600185613ced565b10156111fb5760405162461bcd60e51b815260206004820152603160248201527f476f7665726e6f723a2070726f706f73657220766f7465732062656c6f7720706044820152701c9bdc1bdcd85b081d1a1c995cda1bdb19607a1b60648201526084016101f7565b60006112108888888880519060200120611896565b905086518851146112335760405162461bcd60e51b81526004016101f790613d1a565b85518851146112545760405162461bcd60e51b81526004016101f790613d1a565b60008851116112a05760405162461bcd60e51b815260206004820152601860248201527711dbdd995c9b9bdc8e88195b5c1d1e481c1c9bdc1bdcd85b60421b60448201526064016101f7565b600081815260cc60205260409020546001600160401b03161561130f5760405162461bcd60e51b815260206004820152602160248201527f476f7665726e6f723a2070726f706f73616c20616c72656164792065786973746044820152607360f81b60648201526084016101f7565b6000611319610bca565b6113239084613d5b565b9050600061132f6108b4565b6113399083613d5b565b90506040518060e0016040528061134f8461224f565b6001600160401b031681526001600160a01b03871660208201526000604082015260600161137c8361224f565b6001600160401b039081168252600060208084018290526040808501839052606094850183905288835260cc8252918290208551815492870151878501519186166001600160e01b031990941693909317600160401b6001600160a01b039094168402176001600160e01b0316600160e01b60e09290921c91909102178155938501516080860151908416921c0217600183015560a08301516002909201805460c09094015161ffff1990941692151561ff00191692909217610100931515939093029290921790558a517f7d84a6263ae0d98d3329bd7b46bb4e8d6f98cd35a7adb45c274c8b7fd5ebd5e091859188918e918e9181111561148057611480613285565b6040519080825280602002602001820160405280156114b357816020015b606081526020019060019003908161149e5790505b508d88888f6040516114cd99989796959493929190613e01565b60405180910390a1509098975050505050505050565b6000606080600080600060606065546000801b1480156115035750606654155b6115475760405162461bcd60e51b81526020600482015260156024820152741152540dcc4c8e88155b9a5b9a5d1a585b1a5e9959605a1b60448201526064016101f7565b61154f6122b7565b6115576122c6565b60408051600080825260208201909252600f60f81b9b939a50919850469750309650945092509050565b61016154604080516324776b7d60e21b815290516000926001600160a01b0316916391ddadf49160048083019260209291908290030181865afa9250505080156115e8575060408051601f3d908101601f191682019092526115e591810190613ed8565b60015b610f3d576108bf436122d5565b600061160284848461233c565b90505b9392505050565b6101955460009015611631576116236101956123b3565b6001600160e01b0316905090565b506101945490565b60006108bf60ff5490565b600090815260cc60205260409020600101546001600160401b031690565b3330146116815760405162461bcd60e51b81526004016101f790613bfd565b61169d565b8061169160cd611b21565b1461169b57611686565b505b600080856001600160a01b03168585856040516116bb929190613bed565b60006040518083038185875af1925050503d80600081146116f8576040519150601f19603f3d011682016040523d82523d6000602084013e6116fd565b606091505b509150915061172582826040518060600160405280602881526020016140ba602891396123ec565b50505050505050565b600054610100900460ff161580801561174e5750600054600160ff909116105b806117685750303b158015611768575060005460ff166001145b6117cb5760405162461bcd60e51b815260206004820152602e60248201527f496e697469616c697a61626c653a20636f6e747261637420697320616c72656160448201526d191e481a5b9a5d1a585b1a5e995960921b60648201526084016101f7565b6000805460ff1916600117905580156117ee576000805461ff0019166101001790555b61182060405180604001604052806011815260200170242b20ac2b37ba32b923b7bb32b93737b960791b815250612405565b611830610e1061c4e06001612446565b61183861247d565b611841826124a6565b61184b60046124d6565b8015611892576000805461ff0019169055604051600181527f7f26b83ff96e1f2b6a682f133852f6798a09c465da95921460cefb3847402498906020015b60405180910390a15b5050565b6000848484846040516020016118af9493929190613f00565b60408051601f19818403018152919052805160209091012095945050505050565b3330146118ef5760405162461bcd60e51b81526004016101f790613bfd565b61190b565b806118ff60cd611b21565b14611909576118f4565b505b6109ee81612506565b6000611605838361193060408051602081019091526000815290565b61233c565b3330146119545760405162461bcd60e51b81526004016101f790613bfd565b611970565b8061196460cd611b21565b1461196e57611959565b505b6109ee816125a6565b6000610d89826125e6565b6000610d89611991612675565b8360405161190160f01b8152600281019290925260228201526042902090565b60008060006119c28787878761267f565b91509150610ba581612739565b600085815260cc6020526040812060016119e888610c39565b60078111156119f9576119f9613747565b14611a525760405162461bcd60e51b815260206004820152602360248201527f476f7665726e6f723a20766f7465206e6f742063757272656e746c792061637460448201526269766560e81b60648201526084016101f7565b8054600090611a6c9088906001600160401b03168661233c565b9050611a7b8888888488612882565b8351611acd57866001600160a01b03167fb8e138887d0aa13bab447e82de9d5c1777041ecd21ca36ba824ff1e6c07ddda489888489604051611ac09493929190613f4b565b60405180910390a2610c2e565b866001600160a01b03167fe2babfbac5889a709b63bb7f598b324e08bc5a4fb9ec647fb3cbc9ec07eb87128988848989604051611b0e959493929190613f73565b60405180910390a2979650505050505050565b6000611b3c8254600f81810b600160801b909204900b131590565b15611b5a57604051631ed9509560e11b815260040160405180910390fd5b508054600f0b6000818152600180840160205260408220805492905583546001600160801b03191692016001600160801b03169190911790915590565b6064811115611c1a5760405162461bcd60e51b815260206004820152604360248201527f476f7665726e6f72566f74657351756f72756d4672616374696f6e3a2071756f60448201527f72756d4e756d657261746f72206f7665722071756f72756d44656e6f6d696e616064820152623a37b960e91b608482015260a4016101f7565b6000611c2461160c565b90508015801590611c36575061019554155b15611c9b5760408051808201909152600081526101959060208101611c5a84612a02565b6001600160e01b039081169091528254600181018455600093845260209384902083519490930151909116600160201b0263ffffffff909316929092179101555b611cc9611cb6611ca9611581565b65ffffffffffff16612002565b611cbf84612a02565b6101959190612a6b565b50507f0553476bf02ef2726e8ce5ced78d63e26e602e4a2257b1f559418e24b46339978183604051611889929190613fb9565b611d83565b8451811015611d8157306001600160a01b0316858281518110611d2657611d26613d04565b60200260200101516001600160a01b03161415611d7157611d71838281518110611d5257611d52613d04565b60200260200101518051906020012060cd612a8690919063ffffffff16565b611d7a81613fc7565b9050611d01565b505b5050505050565b600060405180606001604052806027815260200161412260279139905060005b855181101561172557600080878381518110611dc857611dc8613d04565b60200260200101516001600160a01b0316878481518110611deb57611deb613d04565b6020026020010151878581518110611e0557611e05613d04565b6020026020010151604051611e1a9190613fe2565b60006040518083038185875af1925050503d8060008114611e57576040519150601f19603f3d011682016040523d82523d6000602084013e611e5c565b606091505b5091509150611e6c8282866123ec565b50505080611e7990613fc7565b9050611daa565b6000611ea385858585611e9e60408051602081019091526000815290565b6119cf565b95945050505050565b600081815261012f6020526040812060028101546001820154611ecf9190613d5b565b611edb6107f185610baf565b11159392505050565b600080611ef386868686611896565b90506000611f0082610c39565b90506002816007811115611f1657611f16613747565b14158015611f3657506006816007811115611f3357611f33613747565b14155b8015611f5457506007816007811115611f5157611f51613747565b14155b611fa05760405162461bcd60e51b815260206004820152601d60248201527f476f7665726e6f723a2070726f706f73616c206e6f742061637469766500000060448201526064016101f7565b600082815260cc602052604090819020600201805461ff001916610100179055517f789cf55be980739dad1d0699b93b58e806b51c9d96619bfa8fe0a28abaa7b30c90611ff09084815260200190565b60405180910390a15095945050505050565b600063ffffffff8211156120675760405162461bcd60e51b815260206004820152602660248201527f53616665436173743a2076616c756520646f65736e27742066697420696e203360448201526532206269747360d01b60648201526084016101f7565b5090565b8154600090818160058111156120c857600061208684612ac2565b6120909085613ced565b60008881526020902090915081015463ffffffff90811690871610156120b8578091506120c6565b6120c3816001613d5b565b92505b505b60006120d687878585612ba7565b90508015612111576120fb876120ed600184613ced565b600091825260209091200190565b54600160201b90046001600160e01b0316610c2e565b6000979650505050505050565b7fc565b045403dc03c2eea82b81a0465edad9e2e7fc4d97e11421c209da93d7a9360fd5482604051612151929190613fb9565b60405180910390a160fd55565b80516000906034811015612176576001915050610d89565b82810160131901516001600160a01b031981166b046e0e4dee0dee6cae47a60f60a31b146121a957600192505050610d89565b6000806121b7602885613ced565b90505b8381101561222e576000806121ee8884815181106121da576121da613d04565b01602001516001600160f81b031916612c05565b91509150816122065760019650505050505050610d89565b8060ff166004856001600160a01b0316901b17935050508061222790613fc7565b90506121ba565b50856001600160a01b0316816001600160a01b031614935050505092915050565b60006001600160401b038211156120675760405162461bcd60e51b815260206004820152602660248201527f53616665436173743a2076616c756520646f65736e27742066697420696e203660448201526534206269747360d01b60648201526084016101f7565b606060678054610a0090613c2f565b606060688054610a0090613c2f565b600065ffffffffffff8211156120675760405162461bcd60e51b815260206004820152602660248201527f53616665436173743a2076616c756520646f65736e27742066697420696e203460448201526538206269747360d01b60648201526084016101f7565b61016154604051630748d63560e31b81526001600160a01b038581166004830152602482018590526000921690633a46b1a890604401602060405180830381865afa15801561238f573d6000803e3d6000fd5b505050506040513d601f19601f820116820180604052508101906116029190613ffe565b805460009080156123e3576123cd836120ed600184613ced565b54600160201b90046001600160e01b0316611605565b60009392505050565b606083156123fb575081611605565b6116058383612c97565b600054610100900460ff1661242c5760405162461bcd60e51b81526004016101f790614017565b61243d81612438610f42565b612cc1565b6109ee81612d1e565b600054610100900460ff1661246d5760405162461bcd60e51b81526004016101f790614017565b612478838383612d58565b505050565b600054610100900460ff166124a45760405162461bcd60e51b81526004016101f790614017565b565b600054610100900460ff166124cd5760405162461bcd60e51b81526004016101f790614017565b6109ee81612d9a565b600054610100900460ff166124fd5760405162461bcd60e51b81526004016101f790614017565b6109ee81612de4565b600081116125665760405162461bcd60e51b815260206004820152602760248201527f476f7665726e6f7253657474696e67733a20766f74696e6720706572696f6420604482015266746f6f206c6f7760c81b60648201526084016101f7565b7f7e3f7f0708a84de9203036abaa450dccc85ad5ff52f78c170f3edb55cf5e882860fe5482604051612599929190613fb9565b60405180910390a160fe55565b7fccb45da8d5717e6c4544694297c4ba5cf151d455c9bb0ed4fc7a38411bc0546160ff54826040516125d9929190613fb9565b60405180910390a160ff55565b600060646125f383610fd0565b61016154604051632394e7a360e21b8152600481018690526001600160a01b0390911690638e539e8c90602401602060405180830381865afa15801561263d573d6000803e3d6000fd5b505050506040513d601f19601f820116820180604052508101906126619190613ffe565b61266b9190614062565b610d899190614097565b60006108bf612e0b565b6000806fa2a8918ca85bafe22016d0b997e4df60600160ff1b038311156126ac5750600090506003612730565b6040805160008082526020820180845289905260ff881692820192909252606081018690526080810185905260019060a0016020604051602081039080840390855afa158015612700573d6000803e3d6000fd5b5050604051601f1901519150506001600160a01b03811661272957600060019250925050612730565b9150600090505b94509492505050565b600081600481111561274d5761274d613747565b14156127565750565b600181600481111561276a5761276a613747565b14156127b35760405162461bcd60e51b815260206004820152601860248201527745434453413a20696e76616c6964207369676e617475726560401b60448201526064016101f7565b60028160048111156127c7576127c7613747565b14156128155760405162461bcd60e51b815260206004820152601f60248201527f45434453413a20696e76616c6964207369676e6174757265206c656e6774680060448201526064016101f7565b600381600481111561282957612829613747565b14156109ee5760405162461bcd60e51b815260206004820152602260248201527f45434453413a20696e76616c6964207369676e6174757265202773272076616c604482015261756560f01b60648201526084016101f7565b600085815261012f602090815260408083206001600160a01b0388168452600381019092529091205460ff161561290b5760405162461bcd60e51b815260206004820152602760248201527f476f7665726e6f72566f74696e6753696d706c653a20766f746520616c726561604482015266191e4818d85cdd60ca1b60648201526084016101f7565b6001600160a01b03851660009081526003820160205260408120805460ff1916600117905560ff168460ff16141561295c57828160000160008282546129519190613d5b565b90915550611d819050565b60ff84166001141561297c57828160010160008282546129519190613d5b565b60ff84166002141561299c57828160020160008282546129519190613d5b565b60405162461bcd60e51b815260206004820152603560248201527f476f7665726e6f72566f74696e6753696d706c653a20696e76616c69642076616044820152746c756520666f7220656e756d20566f74655479706560581b60648201526084016101f7565b60006001600160e01b038211156120675760405162461bcd60e51b815260206004820152602760248201527f53616665436173743a2076616c756520646f65736e27742066697420696e20326044820152663234206269747360c81b60648201526084016101f7565b600080612a79858585612e7f565b915091505b935093915050565b8154600160801b90819004600f0b6000818152600180860160205260409091209390935583546001600160801b03908116939091011602179055565b600081612ad157506000919050565b60006001612ade84613023565b901c6001901b90506001818481612af757612af7614081565b048201901c90506001818481612b0f57612b0f614081565b048201901c90506001818481612b2757612b27614081565b048201901c90506001818481612b3f57612b3f614081565b048201901c90506001818481612b5757612b57614081565b048201901c90506001818481612b6f57612b6f614081565b048201901c90506001818481612b8757612b87614081565b048201901c905061160581828581612ba157612ba1614081565b046130b7565b60005b81831015612bfd576000612bbe84846130cd565b60008781526020902090915063ffffffff86169082015463ffffffff161115612be957809250612bf7565b612bf4816001613d5b565b93505b50612baa565b509392505050565b60008060f883901c602f81118015612c205750603a8160ff16105b15612c3557600194602f199091019350915050565b8060ff166040108015612c4b575060478160ff16105b15612c60576001946036199091019350915050565b8060ff166060108015612c76575060678160ff16105b15612c8b576001946056199091019350915050565b50600093849350915050565b815115612ca75781518083602001fd5b8060405162461bcd60e51b81526004016101f7919061346b565b600054610100900460ff16612ce85760405162461bcd60e51b81526004016101f790614017565b8151612cfb906067906020850190613172565b508051612d0f906068906020840190613172565b50506000606581905560665550565b600054610100900460ff16612d455760405162461bcd60e51b81526004016101f790614017565b80516118929060cb906020840190613172565b600054610100900460ff16612d7f5760405162461bcd60e51b81526004016101f790614017565b612d888361211e565b612d9182612506565b612478816125a6565b600054610100900460ff16612dc15760405162461bcd60e51b81526004016101f790614017565b61016180546001600160a01b0319166001600160a01b0392909216919091179055565b600054610100900460ff166109e55760405162461bcd60e51b81526004016101f790614017565b60007f8b73c3c69bb8fe3d512ecc4cf759cc79239f7b179b0ffacaa9a75d522b39400f612e366130e8565b612e3e613141565b60408051602081019490945283019190915260608201524660808201523060a082015260c00160405160208183030381529060405280519060200120905090565b825460009081908015612fca576000612e9d876120ed600185613ced565b60408051808201909152905463ffffffff808216808452600160201b9092046001600160e01b031660208401529192509087161015612f1c5760405162461bcd60e51b815260206004820152601b60248201527a436865636b706f696e743a2064656372656173696e67206b65797360281b60448201526064016101f7565b8563ffffffff16816000015163ffffffff161415612f6b5784612f44886120ed600186613ced565b80546001600160e01b0392909216600160201b0263ffffffff909216919091179055612fba565b6040805180820190915263ffffffff80881682526001600160e01b0380881660208085019182528b54600181018d5560008d81529190912094519151909216600160201b029216919091179101555b602001519250839150612a7e9050565b50506040805180820190915263ffffffff80851682526001600160e01b0380851660208085019182528854600181018a5560008a815291822095519251909316600160201b029190931617920191909155905081612a7e565b600080608083901c1561303857608092831c92015b604083901c1561304a57604092831c92015b602083901c1561305c57602092831c92015b601083901c1561306e57601092831c92015b600883901c1561308057600892831c92015b600483901c1561309257600492831c92015b600283901c156130a457600292831c92015b600183901c15610d895760010192915050565b60008183106130c65781611605565b5090919050565b60006130dc6002848418614097565b61160590848416613d5b565b6000806130f36122b7565b80519091501561310a578051602090910120919050565b60655480156131195792915050565b7fc5d2460186f7233c927e7db2dcc703c0e500b653ca82273b7bfad8045d85a4709250505090565b60008061314c6122c6565b805190915015613163578051602090910120919050565b60665480156131195792915050565b82805461317e90613c2f565b90600052602060002090601f0160209004810192826131a057600085556131e6565b82601f106131b957805160ff19168380011785556131e6565b828001600101855582156131e6579182015b828111156131e65782518255916020019190600101906131cb565b506120679291505b8082111561206757600081556001016131ee565b60006020828403121561321457600080fd5b81356001600160e01b03198116811461160557600080fd5b803560ff81168114610f3d57600080fd5b60008083601f84011261324f57600080fd5b5081356001600160401b0381111561326657600080fd5b60208301915083602082850101111561327e57600080fd5b9250929050565b634e487b7160e01b600052604160045260246000fd5b604051601f8201601f191681016001600160401b03811182821017156132c3576132c3613285565b604052919050565b60006001600160401b038211156132e4576132e4613285565b50601f01601f191660200190565b6000613305613300846132cb565b61329b565b905082815283838301111561331957600080fd5b828260208301376000602084830101529392505050565b600082601f83011261334157600080fd5b611605838335602085016132f2565b60008060008060008060008060e0898b03121561336c57600080fd5b8835975061337c60208a0161322c565b965060408901356001600160401b038082111561339857600080fd5b6133a48c838d0161323d565b909850965060608b01359150808211156133bd57600080fd5b506133ca8b828c01613330565b9450506133d960808a0161322c565b925060a0890135915060c089013590509295985092959890939650565b60006020828403121561340857600080fd5b5035919050565b60005b8381101561342a578181015183820152602001613412565b83811115613439576000848401525b50505050565b6000815180845261345781602086016020860161340f565b601f01601f19169290920160200192915050565b602081526000611605602083018461343f565b6001600160a01b03811681146109ee57600080fd5b600080600080608085870312156134a957600080fd5b84356134b48161347e565b935060208501356134c48161347e565b92506040850135915060608501356001600160401b038111156134e657600080fd5b6134f287828801613330565b91505092959194509250565b60006001600160401b0382111561351757613517613285565b5060051b60200190565b600082601f83011261353257600080fd5b81356020613542613300836134fe565b82815260059290921b8401810191818101908684111561356157600080fd5b8286015b848110156135855780356135788161347e565b8352918301918301613565565b509695505050505050565b600082601f8301126135a157600080fd5b813560206135b1613300836134fe565b82815260059290921b840181019181810190868411156135d057600080fd5b8286015b8481101561358557803583529183019183016135d4565b600082601f8301126135fc57600080fd5b8135602061360c613300836134fe565b82815260059290921b8401810191818101908684111561362b57600080fd5b8286015b848110156135855780356001600160401b0381111561364e5760008081fd5b61365c8986838b0101613330565b84525091830191830161362f565b6000806000806080858703121561368057600080fd5b84356001600160401b038082111561369757600080fd5b6136a388838901613521565b955060208701359150808211156136b957600080fd5b6136c588838901613590565b945060408701359150808211156136db57600080fd5b506136e8878288016135eb565b949793965093946060013593505050565b600080600080600060a0868803121561371157600080fd5b853594506137216020870161322c565b935061372f6040870161322c565b94979396509394606081013594506080013592915050565b634e487b7160e01b600052602160045260246000fd5b602081016008831061377f57634e487b7160e01b600052602160045260246000fd5b91905290565b6000806040838503121561379857600080fd5b8235915060208301356137aa8161347e565b809150509250929050565b600080604083850312156137c857600080fd5b823591506137d86020840161322c565b90509250929050565b6000806000806000608086880312156137f957600080fd5b853594506138096020870161322c565b935060408601356001600160401b038082111561382557600080fd5b61383189838a0161323d565b9095509350606088013591508082111561384a57600080fd5b5061385788828901613330565b9150509295509295909350565b6000806000806060858703121561387a57600080fd5b8435935061388a6020860161322c565b925060408501356001600160401b038111156138a557600080fd5b6138b18782880161323d565b95989497509550505050565b600080600080608085870312156138d357600080fd5b84356001600160401b03808211156138ea57600080fd5b6138f688838901613521565b9550602087013591508082111561390c57600080fd5b61391888838901613590565b9450604087013591508082111561392e57600080fd5b61393a888389016135eb565b9350606087013591508082111561395057600080fd5b508501601f8101871361396257600080fd5b6134f2878235602084016132f2565b600081518084526020808501945080840160005b838110156139a157815187529582019590820190600101613985565b509495945050505050565b60ff60f81b8816815260e0602082015260006139cb60e083018961343f565b82810360408401526139dd818961343f565b606084018890526001600160a01b038716608085015260a0840186905283810360c0850152905061099c8185613971565b600080600060608486031215613a2357600080fd5b8335613a2e8161347e565b92506020840135915060408401356001600160401b03811115613a5057600080fd5b613a5c86828701613330565b9150509250925092565b600080600080600060a08688031215613a7e57600080fd5b8535613a898161347e565b94506020860135613a998161347e565b935060408601356001600160401b0380821115613ab557600080fd5b613ac189838a01613590565b94506060880135915080821115613ad757600080fd5b613ae389838a01613590565b9350608088013591508082111561384a57600080fd5b60008060008060608587031215613b0f57600080fd5b8435613b1a8161347e565b93506020850135925060408501356001600160401b038111156138a557600080fd5b600060208284031215613b4e57600080fd5b81356116058161347e565b60008060408385031215613b6c57600080fd5b8235613b778161347e565b946020939093013593505050565b600080600080600060a08688031215613b9d57600080fd5b8535613ba88161347e565b94506020860135613bb88161347e565b9350604086013592506060860135915060808601356001600160401b03811115613be157600080fd5b61385788828901613330565b8183823760009101908152919050565b602080825260189082015277476f7665726e6f723a206f6e6c79476f7665726e616e636560401b604082015260600190565b600181811c90821680613c4357607f821691505b60208210811415613c6457634e487b7160e01b600052602260045260246000fd5b50919050565b600060208284031215613c7c57600080fd5b81516001600160401b03811115613c9257600080fd5b8201601f81018413613ca357600080fd5b8051613cb1613300826132cb565b818152856020838501011115613cc657600080fd5b611ea382602083016020860161340f565b634e487b7160e01b600052601160045260246000fd5b600082821015613cff57613cff613cd7565b500390565b634e487b7160e01b600052603260045260246000fd5b60208082526021908201527f476f7665726e6f723a20696e76616c69642070726f706f73616c206c656e67746040820152600d60fb1b606082015260800190565b60008219821115613d6e57613d6e613cd7565b500190565b600081518084526020808501945080840160005b838110156139a15781516001600160a01b031687529582019590820190600101613d87565b600081518084526020808501808196508360051b8101915082860160005b85811015613df4578284038952613de284835161343f565b98850198935090840190600101613dca565b5091979650505050505050565b60006101208b8352602060018060a01b038c1681850152816040850152613e2a8285018c613d73565b91508382036060850152613e3e828b613971565b915083820360808501528189518084528284019150828160051b850101838c0160005b83811015613e8f57601f19878403018552613e7d83835161343f565b94860194925090850190600101613e61565b505086810360a0880152613ea3818c613dac565b9450505050508560c08401528460e0840152828103610100840152613ec8818561343f565b9c9b505050505050505050505050565b600060208284031215613eea57600080fd5b815165ffffffffffff8116811461160557600080fd5b608081526000613f136080830187613d73565b8281036020840152613f258187613971565b90508281036040840152613f398186613dac565b91505082606083015295945050505050565b84815260ff841660208201528260408201526080606082015260006108aa608083018461343f565b85815260ff8516602082015283604082015260a060608201526000613f9b60a083018561343f565b8281036080840152613fad818561343f565b98975050505050505050565b918252602082015260400190565b6000600019821415613fdb57613fdb613cd7565b5060010190565b60008251613ff481846020870161340f565b9190910192915050565b60006020828403121561401057600080fd5b5051919050565b6020808252602b908201527f496e697469616c697a61626c653a20636f6e7472616374206973206e6f74206960408201526a6e697469616c697a696e6760a81b606082015260800190565b600081600019048311821515161561407c5761407c613cd7565b500290565b634e487b7160e01b600052601260045260246000fd5b6000826140b457634e487b7160e01b600052601260045260246000fd5b50049056fe476f7665726e6f723a2072656c617920726576657274656420776974686f7574206d657373616765150214d74d59b7d1e90c73fc22ef3d991dd0a76b046543d4d80ab92d2a50328fb3b3f3b703cd84ce352197dcff232b1b5d3cfb2025ce47cf04742d0651f1af88476f7665726e6f723a2063616c6c20726576657274656420776974686f7574206d657373616765a164736f6c634300080c000a",
  "linkReferences": {},
  "deployedLinkReferences": {}
}