{
  "_format": "hh-sol-artifact-1",
  "contractName": "HVAXVoterCard",
  "sourceName": "contracts/HVAXVoterCard.sol",
  "abi": [
    {
      "inputs": [],
      "stateMutability": "nonpayable",
      "type": "constructor"
    },
    {
      "anonymous": false,
      "inputs": [
        {
          "indexed": true,
          "internalType": "address",
          "name": "owner",
          "type": "address"
        },
        {
          "indexed": true,
          "internalType": "address",
          "name": "approved",
          "type": "address"
        },
        {
          "indexed": true,
          "internalType": "uint256",
          "name": "tokenId",
          "type": "uint256"
        }
      ],
      "name": "Approval",
      "type": "event"
    },
    {
      "anonymous": false,
      "inputs": [
        {
          "indexed": true,
          "internalType": "address",
          "name": "owner",
          "type": "address"
        },
        {
          "indexed": true,
          "internalType": "address",
          "name": "operator",
          "type": "address"
        },
        {
          "indexed": false,
          "internalType": "bool",
          "name": "approved",
          "type": "bool"
        }
      ],
      "name": "ApprovalForAll",
      "type": "event"
    },
    {
      "anonymous": false,
      "inputs": [
        {
          "indexed": false,
          "internalType": "uint256",
          "name": "_fromTokenId",
          "type": "uint256"
        },
        {
          "indexed": false,
          "internalType": "uint256",
          "name": "_toTokenId",
          "type": "uint256"
        }
      ],
      "name": "BatchMetadataUpdate",
      "type": "event"
    },
    {
      "anonymous": false,
      "inputs": [
        {
          "indexed": true,
          "internalType": "address",
          "name": "delegator",
          "type": "address"
        },
        {
          "indexed": true,
          "internalType": "address",
          "name": "fromDelegate",
          "type": "address"
        },
        {
          "indexed": true,
          "internalType": "address",
          "name": "toDelegate",
          "type": "address"
        }
      ],
      "name": "DelegateChanged",
      "type": "event"
    },
    {
      "anonymous": false,
      "inputs": [
        {
          "indexed": true,
          "internalType": "address",
          "name": "delegate",
          "type": "address"
        },
        {
          "indexed": false,
          "internalType": "uint256",
          "name": "previousBalance",
          "type": "uint256"
        },
        {
          "indexed": false,
          "internalType": "uint256",
          "name": "newBalance",
          "type": "uint256"
        }
      ],
      "name": "DelegateVotesChanged",
      "type": "event"
    },
    {
      "anonymous": false,
      "inputs": [],
      "name": "EIP712DomainChanged",
      "type": "event"
    },
    {
      "anonymous": false,
      "inputs": [
        {
          "indexed": false,
          "internalType": "uint8",
          "name": "version",
          "type": "uint8"
        }
      ],
      "name": "Initialized",
      "type": "event"
    },
    {
      "anonymous": false,
      "inputs": [
        {
          "indexed": false,
          "internalType": "uint256",
          "name": "_tokenId",
          "type": "uint256"
        }
      ],
      "name": "MetadataUpdate",
      "type": "event"
    },
    {
      "anonymous": false,
      "inputs": [
        {
          "indexed": true,
          "internalType": "address",
          "name": "previousOwner",
          "type": "address"
        },
        {
          "indexed": true,
          "internalType": "address",
          "name": "newOwner",
          "type": "address"
        }
      ],
      "name": "OwnershipTransferred",
      "type": "event"
    },
    {
      "anonymous": false,
      "inputs": [
        {
          "indexed": true,
          "internalType": "address",
          "name": "from",
          "type": "address"
        },
        {
          "indexed": true,
          "internalType": "address",
          "name": "to",
          "type": "address"
        },
        {
          "indexed": true,
          "internalType": "uint256",
          "name": "tokenId",
          "type": "uint256"
        }
      ],
      "name": "Transfer",
      "type": "event"
    },
    {
      "inputs": [],
      "name": "CLOCK_MODE",
      "outputs": [
        {
          "internalType": "string",
          "name": "",
          "type": "string"
        }
      ],
      "stateMutability": "view",
      "type": "function"
    },
    {
      "inputs": [],
      "name": "DOMAIN_SEPARATOR",
      "outputs": [
        {
          "internalType": "bytes32",
          "name": "",
          "type": "bytes32"
        }
      ],
      "stateMutability": "view",
      "type": "function"
    },
    {
      "inputs": [
        {
          "internalType": "address",
          "name": "to",
          "type": "address"
        },
        {
          "internalType": "uint256",
          "name": "tokenId",
          "type": "uint256"
        }
      ],
      "name": "approve",
      "outputs": [],
      "stateMutability": "nonpayable",
      "type": "function"
    },
    {
      "inputs": [
        {
          "internalType": "address",
          "name": "owner",
          "type": "address"
        }
      ],
      "name": "balanceOf",
      "outputs": [
        {
          "internalType": "uint256",
          "name": "",
          "type": "uint256"
        }
      ],
      "stateMutability": "view",
      "type": "function"
    },
    {
      "inputs": [],
      "name": "clock",
      "outputs": [
        {
          "internalType": "uint48",
          "name": "",
          "type": "uint48"
        }
      ],
      "stateMutability": "view",
      "type": "function"
    },
    {
      "inputs": [
        {
          "internalType": "address",
          "name": "delegatee",
          "type": "address"
        }
      ],
      "name": "delegate",
      "outputs": [],
      "stateMutability": "nonpayable",
      "type": "function"
    },
    {
      "inputs": [
        {
          "internalType": "address",
          "name": "delegatee",
          "type": "address"
        },
        {
          "internalType": "uint256",
          "name": "nonce",
          "type": "uint256"
        },
        {
          "internalType": "uint256",
          "name": "expiry",
          "type": "uint256"
        },
        {
          "internalType": "uint8",
          "name": "v",
          "type": "uint8"
        },
        {
          "internalType": "bytes32",
          "name": "r",
          "type": "bytes32"
        },
        {
          "internalType": "bytes32",
          "name": "s",
          "type": "bytes32"
        }
      ],
      "name": "delegateBySig",
      "outputs": [],
      "stateMutability": "nonpayable",
      "type": "function"
    },
    {
      "inputs": [
        {
          "internalType": "address",
          "name": "account",
          "type": "address"
        }
      ],
      "name": "delegates",
      "outputs": [
        {
          "internalType": "address",
          "name": "",
          "type": "address"
        }
      ],
      "stateMutability": "view",
      "type": "function"
    },
    {
      "inputs": [],
      "name": "eip712Domain",
      "outputs": [
        {
          "internalType": "bytes1",
          "name": "fields",
          "type": "bytes1"
        },
        {
          "internalType": "string",
          "name": "name",
          "type": "string"
        },
        {
          "internalType": "string",
          "name": "version",
          "type": "string"
        },
        {
          "internalType": "uint256",
          "name": "chainId",
          "type": "uint256"
        },
        {
          "internalType": "address",
          "name": "verifyingContract",
          "type": "address"
        },
        {
          "internalType": "bytes32",
          "name": "salt",
          "type": "bytes32"
        },
        {
          "internalType": "uint256[]",
          "name": "extensions",
          "type": "uint256[]"
        }
      ],
      "stateMutability": "view",
      "type": "function"
    },
    {
      "inputs": [
        {
          "internalType": "uint256",
          "name": "tokenId",
          "type": "uint256"
        }
      ],
      "name": "getApproved",
      "outputs": [
        {
          "internalType": "address",
          "name": "",
          "type": "address"
        }
      ],
      "stateMutability": "view",
      "type": "function"
    },
    {
      "inputs": [
        {
          "internalType": "uint256",
          "name": "timepoint",
          "type": "uint256"
        }
      ],
      "name": "getPastTotalSupply",
      "outputs": [
        {
          "internalType": "uint256",
          "name": "",
          "type": "uint256"
        }
      ],
      "stateMutability": "view",
      "type": "function"
    },
    {
      "inputs": [
        {
          "internalType": "address",
          "name": "account",
          "type": "address"
        },
        {
          "internalType": "uint256",
          "name": "timepoint",
          "type": "uint256"
        }
      ],
      "name": "getPastVotes",
      "outputs": [
        {
          "internalType": "uint256",
          "name": "",
          "type": "uint256"
        }
      ],
      "stateMutability": "view",
      "type": "function"
    },
    {
      "inputs": [
        {
          "internalType": "address",
          "name": "account",
          "type": "address"
        }
      ],
      "name": "getVotes",
      "outputs": [
        {
          "internalType": "uint256",
          "name": "",
          "type": "uint256"
        }
      ],
      "stateMutability": "view",
      "type": "function"
    },
    {
      "inputs": [],
      "name": "initialize",
      "outputs": [],
      "stateMutability": "nonpayable",
      "type": "function"
    },
    {
      "inputs": [
        {
          "internalType": "address",
          "name": "owner",
          "type": "address"
        },
        {
          "internalType": "address",
          "name": "operator",
          "type": "address"
        }
      ],
      "name": "isApprovedForAll",
      "outputs": [
        {
          "internalType": "bool",
          "name": "",
          "type": "bool"
        }
      ],
      "stateMutability": "view",
      "type": "function"
    },
    {
      "inputs": [],
      "name": "name",
      "outputs": [
        {
          "internalType": "string",
          "name": "",
          "type": "string"
        }
      ],
      "stateMutability": "view",
      "type": "function"
    },
    {
      "inputs": [
        {
          "internalType": "address",
          "name": "owner",
          "type": "address"
        }
      ],
      "name": "nonces",
      "outputs": [
        {
          "internalType": "uint256",
          "name": "",
          "type": "uint256"
        }
      ],
      "stateMutability": "view",
      "type": "function"
    },
    {
      "inputs": [],
      "name": "owner",
      "outputs": [
        {
          "internalType": "address",
          "name": "",
          "type": "address"
        }
      ],
      "stateMutability": "view",
      "type": "function"
    },
    {
      "inputs": [
        {
          "internalType": "uint256",
          "name": "tokenId",
          "type": "uint256"
        }
      ],
      "name": "ownerOf",
      "outputs": [
        {
          "internalType": "address",
          "name": "",
          "type": "address"
        }
      ],
      "stateMutability": "view",
      "type": "function"
    },
    {
      "inputs": [],
      "name": "renounceOwnership",
      "outputs": [],
      "stateMutability": "nonpayable",
      "type": "function"
    },
    {
      "inputs": [
        {
          "internalType": "address",
          "name": "to",
          "type": "address"
        }
      ],
      "name": "safeMint",
      "outputs": [],
      "stateMutability": "nonpayable",
      "type": "function"
    },
    {
      "inputs": [
        {
          "internalType": "address",
          "name": "from",
          "type": "address"
        },
        {
          "internalType": "address",
          "name": "to",
          "type": "address"
        },
        {
          "internalType": "uint256",
          "name": "tokenId",
          "type": "uint256"
        }
      ],
      "name": "safeTransferFrom",
      "outputs": [],
      "stateMutability": "nonpayable",
      "type": "function"
    },
    {
      "inputs": [
        {
          "internalType": "address",
          "name": "from",
          "type": "address"
        },
        {
          "internalType": "address",
          "name": "to",
          "type": "address"
        },
        {
          "internalType": "uint256",
          "name": "tokenId",
          "type": "uint256"
        },
        {
          "internalType": "bytes",
          "name": "data",
          "type": "bytes"
        }
      ],
      "name": "safeTransferFrom",
      "outputs": [],
      "stateMutability": "nonpayable",
      "type": "function"
    },
    {
      "inputs": [
        {
          "internalType": "address",
          "name": "operator",
          "type": "address"
        },
        {
          "internalType": "bool",
          "name": "approved",
          "type": "bool"
        }
      ],
      "name": "setApprovalForAll",
      "outputs": [],
      "stateMutability": "nonpayable",
      "type": "function"
    },
    {
      "inputs": [
        {
          "internalType": "bytes4",
          "name": "interfaceId",
          "type": "bytes4"
        }
      ],
      "name": "supportsInterface",
      "outputs": [
        {
          "internalType": "bool",
          "name": "",
          "type": "bool"
        }
      ],
      "stateMutability": "view",
      "type": "function"
    },
    {
      "inputs": [],
      "name": "symbol",
      "outputs": [
        {
          "internalType": "string",
          "name": "",
          "type": "string"
        }
      ],
      "stateMutability": "view",
      "type": "function"
    },
    {
      "inputs": [
        {
          "internalType": "uint256",
          "name": "tokenId",
          "type": "uint256"
        }
      ],
      "name": "tokenURI",
      "outputs": [
        {
          "internalType": "string",
          "name": "",
          "type": "string"
        }
      ],
      "stateMutability": "view",
      "type": "function"
    },
    {
      "inputs": [
        {
          "internalType": "address",
          "name": "from",
          "type": "address"
        },
        {
          "internalType": "address",
          "name": "to",
          "type": "address"
        },
        {
          "internalType": "uint256",
          "name": "tokenId",
          "type": "uint256"
        }
      ],
      "name": "transferFrom",
      "outputs": [],
      "stateMutability": "nonpayable",
      "type": "function"
    },
    {
      "inputs": [
        {
          "internalType": "address",
          "name": "newOwner",
          "type": "address"
        }
      ],
      "name": "transferOwnership",
      "outputs": [],
      "stateMutability": "nonpayable",
      "type": "function"
    }
  ],
  "bytecode": "0x60806040523480156200001157600080fd5b506200001c62000022565b620000e3565b600054610100900460ff16156200008f5760405162461bcd60e51b815260206004820152602760248201527f496e697469616c697a61626c653a20636f6e747261637420697320696e697469604482015266616c697a696e6760c81b606482015260840160405180910390fd5b60005460ff90811614620000e1576000805460ff191660ff9081179091556040519081527f7f26b83ff96e1f2b6a682f133852f6798a09c465da95921460cefb38474024989060200160405180910390a15b565b612e1c80620000f36000396000f3fe608060405234801561001057600080fd5b506004361061015f5760003560e01c806301ffc9a71461016457806306fdde031461018c578063081812fc146101a1578063095ea7b3146101cc57806323b872dd146101e15780633644e515146101f45780633a46b1a81461020a57806340d097c31461021d57806342842e0e146102305780634bf5d7e914610243578063587cde1e1461024b5780635c19a95c1461025e5780636352211e1461027157806370a0823114610284578063715018a6146102975780637ecebe001461029f5780638129fc1c146102b257806384b0196e146102ba5780638da5cb5b146102d55780638e539e8c146102dd57806391ddadf4146102f057806395d89b411461030f5780639ab24eb014610317578063a22cb4651461032a578063b88d4fde1461033d578063c3cda52014610350578063c87b56dd14610363578063e985e9c514610376578063f2fde38b14610389575b600080fd5b6101776101723660046126db565b61039c565b60405190151581526020015b60405180910390f35b6101946103ad565b6040516101839190612750565b6101b46101af366004612763565b61043f565b6040516001600160a01b039091168152602001610183565b6101df6101da366004612798565b610466565b005b6101df6101ef3660046127c2565b610581565b6101fc6105b2565b604051908152602001610183565b6101fc610218366004612798565b6105c1565b6101df61022b3660046127fe565b61062c565b6101df61023e3660046127c2565b6106bd565b6101946106d8565b6101b46102593660046127fe565b61076b565b6101df61026c3660046127fe565b61078a565b6101b461027f366004612763565b610799565b6101fc6102923660046127fe565b6107cd565b6101df610853565b6101fc6102ad3660046127fe565b610867565b6101df610886565b6102c2610a43565b6040516101839796959493929190612819565b6101b4610ae1565b6101fc6102eb366004612763565b610af0565b6102f8610b44565b60405165ffffffffffff9091168152602001610183565b610194610b4f565b6101fc6103253660046127fe565b610b5e565b6101df6103383660046128af565b610b80565b6101df61034b366004612901565b610b8b565b6101df61035e3660046129dc565b610bc3565b610194610371366004612763565b610ceb565b610177610384366004612a3c565b610cf6565b6101df6103973660046127fe565b610d24565b60006103a782610d9a565b92915050565b6060606580546103bc90612a6f565b80601f01602080910402602001604051908101604052809291908181526020018280546103e890612a6f565b80156104355780601f1061040a57610100808354040283529160200191610435565b820191906000526020600020905b81548152906001019060200180831161041857829003601f168201915b5050505050905090565b600061044a82610dbf565b506000908152606960205260409020546001600160a01b031690565b600061047182610799565b9050806001600160a01b0316836001600160a01b031614156104e45760405162461bcd60e51b815260206004820152602160248201527f4552433732313a20617070726f76616c20746f2063757272656e74206f776e656044820152603960f91b60648201526084015b60405180910390fd5b336001600160a01b038216148061050057506105008133610cf6565b6105725760405162461bcd60e51b815260206004820152603d60248201527f4552433732313a20617070726f76652063616c6c6572206973206e6f7420746f60448201527f6b656e206f776e6572206f7220617070726f76656420666f7220616c6c00000060648201526084016104db565b61057c8383610de4565b505050565b61058b3382610e52565b6105a75760405162461bcd60e51b81526004016104db90612aa4565b61057c838383610eb1565b60006105bc61100b565b905090565b60006105cb610b44565b65ffffffffffff1682106105f15760405162461bcd60e51b81526004016104db90612af1565b61061c6105fd83611015565b6001600160a01b0385166000908152610130602052604090209061107e565b6001600160e01b03169392505050565b6000610637826107cd565b905080156106845760405162461bcd60e51b815260206004820152601a6024820152795573657220616c72656164792068617320612062616c616e636560301b60448201526064016104db565b60006106906101935490565b90506106a161019380546001019055565b6106ab8382611132565b61057c816106b883610ceb565b61114c565b61057c83838360405180602001604052806000815250610b8b565b6060436106e3610b44565b65ffffffffffff16146107335760405162461bcd60e51b8152602060048201526018602482015277566f7465733a2062726f6b656e20636c6f636b206d6f646560401b60448201526064016104db565b5060408051808201909152601d81527f6d6f64653d626c6f636b6e756d6265722666726f6d3d64656661756c74000000602082015290565b6001600160a01b03908116600090815261012f60205260409020541690565b33610795818361120f565b5050565b6000806107a58361128b565b90506001600160a01b0381166103a75760405162461bcd60e51b81526004016104db90612b1f565b60006001600160a01b0382166108375760405162461bcd60e51b815260206004820152602960248201527f4552433732313a2061646472657373207a65726f206973206e6f7420612076616044820152683634b21037bbb732b960b91b60648201526084016104db565b506001600160a01b031660009081526068602052604090205490565b61085b6112a6565b6108656000611305565b565b6001600160a01b038116600090815261013260205260408120546103a7565b600054610100900460ff16158080156108a65750600054600160ff909116105b806108c757506108b530611357565b1580156108c7575060005460ff166001145b61092a5760405162461bcd60e51b815260206004820152602e60248201527f496e697469616c697a61626c653a20636f6e747261637420697320616c72656160448201526d191e481a5b9a5d1a585b1a5e995960921b60648201526084016104db565b6000805460ff19166001179055801561094d576000805461ff0019166101001790555b61099a6040518060400160405280600d81526020016c12159056159bdd195c90d85c99609a1b8152506040518060400160405280600681526020016548564158564360d01b815250611366565b6109a2611397565b6109aa6113be565b6109f26040518060400160405280600d81526020016c12159056159bdd195c90d85c99609a1b815250604051806040016040528060018152602001603160f81b8152506113ed565b6109fa611397565b8015610a40576000805461ff0019169055604051600181527f7f26b83ff96e1f2b6a682f133852f6798a09c465da95921460cefb38474024989060200160405180910390a15b50565b60006060806000806000606060fb546000801b148015610a63575060fc54155b610aa75760405162461bcd60e51b81526020600482015260156024820152741152540dcc4c8e88155b9a5b9a5d1a585b1a5e9959605a1b60448201526064016104db565b610aaf61141e565b610ab761142d565b60408051600080825260208201909252600f60f81b9b939a50919850469750309650945092509050565b60c9546001600160a01b031690565b6000610afa610b44565b65ffffffffffff168210610b205760405162461bcd60e51b81526004016104db90612af1565b610b35610b2c83611015565b6101319061107e565b6001600160e01b031692915050565b60006105bc4361143c565b6060606680546103bc90612a6f565b6001600160a01b038116600090815261013060205260408120610b35906114a3565b6107953383836114dd565b610b953383610e52565b610bb15760405162461bcd60e51b81526004016104db90612aa4565b610bbd848484846115a8565b50505050565b83421115610c0e5760405162461bcd60e51b8152602060048201526018602482015277159bdd195cce881cda59db985d1d5c9948195e1c1a5c995960421b60448201526064016104db565b604080517fe48329057bfd03d55e49b547132e39cffd9c1820ad7b9d4c5307691425d15adf60208201526001600160a01b038816918101919091526060810186905260808101859052600090610c8890610c809060a001604051602081830303815290604052805190602001206115db565b858585611608565b9050610c9381611630565b8614610cd85760405162461bcd60e51b8152602060048201526014602482015273566f7465733a20696e76616c6964206e6f6e636560601b60448201526064016104db565b610ce2818861120f565b50505050505050565b60606103a782611659565b6001600160a01b039182166000908152606a6020908152604080832093909416825291909152205460ff1690565b610d2c6112a6565b6001600160a01b038116610d915760405162461bcd60e51b815260206004820152602660248201527f4f776e61626c653a206e6577206f776e657220697320746865207a65726f206160448201526564647265737360d01b60648201526084016104db565b610a4081611305565b60006001600160e01b03198216632483248360e11b14806103a757506103a782611755565b610dc8816117a5565b610a405760405162461bcd60e51b81526004016104db90612b1f565b600081815260696020526040902080546001600160a01b0319166001600160a01b0384169081179091558190610e1982610799565b6001600160a01b03167f8c5be1e5ebec7d5bd14f71427d1e84f3dd0314c0f7b2291e5b200ac8c7c3b92560405160405180910390a45050565b600080610e5e83610799565b9050806001600160a01b0316846001600160a01b03161480610e855750610e858185610cf6565b80610ea95750836001600160a01b0316610e9e8461043f565b6001600160a01b0316145b949350505050565b826001600160a01b0316610ec482610799565b6001600160a01b031614610eea5760405162461bcd60e51b81526004016104db90612b51565b6001600160a01b038216610f4c5760405162461bcd60e51b8152602060048201526024808201527f4552433732313a207472616e7366657220746f20746865207a65726f206164646044820152637265737360e01b60648201526084016104db565b826001600160a01b0316610f5f82610799565b6001600160a01b031614610f855760405162461bcd60e51b81526004016104db90612b51565b600081815260696020908152604080832080546001600160a01b03199081169091556001600160a01b038781168086526068855283862080546000190190559087168086528386208054600101905586865260679094528285208054909216841790915590518493600080516020612dd083398151915291a461057c83838360016117c2565b60006105bc6117ce565b600063ffffffff82111561107a5760405162461bcd60e51b815260206004820152602660248201527f53616665436173743a2076616c756520646f65736e27742066697420696e203360448201526532206269747360d01b60648201526084016104db565b5090565b8154600090818160058111156110db57600061109984611842565b6110a39085612bac565b60008881526020902090915081015463ffffffff90811690871610156110cb578091506110d9565b6110d6816001612bc3565b92505b505b60006110e987878585611927565b905080156111245761110e87611100600184612bac565b600091825260209091200190565b54600160201b90046001600160e01b0316611127565b60005b979650505050505050565b610795828260405180602001604052806000815250611985565b611155826117a5565b6111b85760405162461bcd60e51b815260206004820152602e60248201527f45524337323155524953746f726167653a2055524920736574206f66206e6f6e60448201526d32bc34b9ba32b73a103a37b5b2b760911b60648201526084016104db565b600082815260976020908152604090912082516111d792840190612635565b506040518281527ff8e1a15aba9398e019f0b49df1a4fde98ee17ae345cb5f6b5e2c27f5033e8ce79060200160405180910390a15050565b600061121a8361076b565b6001600160a01b03848116600081815261012f602052604080822080546001600160a01b031916888616908117909155905194955093928516927f3134e8a2e6d97e929a7e54011ea5485d7d196dd5f0ba4d4ef95803e8e3fc257f9190a461057c8183611286866119b8565b6119c3565b6000908152606760205260409020546001600160a01b031690565b336112af610ae1565b6001600160a01b0316146108655760405162461bcd60e51b815260206004820181905260248201527f4f776e61626c653a2063616c6c6572206973206e6f7420746865206f776e657260448201526064016104db565b60c980546001600160a01b038381166001600160a01b0319831681179093556040519116919082907f8be0079c531659141344cd1fd0a4f28419497f9722a3daafe3b4186f6b6457e090600090a35050565b6001600160a01b03163b151590565b600054610100900460ff1661138d5760405162461bcd60e51b81526004016104db90612bdb565b6107958282611b0d565b600054610100900460ff166108655760405162461bcd60e51b81526004016104db90612bdb565b600054610100900460ff166113e55760405162461bcd60e51b81526004016104db90612bdb565b610865611b5b565b600054610100900460ff166114145760405162461bcd60e51b81526004016104db90612bdb565b6107958282611b8b565b606060fd80546103bc90612a6f565b606060fe80546103bc90612a6f565b600065ffffffffffff82111561107a5760405162461bcd60e51b815260206004820152602660248201527f53616665436173743a2076616c756520646f65736e27742066697420696e203460448201526538206269747360d01b60648201526084016104db565b805460009080156114d3576114bd83611100600184612bac565b54600160201b90046001600160e01b03166114d6565b60005b9392505050565b816001600160a01b0316836001600160a01b0316141561153b5760405162461bcd60e51b815260206004820152601960248201527822a9219b99189d1030b8383937bb32903a379031b0b63632b960391b60448201526064016104db565b6001600160a01b038381166000818152606a6020908152604080832094871680845294825291829020805460ff191686151590811790915591519182527f17307eab39ab6107e8899845ad3d59bd9653f200f220920489ca2b5937696c31910160405180910390a3505050565b6115b3848484610eb1565b6115bf84848484611be8565b610bbd5760405162461bcd60e51b81526004016104db90612c26565b60006103a76115e861100b565b8360405161190160f01b8152600281019290925260228201526042902090565b600080600061161987878787611cea565b9150915061162681611da4565b5095945050505050565b6001600160a01b0381166000908152610132602052604090208054600181018255905b50919050565b606061166482610dbf565b6000828152609760205260408120805461167d90612a6f565b80601f01602080910402602001604051908101604052809291908181526020018280546116a990612a6f565b80156116f65780601f106116cb576101008083540402835291602001916116f6565b820191906000526020600020905b8154815290600101906020018083116116d957829003601f168201915b505050505090506000611707611eed565b905080516000141561171a575092915050565b81511561174c578082604051602001611734929190612c78565b60405160208183030381529060405292505050919050565b610ea984611f24565b60006001600160e01b031982166380ac58cd60e01b148061178657506001600160e01b03198216635b5e139f60e01b145b806103a757506301ffc9a760e01b6001600160e01b03198316146103a7565b6000806117b18361128b565b6001600160a01b0316141592915050565b610bbd84848484611f8a565b60007f8b73c3c69bb8fe3d512ecc4cf759cc79239f7b179b0ffacaa9a75d522b39400f6117f9611f9a565b611801611ff3565b60408051602081019490945283019190915260608201524660808201523060a082015260c00160405160208183030381529060405280519060200120905090565b60008161185157506000919050565b6000600161185e84612024565b901c6001901b9050600181848161187757611877612ca7565b048201901c9050600181848161188f5761188f612ca7565b048201901c905060018184816118a7576118a7612ca7565b048201901c905060018184816118bf576118bf612ca7565b048201901c905060018184816118d7576118d7612ca7565b048201901c905060018184816118ef576118ef612ca7565b048201901c9050600181848161190757611907612ca7565b048201901c90506114d68182858161192157611921612ca7565b046120b8565b60005b8183101561197d57600061193e84846120ce565b60008781526020902090915063ffffffff86169082015463ffffffff16111561196957809250611977565b611974816001612bc3565b93505b5061192a565b509392505050565b61198f83836120e9565b61199c6000848484611be8565b61057c5760405162461bcd60e51b81526004016104db90612c26565b60006103a7826107cd565b816001600160a01b0316836001600160a01b0316141580156119e55750600081115b1561057c576001600160a01b03831615611a7c576001600160a01b0383166000908152610130602052604081208190611a29906121ee611a24866121fa565b612263565b6001600160e01b031691506001600160e01b03169150846001600160a01b0316600080516020612df08339815191528383604051611a71929190918252602082015260400190565b60405180910390a250505b6001600160a01b0382161561057c576001600160a01b0382166000908152610130602052604081208190611ab6906122ac611a24866121fa565b6001600160e01b031691506001600160e01b03169150836001600160a01b0316600080516020612df08339815191528383604051611afe929190918252602082015260400190565b60405180910390a25050505050565b600054610100900460ff16611b345760405162461bcd60e51b81526004016104db90612bdb565b8151611b47906065906020850190612635565b50805161057c906066906020840190612635565b600054610100900460ff16611b825760405162461bcd60e51b81526004016104db90612bdb565b61086533611305565b600054610100900460ff16611bb25760405162461bcd60e51b81526004016104db90612bdb565b8151611bc59060fd906020850190612635565b508051611bd99060fe906020840190612635565b5050600060fb81905560fc5550565b6000611bfc846001600160a01b0316611357565b15611ce257604051630a85bd0160e11b81526001600160a01b0385169063150b7a0290611c33903390899088908890600401612cbd565b6020604051808303816000875af1925050508015611c6e575060408051601f3d908101601f19168201909252611c6b91810190612cfa565b60015b611cc8573d808015611c9c576040519150601f19603f3d011682016040523d82523d6000602084013e611ca1565b606091505b508051611cc05760405162461bcd60e51b81526004016104db90612c26565b805181602001fd5b6001600160e01b031916630a85bd0160e11b149050610ea9565b506001610ea9565b6000806fa2a8918ca85bafe22016d0b997e4df60600160ff1b03831115611d175750600090506003611d9b565b6040805160008082526020820180845289905260ff881692820192909252606081018690526080810185905260019060a0016020604051602081039080840390855afa158015611d6b573d6000803e3d6000fd5b5050604051601f1901519150506001600160a01b038116611d9457600060019250925050611d9b565b9150600090505b94509492505050565b6000816004811115611db857611db8612d17565b1415611dc15750565b6001816004811115611dd557611dd5612d17565b1415611e1e5760405162461bcd60e51b815260206004820152601860248201527745434453413a20696e76616c6964207369676e617475726560401b60448201526064016104db565b6002816004811115611e3257611e32612d17565b1415611e805760405162461bcd60e51b815260206004820152601f60248201527f45434453413a20696e76616c6964207369676e6174757265206c656e6774680060448201526064016104db565b6003816004811115611e9457611e94612d17565b1415610a405760405162461bcd60e51b815260206004820152602260248201527f45434453413a20696e76616c6964207369676e6174757265202773272076616c604482015261756560f01b60648201526084016104db565b6040805180820190915260208082527f68747470733a2f2f68766178697066732e696e667572612d697066732e696f2f9082015290565b6060611f2f82610dbf565b6000611f39611eed565b90506000815111611f5957604051806020016040528060008152506114d6565b80611f63846122b8565b604051602001611f74929190612c78565b6040516020818303038152906040529392505050565b611f9584848361234c565b610bbd565b600080611fa561141e565b805190915015611fbc578051602090910120919050565b60fb548015611fcb5792915050565b7fc5d2460186f7233c927e7db2dcc703c0e500b653ca82273b7bfad8045d85a4709250505090565b600080611ffe61142d565b805190915015612015578051602090910120919050565b60fc548015611fcb5792915050565b600080608083901c1561203957608092831c92015b604083901c1561204b57604092831c92015b602083901c1561205d57602092831c92015b601083901c1561206f57601092831c92015b600883901c1561208157600892831c92015b600483901c1561209357600492831c92015b600283901c156120a557600292831c92015b600183901c156103a75760010192915050565b60008183106120c757816114d6565b5090919050565b60006120dd6002848418612d2d565b6114d690848416612bc3565b6001600160a01b03821661213f5760405162461bcd60e51b815260206004820181905260248201527f4552433732313a206d696e7420746f20746865207a65726f206164647265737360448201526064016104db565b612148816117a5565b156121655760405162461bcd60e51b81526004016104db90612d4f565b61216e816117a5565b1561218b5760405162461bcd60e51b81526004016104db90612d4f565b6001600160a01b038216600081815260686020908152604080832080546001019055848352606790915280822080546001600160a01b031916841790555183929190600080516020612dd0833981519152908290a46107956000838360016117c2565b60006114d68284612d85565b60006001600160e01b0382111561107a5760405162461bcd60e51b815260206004820152602760248201527f53616665436173743a2076616c756520646f65736e27742066697420696e20326044820152663234206269747360c81b60648201526084016104db565b60008061229f612281612274610b44565b65ffffffffffff16611015565b61229761228d886114a3565b868863ffffffff16565b8791906123ad565b915091505b935093915050565b60006114d68284612dad565b606060006122c5836123bb565b60010190506000816001600160401b038111156122e4576122e46128eb565b6040519080825280601f01601f19166020018201604052801561230e576020820181803683370190505b5090508181016020015b600019016f181899199a1a9b1b9c1cb0b131b232b360811b600a86061a8153600a85049450846123475761197d565b612318565b6001600160a01b03831661236f5761236c6101316122ac611a24846121fa565b50505b6001600160a01b0382166123925761238f6101316121ee611a24846121fa565b50505b61057c61239e8461076b565b6123a78461076b565b836119c3565b60008061229f858585612491565b60008072184f03e93ff9f4daa797ed6e38ed64bf6a1f0160401b83106123fa5772184f03e93ff9f4daa797ed6e38ed64bf6a1f0160401b830492506040015b6904ee2d6d415b85acef8160201b8310612424576904ee2d6d415b85acef8160201b830492506020015b662386f26fc10000831061244257662386f26fc10000830492506010015b6305f5e100831061245a576305f5e100830492506008015b612710831061246e57612710830492506004015b60648310612480576064830492506002015b600a83106103a75760010192915050565b8254600090819080156125dc5760006124af87611100600185612bac565b60408051808201909152905463ffffffff808216808452600160201b9092046001600160e01b03166020840152919250908716101561252e5760405162461bcd60e51b815260206004820152601b60248201527a436865636b706f696e743a2064656372656173696e67206b65797360281b60448201526064016104db565b8563ffffffff16816000015163ffffffff16141561257d578461255688611100600186612bac565b80546001600160e01b0392909216600160201b0263ffffffff9092169190911790556125cc565b6040805180820190915263ffffffff80881682526001600160e01b0380881660208085019182528b54600181018d5560008d81529190912094519151909216600160201b029216919091179101555b6020015192508391506122a49050565b50506040805180820190915263ffffffff80851682526001600160e01b0380851660208085019182528854600181018a5560008a815291822095519251909316600160201b0291909316179201919091559050816122a4565b82805461264190612a6f565b90600052602060002090601f01602090048101928261266357600085556126a9565b82601f1061267c57805160ff19168380011785556126a9565b828001600101855582156126a9579182015b828111156126a957825182559160200191906001019061268e565b5061107a9291505b8082111561107a57600081556001016126b1565b6001600160e01b031981168114610a4057600080fd5b6000602082840312156126ed57600080fd5b81356114d6816126c5565b60005b838110156127135781810151838201526020016126fb565b83811115610bbd5750506000910152565b6000815180845261273c8160208601602086016126f8565b601f01601f19169290920160200192915050565b6020815260006114d66020830184612724565b60006020828403121561277557600080fd5b5035919050565b80356001600160a01b038116811461279357600080fd5b919050565b600080604083850312156127ab57600080fd5b6127b48361277c565b946020939093013593505050565b6000806000606084860312156127d757600080fd5b6127e08461277c565b92506127ee6020850161277c565b9150604084013590509250925092565b60006020828403121561281057600080fd5b6114d68261277c565b60ff60f81b881681526000602060e08184015261283960e084018a612724565b838103604085015261284b818a612724565b606085018990526001600160a01b038816608086015260a0850187905284810360c0860152855180825283870192509083019060005b8181101561289d57835183529284019291840191600101612881565b50909c9b505050505050505050505050565b600080604083850312156128c257600080fd5b6128cb8361277c565b9150602083013580151581146128e057600080fd5b809150509250929050565b634e487b7160e01b600052604160045260246000fd5b6000806000806080858703121561291757600080fd5b6129208561277c565b935061292e6020860161277c565b92506040850135915060608501356001600160401b038082111561295157600080fd5b818701915087601f83011261296557600080fd5b813581811115612977576129776128eb565b604051601f8201601f19908116603f0116810190838211818310171561299f5761299f6128eb565b816040528281528a60208487010111156129b857600080fd5b82602086016020830137600060208483010152809550505050505092959194509250565b60008060008060008060c087890312156129f557600080fd5b6129fe8761277c565b95506020870135945060408701359350606087013560ff81168114612a2257600080fd5b9598949750929560808101359460a0909101359350915050565b60008060408385031215612a4f57600080fd5b612a588361277c565b9150612a666020840161277c565b90509250929050565b600181811c90821680612a8357607f821691505b6020821081141561165357634e487b7160e01b600052602260045260246000fd5b6020808252602d908201527f4552433732313a2063616c6c6572206973206e6f7420746f6b656e206f776e6560408201526c1c881bdc88185c1c1c9bdd9959609a1b606082015260800190565b6020808252601490820152730566f7465733a20667574757265206c6f6f6b75760641b604082015260600190565b602080825260189082015277115490cdcc8c4e881a5b9d985b1a59081d1bdad95b88125160421b604082015260600190565b60208082526025908201527f4552433732313a207472616e736665722066726f6d20696e636f72726563742060408201526437bbb732b960d91b606082015260800190565b634e487b7160e01b600052601160045260246000fd5b600082821015612bbe57612bbe612b96565b500390565b60008219821115612bd657612bd6612b96565b500190565b6020808252602b908201527f496e697469616c697a61626c653a20636f6e7472616374206973206e6f74206960408201526a6e697469616c697a696e6760a81b606082015260800190565b60208082526032908201527f4552433732313a207472616e7366657220746f206e6f6e20455243373231526560408201527131b2b4bb32b91034b6b83632b6b2b73a32b960711b606082015260800190565b60008351612c8a8184602088016126f8565b835190830190612c9e8183602088016126f8565b01949350505050565b634e487b7160e01b600052601260045260246000fd5b6001600160a01b0385811682528416602082015260408101839052608060608201819052600090612cf090830184612724565b9695505050505050565b600060208284031215612d0c57600080fd5b81516114d6816126c5565b634e487b7160e01b600052602160045260246000fd5b600082612d4a57634e487b7160e01b600052601260045260246000fd5b500490565b6020808252601c908201527b115490cdcc8c4e881d1bdad95b88185b1c9958591e481b5a5b9d195960221b604082015260600190565b60006001600160e01b0383811690831681811015612da557612da5612b96565b039392505050565b60006001600160e01b03828116848216808303821115612c9e57612c9e612b9656feddf252ad1be2c89b69c2b068fc378daa952ba7f163c4a11628f55a4df523b3efdec2bacdd2f05b59de34da9b523dff8be42e5e38e818c82fdb0bae774387a724a164736f6c634300080c000a",
  "linkReferences": {},
  "deployedLinkReferences": {}
}